{
  "_format": "hh-sol-artifact-1",
  "contractName": "NFTAuction",
  "sourceName": "contracts/NFTAuction.sol",
  "abi": [
    {
      "inputs": [],
      "stateMutability": "nonpayable",
      "type": "constructor"
    },
    {
      "anonymous": false,
      "inputs": [
        {
          "indexed": true,
          "internalType": "address",
          "name": "bidder",
          "type": "address"
        },
        {
          "indexed": true,
          "internalType": "address",
          "name": "nftContract",
          "type": "address"
        },
        {
          "indexed": true,
          "internalType": "uint256",
          "name": "tokenId",
          "type": "uint256"
        },
        {
          "indexed": false,
          "internalType": "uint256",
          "name": "amount",
          "type": "uint256"
        }
      ],
      "name": "AuctionBid",
      "type": "event"
    },
    {
      "anonymous": false,
      "inputs": [
        {
          "indexed": true,
          "internalType": "address",
          "name": "seller",
          "type": "address"
        },
        {
          "indexed": true,
          "internalType": "address",
          "name": "nftContract",
          "type": "address"
        },
        {
          "indexed": true,
          "internalType": "uint256",
          "name": "tokenId",
          "type": "uint256"
        },
        {
          "indexed": false,
          "internalType": "uint256",
          "name": "startingPrice",
          "type": "uint256"
        }
      ],
      "name": "AuctionCreated",
      "type": "event"
    },
    {
      "anonymous": false,
      "inputs": [
        {
          "indexed": true,
          "internalType": "address",
          "name": "winner",
          "type": "address"
        },
        {
          "indexed": true,
          "internalType": "address",
          "name": "nftContract",
          "type": "address"
        },
        {
          "indexed": true,
          "internalType": "uint256",
          "name": "tokenId",
          "type": "uint256"
        },
        {
          "indexed": false,
          "internalType": "uint256",
          "name": "amount",
          "type": "uint256"
        }
      ],
      "name": "AuctionEnded",
      "type": "event"
    },
    {
      "inputs": [],
      "name": "DURATION",
      "outputs": [
        {
          "internalType": "uint256",
          "name": "",
          "type": "uint256"
        }
      ],
      "stateMutability": "view",
      "type": "function"
    },
    {
      "inputs": [
        {
          "internalType": "address",
          "name": "admin",
          "type": "address"
        }
      ],
      "name": "addAdmin",
      "outputs": [],
      "stateMutability": "nonpayable",
      "type": "function"
    },
    {
      "inputs": [
        {
          "internalType": "address",
          "name": "",
          "type": "address"
        }
      ],
      "name": "admins",
      "outputs": [
        {
          "internalType": "bool",
          "name": "",
          "type": "bool"
        }
      ],
      "stateMutability": "view",
      "type": "function"
    },
    {
      "inputs": [
        {
          "internalType": "address",
          "name": "",
          "type": "address"
        },
        {
          "internalType": "uint256",
          "name": "",
          "type": "uint256"
        }
      ],
      "name": "auctions",
      "outputs": [
        {
          "internalType": "address",
          "name": "seller",
          "type": "address"
        },
        {
          "internalType": "uint256",
          "name": "duration",
          "type": "uint256"
        },
        {
          "internalType": "uint256",
          "name": "startingPrice",
          "type": "uint256"
        },
        {
          "internalType": "uint256",
          "name": "highestBid",
          "type": "uint256"
        },
        {
          "internalType": "address",
          "name": "highestBidder",
          "type": "address"
        },
        {
          "internalType": "bool",
          "name": "active",
          "type": "bool"
        }
      ],
      "stateMutability": "view",
      "type": "function"
    },
    {
      "inputs": [
        {
          "internalType": "address",
          "name": "nftContract",
          "type": "address"
        },
        {
          "internalType": "uint256",
          "name": "tokenId",
          "type": "uint256"
        },
        {
          "internalType": "uint256",
          "name": "startingPrice",
          "type": "uint256"
        }
      ],
      "name": "createAuction",
      "outputs": [],
      "stateMutability": "nonpayable",
      "type": "function"
    },
    {
      "inputs": [
        {
          "internalType": "address",
          "name": "nftContract",
          "type": "address"
        },
        {
          "internalType": "uint256",
          "name": "tokenId",
          "type": "uint256"
        }
      ],
      "name": "endAuction",
      "outputs": [],
      "stateMutability": "nonpayable",
      "type": "function"
    },
    {
      "inputs": [
        {
          "internalType": "address",
          "name": "nftContract",
          "type": "address"
        },
        {
          "internalType": "uint256",
          "name": "tokenId",
          "type": "uint256"
        },
        {
          "internalType": "address",
          "name": "tokenContract",
          "type": "address"
        },
        {
          "internalType": "uint256",
          "name": "tokenAmount",
          "type": "uint256"
        }
      ],
      "name": "placeBid",
      "outputs": [],
      "stateMutability": "nonpayable",
      "type": "function"
    }
  ],
  "bytecode": "0x608060405234801561001057600080fd5b5060018060003373ffffffffffffffffffffffffffffffffffffffff1673ffffffffffffffffffffffffffffffffffffffff16815260200190815260200160002060006101000a81548160ff021916908315150217905550611a81806100776000396000f3fe608060405234801561001057600080fd5b506004361061007d5760003560e01c80636a370fc31161005b5780636a370fc314610105578063704802751461012157806388cedbc41461013d578063abb94051146101595761007d565b80631be0528914610082578063429b62e5146100a057806344f91c1e146100d0575b600080fd5b61008a610175565b60405161009791906111bb565b60405180910390f35b6100ba60048036038101906100b59190611239565b61017b565b6040516100c79190611281565b60405180910390f35b6100ea60048036038101906100e591906112c8565b61019b565b6040516100fc96959493929190611317565b60405180910390f35b61011f600480360381019061011a9190611378565b610231565b005b61013b60048036038101906101369190611239565b6108b4565b005b610157600480360381019061015291906112c8565b61099a565b005b610173600480360381019061016e91906113df565b610da7565b005b610bb881565b60016020528060005260406000206000915054906101000a900460ff1681565b6000602052816000526040600020602052806000526040600020600091509150508060000160009054906101000a900473ffffffffffffffffffffffffffffffffffffffff16908060010154908060020154908060030154908060040160009054906101000a900473ffffffffffffffffffffffffffffffffffffffff16908060040160149054906101000a900460ff16905086565b6000808573ffffffffffffffffffffffffffffffffffffffff1673ffffffffffffffffffffffffffffffffffffffff168152602001908152602001600020600084815260200190815260200160002060040160149054906101000a900460ff166102d0576040517f08c379a00000000000000000000000000000000000000000000000000000000081526004016102c79061148f565b60405180910390fd5b60008060008673ffffffffffffffffffffffffffffffffffffffff1673ffffffffffffffffffffffffffffffffffffffff168152602001908152602001600020600085815260200190815260200160002060010154148061038357506000808573ffffffffffffffffffffffffffffffffffffffff1673ffffffffffffffffffffffffffffffffffffffff1681526020019081526020016000206000848152602001908152602001600020600101544311155b6103c2576040517f08c379a00000000000000000000000000000000000000000000000000000000081526004016103b9906114fb565b60405180910390fd5b6000808573ffffffffffffffffffffffffffffffffffffffff1673ffffffffffffffffffffffffffffffffffffffff1681526020019081526020016000206000848152602001908152602001600020600301548111610456576040517f08c379a000000000000000000000000000000000000000000000000000000000815260040161044d90611567565b60405180910390fd5b60008290508073ffffffffffffffffffffffffffffffffffffffff166323b872dd3330856040518463ffffffff1660e01b815260040161049893929190611587565b6020604051808303816000875af11580156104b7573d6000803e3d6000fd5b505050506040513d601f19601f820116820180604052508101906104db91906115ea565b61051a576040517f08c379a000000000000000000000000000000000000000000000000000000000815260040161051190611663565b60405180910390fd5b60008060008773ffffffffffffffffffffffffffffffffffffffff1673ffffffffffffffffffffffffffffffffffffffff168152602001908152602001600020600086815260200190815260200160002060030154146106fa578073ffffffffffffffffffffffffffffffffffffffff1663a9059cbb6000808873ffffffffffffffffffffffffffffffffffffffff1673ffffffffffffffffffffffffffffffffffffffff168152602001908152602001600020600087815260200190815260200160002060040160009054906101000a900473ffffffffffffffffffffffffffffffffffffffff166000808973ffffffffffffffffffffffffffffffffffffffff1673ffffffffffffffffffffffffffffffffffffffff1681526020019081526020016000206000888152602001908152602001600020600301546040518363ffffffff1660e01b8152600401610673929190611683565b6020604051808303816000875af1158015610692573d6000803e3d6000fd5b505050506040513d601f19601f820116820180604052508101906106b691906115ea565b6106f5576040517f08c379a00000000000000000000000000000000000000000000000000000000081526004016106ec9061171e565b60405180910390fd5b61075f565b610bb843610708919061176d565b6000808773ffffffffffffffffffffffffffffffffffffffff1673ffffffffffffffffffffffffffffffffffffffff1681526020019081526020016000206000868152602001908152602001600020600101819055505b816000808773ffffffffffffffffffffffffffffffffffffffff1673ffffffffffffffffffffffffffffffffffffffff168152602001908152602001600020600086815260200190815260200160002060030181905550336000808773ffffffffffffffffffffffffffffffffffffffff1673ffffffffffffffffffffffffffffffffffffffff168152602001908152602001600020600086815260200190815260200160002060040160006101000a81548173ffffffffffffffffffffffffffffffffffffffff021916908373ffffffffffffffffffffffffffffffffffffffff160217905550838573ffffffffffffffffffffffffffffffffffffffff163373ffffffffffffffffffffffffffffffffffffffff167f84fd05b88be83fc762b7bb54dc94b107b11b2bd82db6f2d29cf4fc78929877de856040516108a591906111bb565b60405180910390a45050505050565b600160003373ffffffffffffffffffffffffffffffffffffffff1673ffffffffffffffffffffffffffffffffffffffff16815260200190815260200160002060009054906101000a900460ff16610940576040517f08c379a000000000000000000000000000000000000000000000000000000000815260040161093790611813565b60405180910390fd5b60018060008373ffffffffffffffffffffffffffffffffffffffff1673ffffffffffffffffffffffffffffffffffffffff16815260200190815260200160002060006101000a81548160ff02191690831515021790555050565b60008060008473ffffffffffffffffffffffffffffffffffffffff1673ffffffffffffffffffffffffffffffffffffffff16815260200190815260200160002060008381526020019081526020016000206001015414158015610a4f57506000808373ffffffffffffffffffffffffffffffffffffffff1673ffffffffffffffffffffffffffffffffffffffff1681526020019081526020016000206000828152602001908152602001600020600101544310155b610a8e576040517f08c379a0000000000000000000000000000000000000000000000000000000008152600401610a859061187f565b60405180910390fd5b6000808373ffffffffffffffffffffffffffffffffffffffff1673ffffffffffffffffffffffffffffffffffffffff168152602001908152602001600020600082815260200190815260200160002060040160149054906101000a900460ff16610b2d576040517f08c379a0000000000000000000000000000000000000000000000000000000008152600401610b24906118eb565b60405180910390fd5b60008060008473ffffffffffffffffffffffffffffffffffffffff1673ffffffffffffffffffffffffffffffffffffffff168152602001908152602001600020600083815260200190815260200160002060040160146101000a81548160ff0219169083151502179055508173ffffffffffffffffffffffffffffffffffffffff166342842e0e306000808673ffffffffffffffffffffffffffffffffffffffff1673ffffffffffffffffffffffffffffffffffffffff168152602001908152602001600020600085815260200190815260200160002060040160009054906101000a900473ffffffffffffffffffffffffffffffffffffffff16846040518463ffffffff1660e01b8152600401610c4793929190611587565b600060405180830381600087803b158015610c6157600080fd5b505af1158015610c75573d6000803e3d6000fd5b50505050808273ffffffffffffffffffffffffffffffffffffffff166000808573ffffffffffffffffffffffffffffffffffffffff1673ffffffffffffffffffffffffffffffffffffffff168152602001908152602001600020600084815260200190815260200160002060040160009054906101000a900473ffffffffffffffffffffffffffffffffffffffff1673ffffffffffffffffffffffffffffffffffffffff167f8cb46612b38473da9c08fde6971a42431fbfd80860387a3ad22f8f10a9f248b66000808773ffffffffffffffffffffffffffffffffffffffff1673ffffffffffffffffffffffffffffffffffffffff168152602001908152602001600020600086815260200190815260200160002060030154604051610d9b91906111bb565b60405180910390a45050565b600160003373ffffffffffffffffffffffffffffffffffffffff1673ffffffffffffffffffffffffffffffffffffffff16815260200190815260200160002060009054906101000a900460ff16610e33576040517f08c379a0000000000000000000000000000000000000000000000000000000008152600401610e2a90611813565b60405180910390fd5b3073ffffffffffffffffffffffffffffffffffffffff168373ffffffffffffffffffffffffffffffffffffffff16636352211e846040518263ffffffff1660e01b8152600401610e8391906111bb565b602060405180830381865afa158015610ea0573d6000803e3d6000fd5b505050506040513d601f19601f82011682018060405250810190610ec49190611920565b73ffffffffffffffffffffffffffffffffffffffff1614610f1a576040517f08c379a0000000000000000000000000000000000000000000000000000000008152600401610f11906119bf565b60405180910390fd5b6000808473ffffffffffffffffffffffffffffffffffffffff1673ffffffffffffffffffffffffffffffffffffffff168152602001908152602001600020600083815260200190815260200160002060040160149054906101000a900460ff1615610fba576040517f08c379a0000000000000000000000000000000000000000000000000000000008152600401610fb190611a2b565b60405180910390fd5b6040518060c001604052803373ffffffffffffffffffffffffffffffffffffffff1681526020016000815260200182815260200160008152602001600073ffffffffffffffffffffffffffffffffffffffff168152602001600115158152506000808573ffffffffffffffffffffffffffffffffffffffff1673ffffffffffffffffffffffffffffffffffffffff168152602001908152602001600020600084815260200190815260200160002060008201518160000160006101000a81548173ffffffffffffffffffffffffffffffffffffffff021916908373ffffffffffffffffffffffffffffffffffffffff16021790555060208201518160010155604082015181600201556060820151816003015560808201518160040160006101000a81548173ffffffffffffffffffffffffffffffffffffffff021916908373ffffffffffffffffffffffffffffffffffffffff16021790555060a08201518160040160146101000a81548160ff021916908315150217905550905050818373ffffffffffffffffffffffffffffffffffffffff163373ffffffffffffffffffffffffffffffffffffffff167fae654d602733e5af7f01c9bdc66adeb293b7a3c878db8d567c544e89397d2fb58460405161119591906111bb565b60405180910390a4505050565b6000819050919050565b6111b5816111a2565b82525050565b60006020820190506111d060008301846111ac565b92915050565b600080fd5b600073ffffffffffffffffffffffffffffffffffffffff82169050919050565b6000611206826111db565b9050919050565b611216816111fb565b811461122157600080fd5b50565b6000813590506112338161120d565b92915050565b60006020828403121561124f5761124e6111d6565b5b600061125d84828501611224565b91505092915050565b60008115159050919050565b61127b81611266565b82525050565b60006020820190506112966000830184611272565b92915050565b6112a5816111a2565b81146112b057600080fd5b50565b6000813590506112c28161129c565b92915050565b600080604083850312156112df576112de6111d6565b5b60006112ed85828601611224565b92505060206112fe858286016112b3565b9150509250929050565b611311816111fb565b82525050565b600060c08201905061132c6000830189611308565b61133960208301886111ac565b61134660408301876111ac565b61135360608301866111ac565b6113606080830185611308565b61136d60a0830184611272565b979650505050505050565b60008060008060808587031215611392576113916111d6565b5b60006113a087828801611224565b94505060206113b1878288016112b3565b93505060406113c287828801611224565b92505060606113d3878288016112b3565b91505092959194509250565b6000806000606084860312156113f8576113f76111d6565b5b600061140686828701611224565b9350506020611417868287016112b3565b9250506040611428868287016112b3565b9150509250925092565b600082825260208201905092915050565b7f41756374696f6e206e6f74206163746976650000000000000000000000000000600082015250565b6000611479601283611432565b915061148482611443565b602082019050919050565b600060208201905081810360008301526114a88161146c565b9050919050565b7f41756374696f6e20656e64656400000000000000000000000000000000000000600082015250565b60006114e5600d83611432565b91506114f0826114af565b602082019050919050565b60006020820190508181036000830152611514816114d8565b9050919050565b7f546865726520616c726561647920697320612068696768657220626964000000600082015250565b6000611551601d83611432565b915061155c8261151b565b602082019050919050565b6000602082019050818103600083015261158081611544565b9050919050565b600060608201905061159c6000830186611308565b6115a96020830185611308565b6115b660408301846111ac565b949350505050565b6115c781611266565b81146115d257600080fd5b50565b6000815190506115e4816115be565b92915050565b600060208284031215611600576115ff6111d6565b5b600061160e848285016115d5565b91505092915050565b7f546f6b656e207472616e73666572206661696c65640000000000000000000000600082015250565b600061164d601583611432565b915061165882611617565b602082019050919050565b6000602082019050818103600083015261167c81611640565b9050919050565b60006040820190506116986000830185611308565b6116a560208301846111ac565b9392505050565b7f526566756e64206f66207468652070726576696f757320626964206661696c6560008201527f6400000000000000000000000000000000000000000000000000000000000000602082015250565b6000611708602183611432565b9150611713826116ac565b604082019050919050565b60006020820190508181036000830152611737816116fb565b9050919050565b7f4e487b7100000000000000000000000000000000000000000000000000000000600052601160045260246000fd5b6000611778826111a2565b9150611783836111a2565b925082820190508082111561179b5761179a61173e565b5b92915050565b7f4f6e6c792061646d696e732063616e2063616c6c20746869732066756e63746960008201527f6f6e000000000000000000000000000000000000000000000000000000000000602082015250565b60006117fd602283611432565b9150611808826117a1565b604082019050919050565b6000602082019050818103600083015261182c816117f0565b9050919050565b7f41756374696f6e206e6f742079657420656e6465640000000000000000000000600082015250565b6000611869601583611432565b915061187482611833565b602082019050919050565b600060208201905081810360008301526118988161185c565b9050919050565b7f41756374696f6e20616c726561647920656e6465640000000000000000000000600082015250565b60006118d5601583611432565b91506118e08261189f565b602082019050919050565b60006020820190508181036000830152611904816118c8565b9050919050565b60008151905061191a8161120d565b92915050565b600060208284031215611936576119356111d6565b5b60006119448482850161190b565b91505092915050565b7f41756374696f6e20636f6e747261637420646f6573206e6f74206f776e20746860008201527f65204e4654000000000000000000000000000000000000000000000000000000602082015250565b60006119a9602583611432565b91506119b48261194d565b604082019050919050565b600060208201905081810360008301526119d88161199c565b9050919050565b7f41756374696f6e20616c72656164792061637469766500000000000000000000600082015250565b6000611a15601683611432565b9150611a20826119df565b602082019050919050565b60006020820190508181036000830152611a4481611a08565b905091905056fea26469706673582212202126ae6fe1159eed97a9e8d0933dc832f5f1467abf890715ac92d0d3e04330b364736f6c63430008120033",
  "linkReferences": {},
  "deployedLinkReferences": {}
}