{
  "_format": "hh-sol-artifact-1",
  "contractName": "NFTRouter",
  "sourceName": "contracts/NFTRouter.sol",
  "abi": [
    {
      "inputs": [],
      "name": "factory",
      "outputs": [
        {
          "internalType": "address",
          "name": "",
          "type": "address"
        }
      ],
      "stateMutability": "view",
      "type": "function"
    },
    {
      "inputs": [
        {
          "internalType": "address",
          "name": "nft",
          "type": "address"
        },
        {
          "internalType": "uint256",
          "name": "tokenId",
          "type": "uint256"
        }
      ],
      "name": "getNFTAddress",
      "outputs": [
        {
          "internalType": "address",
          "name": "",
          "type": "address"
        }
      ],
      "stateMutability": "view",
      "type": "function"
    },
    {
      "inputs": [
        {
          "internalType": "address",
          "name": "nft",
          "type": "address"
        },
        {
          "internalType": "uint256",
          "name": "tokenId",
          "type": "uint256"
        }
      ],
      "name": "getNFTMortgageInfo",
      "outputs": [
        {
          "internalType": "uint256",
          "name": "",
          "type": "uint256"
        }
      ],
      "stateMutability": "view",
      "type": "function"
    },
    {
      "inputs": [
        {
          "internalType": "address",
          "name": "nft",
          "type": "address"
        },
        {
          "internalType": "uint256",
          "name": "tokenId",
          "type": "uint256"
        },
        {
          "internalType": "uint256",
          "name": "amount",
          "type": "uint256"
        },
        {
          "internalType": "uint256",
          "name": "timeReturn",
          "type": "uint256"
        }
      ],
      "name": "mortgageNFT",
      "outputs": [],
      "stateMutability": "nonpayable",
      "type": "function"
    },
    {
      "inputs": [
        {
          "internalType": "address",
          "name": "",
          "type": "address"
        },
        {
          "internalType": "uint256",
          "name": "",
          "type": "uint256"
        }
      ],
      "name": "nftAddress",
      "outputs": [
        {
          "internalType": "address",
          "name": "",
          "type": "address"
        }
      ],
      "stateMutability": "view",
      "type": "function"
    },
    {
      "inputs": [
        {
          "internalType": "address",
          "name": "nft",
          "type": "address"
        },
        {
          "internalType": "uint256",
          "name": "tokenId",
          "type": "uint256"
        },
        {
          "internalType": "uint256",
          "name": "amount",
          "type": "uint256"
        }
      ],
      "name": "redeemNFT",
      "outputs": [],
      "stateMutability": "nonpayable",
      "type": "function"
    },
    {
      "inputs": [
        {
          "internalType": "address",
          "name": "nft",
          "type": "address"
        },
        {
          "internalType": "uint256",
          "name": "tokenId",
          "type": "uint256"
        },
        {
          "internalType": "address",
          "name": "token",
          "type": "address"
        }
      ],
      "name": "registerNFT",
      "outputs": [],
      "stateMutability": "nonpayable",
      "type": "function"
    },
    {
      "inputs": [
        {
          "internalType": "address",
          "name": "nft",
          "type": "address"
        },
        {
          "internalType": "uint256",
          "name": "tokenId",
          "type": "uint256"
        },
        {
          "internalType": "uint256",
          "name": "account",
          "type": "uint256"
        }
      ],
      "name": "transferIntoNFT",
      "outputs": [],
      "stateMutability": "nonpayable",
      "type": "function"
    }
  ],
  "bytecode": "0x608060405234801561001057600080fd5b5061199f806100206000396000f3fe608060405234801561001057600080fd5b50600436106100885760003560e01c8063bd99312a1161005b578063bd99312a14610111578063c45a015514610141578063e5b033941461015f578063eafe0fc21461018f57610088565b80630717354a1461008d5780632511597f146100a95780633de96eee146100c5578063b42e3e2d146100f5575b600080fd5b6100a760048036038101906100a291906112ae565b6101ab565b005b6100c360048036038101906100be9190611301565b6104d8565b005b6100df60048036038101906100da9190611368565b61078c565b6040516100ec91906113b7565b60405180910390f35b61010f600480360381019061010a91906112ae565b610807565b005b61012b60048036038101906101269190611368565b610b36565b60405161013891906113b7565b60405180910390f35b610149610b78565b60405161015691906113b7565b60405180910390f35b61017960048036038101906101749190611368565b610b9c565b60405161018691906113e1565b60405180910390f35b6101a960048036038101906101a491906113fc565b610d06565b005b6000600160008573ffffffffffffffffffffffffffffffffffffffff1673ffffffffffffffffffffffffffffffffffffffff168152602001908152602001600020600084815260200190815260200160002060009054906101000a900473ffffffffffffffffffffffffffffffffffffffff169050600073ffffffffffffffffffffffffffffffffffffffff168173ffffffffffffffffffffffffffffffffffffffff160361028f576040517f08c379a0000000000000000000000000000000000000000000000000000000008152600401610286906114ac565b60405180910390fd5b3373ffffffffffffffffffffffffffffffffffffffff168473ffffffffffffffffffffffffffffffffffffffff16636352211e856040518263ffffffff1660e01b81526004016102df91906113e1565b602060405180830381865afa1580156102fc573d6000803e3d6000fd5b505050506040513d601f19601f8201168201806040525081019061032091906114e1565b73ffffffffffffffffffffffffffffffffffffffff1614610376576040517f08c379a000000000000000000000000000000000000000000000000000000000815260040161036d9061155a565b60405180910390fd5b60008173ffffffffffffffffffffffffffffffffffffffff166310fe9ae86040518163ffffffff1660e01b8152600401602060405180830381865afa1580156103c3573d6000803e3d6000fd5b505050506040513d601f19601f820116820180604052508101906103e791906114e1565b9050600073ffffffffffffffffffffffffffffffffffffffff168173ffffffffffffffffffffffffffffffffffffffff1603610458576040517f08c379a000000000000000000000000000000000000000000000000000000000815260040161044f906115c6565b60405180910390fd5b610464813384866110dc565b8173ffffffffffffffffffffffffffffffffffffffff1663433463c086866040518363ffffffff1660e01b815260040161049f9291906115e6565b600060405180830381600087803b1580156104b957600080fd5b505af11580156104cd573d6000803e3d6000fd5b505050505050505050565b6000600160008673ffffffffffffffffffffffffffffffffffffffff1673ffffffffffffffffffffffffffffffffffffffff168152602001908152602001600020600085815260200190815260200160002060009054906101000a900473ffffffffffffffffffffffffffffffffffffffff169050600073ffffffffffffffffffffffffffffffffffffffff168173ffffffffffffffffffffffffffffffffffffffff16036105bc576040517f08c379a00000000000000000000000000000000000000000000000000000000081526004016105b39061165b565b60405180910390fd5b3373ffffffffffffffffffffffffffffffffffffffff168573ffffffffffffffffffffffffffffffffffffffff16636352211e866040518263ffffffff1660e01b815260040161060c91906113e1565b602060405180830381865afa158015610629573d6000803e3d6000fd5b505050506040513d601f19601f8201168201806040525081019061064d91906114e1565b73ffffffffffffffffffffffffffffffffffffffff16146106a3576040517f08c379a000000000000000000000000000000000000000000000000000000000815260040161069a9061155a565b60405180910390fd5b8473ffffffffffffffffffffffffffffffffffffffff166323b872dd3383876040518463ffffffff1660e01b81526004016106e09392919061167b565b600060405180830381600087803b1580156106fa57600080fd5b505af115801561070e573d6000803e3d6000fd5b505050508073ffffffffffffffffffffffffffffffffffffffff1663312e63fd86868633876040518663ffffffff1660e01b81526004016107539594939291906116b2565b600060405180830381600087803b15801561076d57600080fd5b505af1158015610781573d6000803e3d6000fd5b505050505050505050565b6000600160008473ffffffffffffffffffffffffffffffffffffffff1673ffffffffffffffffffffffffffffffffffffffff168152602001908152602001600020600083815260200190815260200160002060009054906101000a900473ffffffffffffffffffffffffffffffffffffffff16905092915050565b6000600160008573ffffffffffffffffffffffffffffffffffffffff1673ffffffffffffffffffffffffffffffffffffffff168152602001908152602001600020600084815260200190815260200160002060009054906101000a900473ffffffffffffffffffffffffffffffffffffffff169050600073ffffffffffffffffffffffffffffffffffffffff168173ffffffffffffffffffffffffffffffffffffffff16036108eb576040517f08c379a00000000000000000000000000000000000000000000000000000000081526004016108e29061165b565b60405180910390fd5b8073ffffffffffffffffffffffffffffffffffffffff168473ffffffffffffffffffffffffffffffffffffffff16636352211e856040518263ffffffff1660e01b815260040161093b91906113e1565b602060405180830381865afa158015610958573d6000803e3d6000fd5b505050506040513d601f19601f8201168201806040525081019061097c91906114e1565b73ffffffffffffffffffffffffffffffffffffffff16146109d2576040517f08c379a00000000000000000000000000000000000000000000000000000000081526004016109c99061155a565b60405180910390fd5b60008173ffffffffffffffffffffffffffffffffffffffff166310fe9ae86040518163ffffffff1660e01b8152600401602060405180830381865afa158015610a1f573d6000803e3d6000fd5b505050506040513d601f19601f82011682018060405250810190610a4391906114e1565b9050600073ffffffffffffffffffffffffffffffffffffffff168173ffffffffffffffffffffffffffffffffffffffff1603610ab4576040517f08c379a0000000000000000000000000000000000000000000000000000000008152600401610aab906115c6565b60405180910390fd5b610ac0813384866110dc565b8173ffffffffffffffffffffffffffffffffffffffff16630ed6ebc88686336040518463ffffffff1660e01b8152600401610afd93929190611705565b600060405180830381600087803b158015610b1757600080fd5b505af1158015610b2b573d6000803e3d6000fd5b505050505050505050565b60016020528160005260406000206020528060005260406000206000915091509054906101000a900473ffffffffffffffffffffffffffffffffffffffff1681565b60008054906101000a900473ffffffffffffffffffffffffffffffffffffffff1681565b600080600160008573ffffffffffffffffffffffffffffffffffffffff1673ffffffffffffffffffffffffffffffffffffffff168152602001908152602001600020600084815260200190815260200160002060009054906101000a900473ffffffffffffffffffffffffffffffffffffffff169050600073ffffffffffffffffffffffffffffffffffffffff168173ffffffffffffffffffffffffffffffffffffffff1603610c81576040517f08c379a0000000000000000000000000000000000000000000000000000000008152600401610c78906115c6565b60405180910390fd5b8073ffffffffffffffffffffffffffffffffffffffff1663e5b0339485856040518363ffffffff1660e01b8152600401610cbc9291906115e6565b602060405180830381865afa158015610cd9573d6000803e3d6000fd5b505050506040513d601f19601f82011682018060405250810190610cfd9190611751565b91505092915050565b3373ffffffffffffffffffffffffffffffffffffffff168373ffffffffffffffffffffffffffffffffffffffff16636352211e846040518263ffffffff1660e01b8152600401610d5691906113e1565b602060405180830381865afa158015610d73573d6000803e3d6000fd5b505050506040513d601f19601f82011682018060405250810190610d9791906114e1565b73ffffffffffffffffffffffffffffffffffffffff1614610ded576040517f08c379a0000000000000000000000000000000000000000000000000000000008152600401610de49061155a565b60405180910390fd5b600073ffffffffffffffffffffffffffffffffffffffff16600160008573ffffffffffffffffffffffffffffffffffffffff1673ffffffffffffffffffffffffffffffffffffffff168152602001908152602001600020600084815260200190815260200160002060009054906101000a900473ffffffffffffffffffffffffffffffffffffffff1673ffffffffffffffffffffffffffffffffffffffff1614610ecc576040517f08c379a0000000000000000000000000000000000000000000000000000000008152600401610ec3906117ca565b60405180910390fd5b60008060009054906101000a900473ffffffffffffffffffffffffffffffffffffffff1673ffffffffffffffffffffffffffffffffffffffff1663bbadc03b836040518263ffffffff1660e01b8152600401610f2891906113b7565b602060405180830381865afa158015610f45573d6000803e3d6000fd5b505050506040513d601f19601f82011682018060405250810190610f6991906114e1565b9050600073ffffffffffffffffffffffffffffffffffffffff168173ffffffffffffffffffffffffffffffffffffffff1603610fda576040517f08c379a0000000000000000000000000000000000000000000000000000000008152600401610fd1906115c6565b60405180910390fd5b8073ffffffffffffffffffffffffffffffffffffffff166317a6b60985856040518363ffffffff1660e01b81526004016110159291906115e6565b600060405180830381600087803b15801561102f57600080fd5b505af1158015611043573d6000803e3d6000fd5b5050505081600160008673ffffffffffffffffffffffffffffffffffffffff1673ffffffffffffffffffffffffffffffffffffffff168152602001908152602001600020600085815260200190815260200160002060006101000a81548173ffffffffffffffffffffffffffffffffffffffff021916908373ffffffffffffffffffffffffffffffffffffffff16021790555050505050565b6000808573ffffffffffffffffffffffffffffffffffffffff166323b872dd8686866040516024016111109392919061167b565b6040516020818303038152906040529060e01b6020820180517bffffffffffffffffffffffffffffffffffffffffffffffffffffffff838183161783525050505060405161115e919061185b565b6000604051808303816000865af19150503d806000811461119b576040519150601f19603f3d011682016040523d82523d6000602084013e6111a0565b606091505b50915091508180156111ce57506000815114806111cd5750808060200190518101906111cc91906118aa565b5b5b61120d576040517f08c379a000000000000000000000000000000000000000000000000000000000815260040161120490611949565b60405180910390fd5b505050505050565b600080fd5b600073ffffffffffffffffffffffffffffffffffffffff82169050919050565b60006112458261121a565b9050919050565b6112558161123a565b811461126057600080fd5b50565b6000813590506112728161124c565b92915050565b6000819050919050565b61128b81611278565b811461129657600080fd5b50565b6000813590506112a881611282565b92915050565b6000806000606084860312156112c7576112c6611215565b5b60006112d586828701611263565b93505060206112e686828701611299565b92505060406112f786828701611299565b9150509250925092565b6000806000806080858703121561131b5761131a611215565b5b600061132987828801611263565b945050602061133a87828801611299565b935050604061134b87828801611299565b925050606061135c87828801611299565b91505092959194509250565b6000806040838503121561137f5761137e611215565b5b600061138d85828601611263565b925050602061139e85828601611299565b9150509250929050565b6113b18161123a565b82525050565b60006020820190506113cc60008301846113a8565b92915050565b6113db81611278565b82525050565b60006020820190506113f660008301846113d2565b92915050565b60008060006060848603121561141557611414611215565b5b600061142386828701611263565b935050602061143486828701611299565b925050604061144586828701611263565b9150509250925092565b600082825260208201905092915050565b7f4e4654526f757465723a204e46545f504f4f4c5f4e4f545f4352454154454400600082015250565b6000611496601f8361144f565b91506114a182611460565b602082019050919050565b600060208201905081810360008301526114c581611489565b9050919050565b6000815190506114db8161124c565b92915050565b6000602082840312156114f7576114f6611215565b5b6000611505848285016114cc565b91505092915050565b7f4e4654526f757465723a204e4f545f4f574e4552000000000000000000000000600082015250565b600061154460148361144f565b915061154f8261150e565b602082019050919050565b6000602082019050818103600083015261157381611537565b9050919050565b7f4e4654526f757465723a204e4f545f52454749535445525f504f4f4c00000000600082015250565b60006115b0601c8361144f565b91506115bb8261157a565b602082019050919050565b600060208201905081810360008301526115df816115a3565b9050919050565b60006040820190506115fb60008301856113a8565b61160860208301846113d2565b9392505050565b7f4e4654526f757465723a204e4f545f52454749535445525f4e46540000000000600082015250565b6000611645601b8361144f565b91506116508261160f565b602082019050919050565b6000602082019050818103600083015261167481611638565b9050919050565b600060608201905061169060008301866113a8565b61169d60208301856113a8565b6116aa60408301846113d2565b949350505050565b600060a0820190506116c760008301886113a8565b6116d460208301876113d2565b6116e160408301866113d2565b6116ee60608301856113a8565b6116fb60808301846113d2565b9695505050505050565b600060608201905061171a60008301866113a8565b61172760208301856113d2565b61173460408301846113a8565b949350505050565b60008151905061174b81611282565b92915050565b60006020828403121561176757611766611215565b5b60006117758482850161173c565b91505092915050565b7f4e4654526f757465723a204e46545f5245474953544552454400000000000000600082015250565b60006117b460198361144f565b91506117bf8261177e565b602082019050919050565b600060208201905081810360008301526117e3816117a7565b9050919050565b600081519050919050565b600081905092915050565b60005b8381101561181e578082015181840152602081019050611803565b60008484015250505050565b6000611835826117ea565b61183f81856117f5565b935061184f818560208601611800565b80840191505092915050565b6000611867828461182a565b915081905092915050565b60008115159050919050565b61188781611872565b811461189257600080fd5b50565b6000815190506118a48161187e565b92915050565b6000602082840312156118c0576118bf611215565b5b60006118ce84828501611895565b91505092915050565b7f5472616e7366657248656c7065723a205452414e534645525f46524f4d5f464160008201527f494c454400000000000000000000000000000000000000000000000000000000602082015250565b600061193360248361144f565b915061193e826118d7565b604082019050919050565b6000602082019050818103600083015261196281611926565b905091905056fea264697066735822122056d603a42dbc47590667a4f7d720b246fe793eafbb0e7abdf0177e6bf8638f4f64736f6c63430008120033",
  "linkReferences": {},
  "deployedLinkReferences": {}
}