{
  "_format": "hh-sol-artifact-1",
  "contractName": "NFTRouter",
  "sourceName": "contracts/NFTRouter.sol",
  "abi": [
    {
      "inputs": [],
      "stateMutability": "nonpayable",
      "type": "constructor"
    },
    {
      "anonymous": false,
      "inputs": [
        {
          "indexed": true,
          "internalType": "address",
          "name": "sender",
          "type": "address"
        },
        {
          "indexed": false,
          "internalType": "address",
          "name": "tokenPool",
          "type": "address"
        }
      ],
      "name": "PoolMortgage",
      "type": "event"
    },
    {
      "stateMutability": "payable",
      "type": "fallback"
    },
    {
      "inputs": [],
      "name": "factory",
      "outputs": [
        {
          "internalType": "address",
          "name": "",
          "type": "address"
        }
      ],
      "stateMutability": "view",
      "type": "function"
    },
    {
      "inputs": [
        {
          "internalType": "address",
          "name": "nft",
          "type": "address"
        },
        {
          "internalType": "uint256",
          "name": "tokenId",
          "type": "uint256"
        }
      ],
      "name": "getNFTAddress",
      "outputs": [
        {
          "internalType": "address",
          "name": "",
          "type": "address"
        }
      ],
      "stateMutability": "view",
      "type": "function"
    },
    {
      "inputs": [
        {
          "internalType": "address",
          "name": "nft",
          "type": "address"
        },
        {
          "internalType": "uint256",
          "name": "tokenId",
          "type": "uint256"
        }
      ],
      "name": "getNFTMortgageInfo",
      "outputs": [
        {
          "internalType": "uint256",
          "name": "",
          "type": "uint256"
        }
      ],
      "stateMutability": "view",
      "type": "function"
    },
    {
      "inputs": [
        {
          "internalType": "address",
          "name": "nft",
          "type": "address"
        },
        {
          "internalType": "uint256",
          "name": "tokenId",
          "type": "uint256"
        },
        {
          "internalType": "uint256",
          "name": "amount",
          "type": "uint256"
        },
        {
          "internalType": "uint256",
          "name": "timeReturn",
          "type": "uint256"
        }
      ],
      "name": "mortgageNFT",
      "outputs": [],
      "stateMutability": "nonpayable",
      "type": "function"
    },
    {
      "inputs": [
        {
          "internalType": "address",
          "name": "",
          "type": "address"
        },
        {
          "internalType": "uint256",
          "name": "",
          "type": "uint256"
        }
      ],
      "name": "nftAddress",
      "outputs": [
        {
          "internalType": "address",
          "name": "",
          "type": "address"
        }
      ],
      "stateMutability": "view",
      "type": "function"
    },
    {
      "inputs": [],
      "name": "owner",
      "outputs": [
        {
          "internalType": "address",
          "name": "",
          "type": "address"
        }
      ],
      "stateMutability": "view",
      "type": "function"
    },
    {
      "inputs": [
        {
          "internalType": "address",
          "name": "nft",
          "type": "address"
        },
        {
          "internalType": "uint256",
          "name": "tokenId",
          "type": "uint256"
        },
        {
          "internalType": "uint256",
          "name": "amount",
          "type": "uint256"
        }
      ],
      "name": "redeemNFT",
      "outputs": [],
      "stateMutability": "nonpayable",
      "type": "function"
    },
    {
      "inputs": [
        {
          "internalType": "address",
          "name": "nft",
          "type": "address"
        },
        {
          "internalType": "uint256",
          "name": "tokenId",
          "type": "uint256"
        },
        {
          "internalType": "address",
          "name": "token",
          "type": "address"
        }
      ],
      "name": "registerNFT",
      "outputs": [],
      "stateMutability": "nonpayable",
      "type": "function"
    },
    {
      "inputs": [
        {
          "internalType": "address",
          "name": "_factory",
          "type": "address"
        }
      ],
      "name": "setFactory",
      "outputs": [],
      "stateMutability": "nonpayable",
      "type": "function"
    },
    {
      "inputs": [
        {
          "internalType": "address",
          "name": "nft",
          "type": "address"
        },
        {
          "internalType": "uint256",
          "name": "tokenId",
          "type": "uint256"
        },
        {
          "internalType": "uint256",
          "name": "account",
          "type": "uint256"
        }
      ],
      "name": "transferIntoNFT",
      "outputs": [],
      "stateMutability": "nonpayable",
      "type": "function"
    },
    {
      "stateMutability": "payable",
      "type": "receive"
    }
  ],
  "bytecode": "0x608060405234801561001057600080fd5b5033600160006101000a81548173ffffffffffffffffffffffffffffffffffffffff021916908373ffffffffffffffffffffffffffffffffffffffff160217905550611be0806100616000396000f3fe6080604052600436106100955760003560e01c8063b42e3e2d11610059578063b42e3e2d14610181578063bd99312a146101aa578063c45a0155146101e7578063e5b0339414610212578063eafe0fc21461024f5761009c565b80630717354a1461009e5780632511597f146100c75780633de96eee146100f05780635bb478081461012d5780638da5cb5b146101565761009c565b3661009c57005b005b3480156100aa57600080fd5b506100c560048036038101906100c091906114c2565b610278565b005b3480156100d357600080fd5b506100ee60048036038101906100e99190611515565b6105a5565b005b3480156100fc57600080fd5b506101176004803603810190610112919061157c565b6108a7565b60405161012491906115cb565b60405180910390f35b34801561013957600080fd5b50610154600480360381019061014f91906115e6565b610922565b005b34801561016257600080fd5b5061016b6109f5565b60405161017891906115cb565b60405180910390f35b34801561018d57600080fd5b506101a860048036038101906101a391906114c2565b610a1b565b005b3480156101b657600080fd5b506101d160048036038101906101cc919061157c565b610d4a565b6040516101de91906115cb565b60405180910390f35b3480156101f357600080fd5b506101fc610d8c565b60405161020991906115cb565b60405180910390f35b34801561021e57600080fd5b506102396004803603810190610234919061157c565b610db0565b6040516102469190611622565b60405180910390f35b34801561025b57600080fd5b506102766004803603810190610271919061163d565b610f1a565b005b6000600260008573ffffffffffffffffffffffffffffffffffffffff1673ffffffffffffffffffffffffffffffffffffffff168152602001908152602001600020600084815260200190815260200160002060009054906101000a900473ffffffffffffffffffffffffffffffffffffffff169050600073ffffffffffffffffffffffffffffffffffffffff168173ffffffffffffffffffffffffffffffffffffffff160361035c576040517f08c379a0000000000000000000000000000000000000000000000000000000008152600401610353906116ed565b60405180910390fd5b3373ffffffffffffffffffffffffffffffffffffffff168473ffffffffffffffffffffffffffffffffffffffff16636352211e856040518263ffffffff1660e01b81526004016103ac9190611622565b602060405180830381865afa1580156103c9573d6000803e3d6000fd5b505050506040513d601f19601f820116820180604052508101906103ed9190611722565b73ffffffffffffffffffffffffffffffffffffffff1614610443576040517f08c379a000000000000000000000000000000000000000000000000000000000815260040161043a9061179b565b60405180910390fd5b60008173ffffffffffffffffffffffffffffffffffffffff166310fe9ae86040518163ffffffff1660e01b8152600401602060405180830381865afa158015610490573d6000803e3d6000fd5b505050506040513d601f19601f820116820180604052508101906104b49190611722565b9050600073ffffffffffffffffffffffffffffffffffffffff168173ffffffffffffffffffffffffffffffffffffffff1603610525576040517f08c379a000000000000000000000000000000000000000000000000000000000815260040161051c90611807565b60405180910390fd5b610531813384866112f0565b8173ffffffffffffffffffffffffffffffffffffffff1663433463c086866040518363ffffffff1660e01b815260040161056c929190611827565b600060405180830381600087803b15801561058657600080fd5b505af115801561059a573d6000803e3d6000fd5b505050505050505050565b6000600260008673ffffffffffffffffffffffffffffffffffffffff1673ffffffffffffffffffffffffffffffffffffffff168152602001908152602001600020600085815260200190815260200160002060009054906101000a900473ffffffffffffffffffffffffffffffffffffffff169050600073ffffffffffffffffffffffffffffffffffffffff168173ffffffffffffffffffffffffffffffffffffffff1603610689576040517f08c379a00000000000000000000000000000000000000000000000000000000081526004016106809061189c565b60405180910390fd5b3373ffffffffffffffffffffffffffffffffffffffff168573ffffffffffffffffffffffffffffffffffffffff16636352211e866040518263ffffffff1660e01b81526004016106d99190611622565b602060405180830381865afa1580156106f6573d6000803e3d6000fd5b505050506040513d601f19601f8201168201806040525081019061071a9190611722565b73ffffffffffffffffffffffffffffffffffffffff1614610770576040517f08c379a00000000000000000000000000000000000000000000000000000000081526004016107679061179b565b60405180910390fd5b3373ffffffffffffffffffffffffffffffffffffffff167fc0838e6faf84ce91938e4c3d8296790ec0a55c82f1f9e352843d83fb1939ceb4826040516107b691906115cb565b60405180910390a28473ffffffffffffffffffffffffffffffffffffffff166323b872dd3383876040518463ffffffff1660e01b81526004016107fb939291906118bc565b600060405180830381600087803b15801561081557600080fd5b505af1158015610829573d6000803e3d6000fd5b505050508073ffffffffffffffffffffffffffffffffffffffff1663312e63fd86868633876040518663ffffffff1660e01b815260040161086e9594939291906118f3565b600060405180830381600087803b15801561088857600080fd5b505af115801561089c573d6000803e3d6000fd5b505050505050505050565b6000600260008473ffffffffffffffffffffffffffffffffffffffff1673ffffffffffffffffffffffffffffffffffffffff168152602001908152602001600020600083815260200190815260200160002060009054906101000a900473ffffffffffffffffffffffffffffffffffffffff16905092915050565b600160009054906101000a900473ffffffffffffffffffffffffffffffffffffffff1673ffffffffffffffffffffffffffffffffffffffff163373ffffffffffffffffffffffffffffffffffffffff16146109b2576040517f08c379a00000000000000000000000000000000000000000000000000000000081526004016109a99061179b565b60405180910390fd5b806000806101000a81548173ffffffffffffffffffffffffffffffffffffffff021916908373ffffffffffffffffffffffffffffffffffffffff16021790555050565b600160009054906101000a900473ffffffffffffffffffffffffffffffffffffffff1681565b6000600260008573ffffffffffffffffffffffffffffffffffffffff1673ffffffffffffffffffffffffffffffffffffffff168152602001908152602001600020600084815260200190815260200160002060009054906101000a900473ffffffffffffffffffffffffffffffffffffffff169050600073ffffffffffffffffffffffffffffffffffffffff168173ffffffffffffffffffffffffffffffffffffffff1603610aff576040517f08c379a0000000000000000000000000000000000000000000000000000000008152600401610af69061189c565b60405180910390fd5b8073ffffffffffffffffffffffffffffffffffffffff168473ffffffffffffffffffffffffffffffffffffffff16636352211e856040518263ffffffff1660e01b8152600401610b4f9190611622565b602060405180830381865afa158015610b6c573d6000803e3d6000fd5b505050506040513d601f19601f82011682018060405250810190610b909190611722565b73ffffffffffffffffffffffffffffffffffffffff1614610be6576040517f08c379a0000000000000000000000000000000000000000000000000000000008152600401610bdd9061179b565b60405180910390fd5b60008173ffffffffffffffffffffffffffffffffffffffff166310fe9ae86040518163ffffffff1660e01b8152600401602060405180830381865afa158015610c33573d6000803e3d6000fd5b505050506040513d601f19601f82011682018060405250810190610c579190611722565b9050600073ffffffffffffffffffffffffffffffffffffffff168173ffffffffffffffffffffffffffffffffffffffff1603610cc8576040517f08c379a0000000000000000000000000000000000000000000000000000000008152600401610cbf90611807565b60405180910390fd5b610cd4813384866112f0565b8173ffffffffffffffffffffffffffffffffffffffff16630ed6ebc88686336040518463ffffffff1660e01b8152600401610d1193929190611946565b600060405180830381600087803b158015610d2b57600080fd5b505af1158015610d3f573d6000803e3d6000fd5b505050505050505050565b60026020528160005260406000206020528060005260406000206000915091509054906101000a900473ffffffffffffffffffffffffffffffffffffffff1681565b60008054906101000a900473ffffffffffffffffffffffffffffffffffffffff1681565b600080600260008573ffffffffffffffffffffffffffffffffffffffff1673ffffffffffffffffffffffffffffffffffffffff168152602001908152602001600020600084815260200190815260200160002060009054906101000a900473ffffffffffffffffffffffffffffffffffffffff169050600073ffffffffffffffffffffffffffffffffffffffff168173ffffffffffffffffffffffffffffffffffffffff1603610e95576040517f08c379a0000000000000000000000000000000000000000000000000000000008152600401610e8c90611807565b60405180910390fd5b8073ffffffffffffffffffffffffffffffffffffffff1663e5b0339485856040518363ffffffff1660e01b8152600401610ed0929190611827565b602060405180830381865afa158015610eed573d6000803e3d6000fd5b505050506040513d601f19601f82011682018060405250810190610f119190611992565b91505092915050565b3373ffffffffffffffffffffffffffffffffffffffff168373ffffffffffffffffffffffffffffffffffffffff16636352211e846040518263ffffffff1660e01b8152600401610f6a9190611622565b602060405180830381865afa158015610f87573d6000803e3d6000fd5b505050506040513d601f19601f82011682018060405250810190610fab9190611722565b73ffffffffffffffffffffffffffffffffffffffff1614611001576040517f08c379a0000000000000000000000000000000000000000000000000000000008152600401610ff89061179b565b60405180910390fd5b600073ffffffffffffffffffffffffffffffffffffffff16600260008573ffffffffffffffffffffffffffffffffffffffff1673ffffffffffffffffffffffffffffffffffffffff168152602001908152602001600020600084815260200190815260200160002060009054906101000a900473ffffffffffffffffffffffffffffffffffffffff1673ffffffffffffffffffffffffffffffffffffffff16146110e0576040517f08c379a00000000000000000000000000000000000000000000000000000000081526004016110d790611a0b565b60405180910390fd5b60008060009054906101000a900473ffffffffffffffffffffffffffffffffffffffff1673ffffffffffffffffffffffffffffffffffffffff1663bbadc03b836040518263ffffffff1660e01b815260040161113c91906115cb565b602060405180830381865afa158015611159573d6000803e3d6000fd5b505050506040513d601f19601f8201168201806040525081019061117d9190611722565b9050600073ffffffffffffffffffffffffffffffffffffffff168173ffffffffffffffffffffffffffffffffffffffff16036111ee576040517f08c379a00000000000000000000000000000000000000000000000000000000081526004016111e590611807565b60405180910390fd5b8073ffffffffffffffffffffffffffffffffffffffff166317a6b60985856040518363ffffffff1660e01b8152600401611229929190611827565b600060405180830381600087803b15801561124357600080fd5b505af1158015611257573d6000803e3d6000fd5b5050505080600260008673ffffffffffffffffffffffffffffffffffffffff1673ffffffffffffffffffffffffffffffffffffffff168152602001908152602001600020600085815260200190815260200160002060006101000a81548173ffffffffffffffffffffffffffffffffffffffff021916908373ffffffffffffffffffffffffffffffffffffffff16021790555050505050565b6000808573ffffffffffffffffffffffffffffffffffffffff166323b872dd868686604051602401611324939291906118bc565b6040516020818303038152906040529060e01b6020820180517bffffffffffffffffffffffffffffffffffffffffffffffffffffffff83818316178352505050506040516113729190611a9c565b6000604051808303816000865af19150503d80600081146113af576040519150601f19603f3d011682016040523d82523d6000602084013e6113b4565b606091505b50915091508180156113e257506000815114806113e15750808060200190518101906113e09190611aeb565b5b5b611421576040517f08c379a000000000000000000000000000000000000000000000000000000000815260040161141890611b8a565b60405180910390fd5b505050505050565b600080fd5b600073ffffffffffffffffffffffffffffffffffffffff82169050919050565b60006114598261142e565b9050919050565b6114698161144e565b811461147457600080fd5b50565b60008135905061148681611460565b92915050565b6000819050919050565b61149f8161148c565b81146114aa57600080fd5b50565b6000813590506114bc81611496565b92915050565b6000806000606084860312156114db576114da611429565b5b60006114e986828701611477565b93505060206114fa868287016114ad565b925050604061150b868287016114ad565b9150509250925092565b6000806000806080858703121561152f5761152e611429565b5b600061153d87828801611477565b945050602061154e878288016114ad565b935050604061155f878288016114ad565b9250506060611570878288016114ad565b91505092959194509250565b6000806040838503121561159357611592611429565b5b60006115a185828601611477565b92505060206115b2858286016114ad565b9150509250929050565b6115c58161144e565b82525050565b60006020820190506115e060008301846115bc565b92915050565b6000602082840312156115fc576115fb611429565b5b600061160a84828501611477565b91505092915050565b61161c8161148c565b82525050565b60006020820190506116376000830184611613565b92915050565b60008060006060848603121561165657611655611429565b5b600061166486828701611477565b9350506020611675868287016114ad565b925050604061168686828701611477565b9150509250925092565b600082825260208201905092915050565b7f4e4654526f757465723a204e46545f504f4f4c5f4e4f545f4352454154454400600082015250565b60006116d7601f83611690565b91506116e2826116a1565b602082019050919050565b60006020820190508181036000830152611706816116ca565b9050919050565b60008151905061171c81611460565b92915050565b60006020828403121561173857611737611429565b5b60006117468482850161170d565b91505092915050565b7f4e4654526f757465723a204e4f545f4f574e4552000000000000000000000000600082015250565b6000611785601483611690565b91506117908261174f565b602082019050919050565b600060208201905081810360008301526117b481611778565b9050919050565b7f4e4654526f757465723a204e4f545f52454749535445525f504f4f4c00000000600082015250565b60006117f1601c83611690565b91506117fc826117bb565b602082019050919050565b60006020820190508181036000830152611820816117e4565b9050919050565b600060408201905061183c60008301856115bc565b6118496020830184611613565b9392505050565b7f4e4654526f757465723a204e4f545f52454749535445525f4e46540000000000600082015250565b6000611886601b83611690565b915061189182611850565b602082019050919050565b600060208201905081810360008301526118b581611879565b9050919050565b60006060820190506118d160008301866115bc565b6118de60208301856115bc565b6118eb6040830184611613565b949350505050565b600060a08201905061190860008301886115bc565b6119156020830187611613565b6119226040830186611613565b61192f60608301856115bc565b61193c6080830184611613565b9695505050505050565b600060608201905061195b60008301866115bc565b6119686020830185611613565b61197560408301846115bc565b949350505050565b60008151905061198c81611496565b92915050565b6000602082840312156119a8576119a7611429565b5b60006119b68482850161197d565b91505092915050565b7f4e4654526f757465723a204e46545f5245474953544552454400000000000000600082015250565b60006119f5601983611690565b9150611a00826119bf565b602082019050919050565b60006020820190508181036000830152611a24816119e8565b9050919050565b600081519050919050565b600081905092915050565b60005b83811015611a5f578082015181840152602081019050611a44565b60008484015250505050565b6000611a7682611a2b565b611a808185611a36565b9350611a90818560208601611a41565b80840191505092915050565b6000611aa88284611a6b565b915081905092915050565b60008115159050919050565b611ac881611ab3565b8114611ad357600080fd5b50565b600081519050611ae581611abf565b92915050565b600060208284031215611b0157611b00611429565b5b6000611b0f84828501611ad6565b91505092915050565b7f5472616e7366657248656c7065723a205452414e534645525f46524f4d5f464160008201527f494c454400000000000000000000000000000000000000000000000000000000602082015250565b6000611b74602483611690565b9150611b7f82611b18565b604082019050919050565b60006020820190508181036000830152611ba381611b67565b905091905056fea26469706673582212202b568267b2010d247905458cbfb9c375906ecc9c304f32b9080a527c73c02a4864736f6c63430008120033",
  "linkReferences": {},
  "deployedLinkReferences": {}
}