{
  "_format": "hh-sol-artifact-1",
  "contractName": "NFTVault",
  "sourceName": "contracts/NFTTest.sol",
  "abi": [
    {
      "inputs": [],
      "stateMutability": "nonpayable",
      "type": "constructor"
    },
    {
      "anonymous": false,
      "inputs": [
        {
          "indexed": true,
          "internalType": "address",
          "name": "owner",
          "type": "address"
        },
        {
          "indexed": true,
          "internalType": "address",
          "name": "approved",
          "type": "address"
        },
        {
          "indexed": true,
          "internalType": "uint256",
          "name": "tokenId",
          "type": "uint256"
        }
      ],
      "name": "Approval",
      "type": "event"
    },
    {
      "anonymous": false,
      "inputs": [
        {
          "indexed": true,
          "internalType": "address",
          "name": "owner",
          "type": "address"
        },
        {
          "indexed": true,
          "internalType": "address",
          "name": "operator",
          "type": "address"
        },
        {
          "indexed": false,
          "internalType": "bool",
          "name": "approved",
          "type": "bool"
        }
      ],
      "name": "ApprovalForAll",
      "type": "event"
    },
    {
      "anonymous": false,
      "inputs": [
        {
          "indexed": true,
          "internalType": "address",
          "name": "previousOwner",
          "type": "address"
        },
        {
          "indexed": true,
          "internalType": "address",
          "name": "newOwner",
          "type": "address"
        }
      ],
      "name": "OwnershipTransferred",
      "type": "event"
    },
    {
      "anonymous": false,
      "inputs": [
        {
          "indexed": true,
          "internalType": "address",
          "name": "from",
          "type": "address"
        },
        {
          "indexed": true,
          "internalType": "address",
          "name": "to",
          "type": "address"
        },
        {
          "indexed": true,
          "internalType": "uint256",
          "name": "tokenId",
          "type": "uint256"
        }
      ],
      "name": "Transfer",
      "type": "event"
    },
    {
      "inputs": [
        {
          "internalType": "address",
          "name": "to",
          "type": "address"
        },
        {
          "internalType": "uint256",
          "name": "tokenId",
          "type": "uint256"
        }
      ],
      "name": "approve",
      "outputs": [],
      "stateMutability": "nonpayable",
      "type": "function"
    },
    {
      "inputs": [
        {
          "internalType": "address",
          "name": "owner",
          "type": "address"
        }
      ],
      "name": "balanceOf",
      "outputs": [
        {
          "internalType": "uint256",
          "name": "",
          "type": "uint256"
        }
      ],
      "stateMutability": "view",
      "type": "function"
    },
    {
      "inputs": [
        {
          "internalType": "uint256",
          "name": "tokenId",
          "type": "uint256"
        }
      ],
      "name": "getApproved",
      "outputs": [
        {
          "internalType": "address",
          "name": "",
          "type": "address"
        }
      ],
      "stateMutability": "view",
      "type": "function"
    },
    {
      "inputs": [
        {
          "internalType": "address",
          "name": "owner",
          "type": "address"
        },
        {
          "internalType": "address",
          "name": "operator",
          "type": "address"
        }
      ],
      "name": "isApprovedForAll",
      "outputs": [
        {
          "internalType": "bool",
          "name": "",
          "type": "bool"
        }
      ],
      "stateMutability": "view",
      "type": "function"
    },
    {
      "inputs": [],
      "name": "name",
      "outputs": [
        {
          "internalType": "string",
          "name": "",
          "type": "string"
        }
      ],
      "stateMutability": "view",
      "type": "function"
    },
    {
      "inputs": [],
      "name": "owner",
      "outputs": [
        {
          "internalType": "address",
          "name": "",
          "type": "address"
        }
      ],
      "stateMutability": "view",
      "type": "function"
    },
    {
      "inputs": [
        {
          "internalType": "uint256",
          "name": "tokenId",
          "type": "uint256"
        }
      ],
      "name": "ownerOf",
      "outputs": [
        {
          "internalType": "address",
          "name": "",
          "type": "address"
        }
      ],
      "stateMutability": "view",
      "type": "function"
    },
    {
      "inputs": [],
      "name": "renounceOwnership",
      "outputs": [],
      "stateMutability": "nonpayable",
      "type": "function"
    },
    {
      "inputs": [
        {
          "internalType": "address",
          "name": "to",
          "type": "address"
        }
      ],
      "name": "safeMint",
      "outputs": [],
      "stateMutability": "nonpayable",
      "type": "function"
    },
    {
      "inputs": [
        {
          "internalType": "address",
          "name": "from",
          "type": "address"
        },
        {
          "internalType": "address",
          "name": "to",
          "type": "address"
        },
        {
          "internalType": "uint256",
          "name": "tokenId",
          "type": "uint256"
        }
      ],
      "name": "safeTransferFrom",
      "outputs": [],
      "stateMutability": "nonpayable",
      "type": "function"
    },
    {
      "inputs": [
        {
          "internalType": "address",
          "name": "from",
          "type": "address"
        },
        {
          "internalType": "address",
          "name": "to",
          "type": "address"
        },
        {
          "internalType": "uint256",
          "name": "tokenId",
          "type": "uint256"
        },
        {
          "internalType": "bytes",
          "name": "data",
          "type": "bytes"
        }
      ],
      "name": "safeTransferFrom",
      "outputs": [],
      "stateMutability": "nonpayable",
      "type": "function"
    },
    {
      "inputs": [
        {
          "internalType": "address",
          "name": "operator",
          "type": "address"
        },
        {
          "internalType": "bool",
          "name": "approved",
          "type": "bool"
        }
      ],
      "name": "setApprovalForAll",
      "outputs": [],
      "stateMutability": "nonpayable",
      "type": "function"
    },
    {
      "inputs": [
        {
          "internalType": "bytes4",
          "name": "interfaceId",
          "type": "bytes4"
        }
      ],
      "name": "supportsInterface",
      "outputs": [
        {
          "internalType": "bool",
          "name": "",
          "type": "bool"
        }
      ],
      "stateMutability": "view",
      "type": "function"
    },
    {
      "inputs": [],
      "name": "symbol",
      "outputs": [
        {
          "internalType": "string",
          "name": "",
          "type": "string"
        }
      ],
      "stateMutability": "view",
      "type": "function"
    },
    {
      "inputs": [
        {
          "internalType": "uint256",
          "name": "tokenId",
          "type": "uint256"
        }
      ],
      "name": "tokenURI",
      "outputs": [
        {
          "internalType": "string",
          "name": "",
          "type": "string"
        }
      ],
      "stateMutability": "view",
      "type": "function"
    },
    {
      "inputs": [
        {
          "internalType": "address",
          "name": "from",
          "type": "address"
        },
        {
          "internalType": "address",
          "name": "to",
          "type": "address"
        },
        {
          "internalType": "uint256",
          "name": "tokenId",
          "type": "uint256"
        }
      ],
      "name": "transferFrom",
      "outputs": [],
      "stateMutability": "nonpayable",
      "type": "function"
    },
    {
      "inputs": [
        {
          "internalType": "address",
          "name": "newOwner",
          "type": "address"
        }
      ],
      "name": "transferOwnership",
      "outputs": [],
      "stateMutability": "nonpayable",
      "type": "function"
    }
  ],
  "bytecode": "0x60806040526040518060a001604052806040518060a0016040528060738152602001620030ed6073913981526020016040518060a00160405280606b815260200162002fa5606b913981526020016040518060a0016040528060718152602001620030106071913981526020016040518060c00160405280609a815260200162002f0b609a913981526020016040518060a00160405280606c815260200162003081606c91398152506007906005620000ba9291906200024f565b50348015620000c857600080fd5b506040518060400160405280600881526020017f4e46545661756c740000000000000000000000000000000000000000000000008152506040518060400160405280600381526020017f4d544b00000000000000000000000000000000000000000000000000000000008152508160009081620001469190620005b6565b508060019081620001589190620005b6565b5050506200017b6200016f6200018160201b60201c565b6200018960201b60201c565b6200069d565b600033905090565b6000600660009054906101000a900473ffffffffffffffffffffffffffffffffffffffff16905081600660006101000a81548173ffffffffffffffffffffffffffffffffffffffff021916908373ffffffffffffffffffffffffffffffffffffffff1602179055508173ffffffffffffffffffffffffffffffffffffffff168173ffffffffffffffffffffffffffffffffffffffff167f8be0079c531659141344cd1fd0a4f28419497f9722a3daafe3b4186f6b6457e060405160405180910390a35050565b8280548282559060005260206000209081019282156200029c579160200282015b828111156200029b5782518290816200028a9190620005b6565b509160200191906001019062000270565b5b509050620002ab9190620002af565b5090565b5b80821115620002d35760008181620002c99190620002d7565b50600101620002b0565b5090565b508054620002e590620003a5565b6000825580601f10620002f957506200031a565b601f0160209004906000526020600020908101906200031991906200031d565b5b50565b5b80821115620003385760008160009055506001016200031e565b5090565b600081519050919050565b7f4e487b7100000000000000000000000000000000000000000000000000000000600052604160045260246000fd5b7f4e487b7100000000000000000000000000000000000000000000000000000000600052602260045260246000fd5b60006002820490506001821680620003be57607f821691505b602082108103620003d457620003d362000376565b5b50919050565b60008190508160005260206000209050919050565b60006020601f8301049050919050565b600082821b905092915050565b6000600883026200043e7fffffffffffffffffffffffffffffffffffffffffffffffffffffffffffffffff82620003ff565b6200044a8683620003ff565b95508019841693508086168417925050509392505050565b6000819050919050565b6000819050919050565b600062000497620004916200048b8462000462565b6200046c565b62000462565b9050919050565b6000819050919050565b620004b38362000476565b620004cb620004c2826200049e565b8484546200040c565b825550505050565b600090565b620004e2620004d3565b620004ef818484620004a8565b505050565b5b8181101562000517576200050b600082620004d8565b600181019050620004f5565b5050565b601f82111562000566576200053081620003da565b6200053b84620003ef565b810160208510156200054b578190505b620005636200055a85620003ef565b830182620004f4565b50505b505050565b600082821c905092915050565b60006200058b600019846008026200056b565b1980831691505092915050565b6000620005a6838362000578565b9150826002028217905092915050565b620005c1826200033c565b67ffffffffffffffff811115620005dd57620005dc62000347565b5b620005e98254620003a5565b620005f68282856200051b565b600060209050601f8311600181146200062e576000841562000619578287015190505b62000625858262000598565b86555062000695565b601f1984166200063e86620003da565b60005b82811015620006685784890151825560018201915060208501945060208101905062000641565b8683101562000688578489015162000684601f89168262000578565b8355505b6001600288020188555050505b505050505050565b61285e80620006ad6000396000f3fe608060405234801561001057600080fd5b506004361061010b5760003560e01c806370a08231116100a2578063a22cb46511610071578063a22cb465146102a4578063b88d4fde146102c0578063c87b56dd146102dc578063e985e9c51461030c578063f2fde38b1461033c5761010b565b806370a082311461022e578063715018a61461025e5780638da5cb5b1461026857806395d89b41146102865761010b565b806323b872dd116100de57806323b872dd146101aa57806340d097c3146101c657806342842e0e146101e25780636352211e146101fe5761010b565b806301ffc9a71461011057806306fdde0314610140578063081812fc1461015e578063095ea7b31461018e575b600080fd5b61012a600480360381019061012591906119c5565b610358565b6040516101379190611a0d565b60405180910390f35b61014861043a565b6040516101559190611ab8565b60405180910390f35b61017860048036038101906101739190611b10565b6104cc565b6040516101859190611b7e565b60405180910390f35b6101a860048036038101906101a39190611bc5565b610512565b005b6101c460048036038101906101bf9190611c05565b610629565b005b6101e060048036038101906101db9190611c58565b610689565b005b6101fc60048036038101906101f79190611c05565b6106b7565b005b61021860048036038101906102139190611b10565b6106d7565b6040516102259190611b7e565b60405180910390f35b61024860048036038101906102439190611c58565b61075d565b6040516102559190611c94565b60405180910390f35b610266610814565b005b610270610828565b60405161027d9190611b7e565b60405180910390f35b61028e610852565b60405161029b9190611ab8565b60405180910390f35b6102be60048036038101906102b99190611cdb565b6108e4565b005b6102da60048036038101906102d59190611e50565b6108fa565b005b6102f660048036038101906102f19190611b10565b61095c565b6040516103039190611ab8565b60405180910390f35b61032660048036038101906103219190611ed3565b610a24565b6040516103339190611a0d565b60405180910390f35b61035660048036038101906103519190611c58565b610ab8565b005b60007f80ac58cd000000000000000000000000000000000000000000000000000000007bffffffffffffffffffffffffffffffffffffffffffffffffffffffff1916827bffffffffffffffffffffffffffffffffffffffffffffffffffffffff1916148061042357507f5b5e139f000000000000000000000000000000000000000000000000000000007bffffffffffffffffffffffffffffffffffffffffffffffffffffffff1916827bffffffffffffffffffffffffffffffffffffffffffffffffffffffff1916145b80610433575061043282610b3b565b5b9050919050565b60606000805461044990611f42565b80601f016020809104026020016040519081016040528092919081815260200182805461047590611f42565b80156104c25780601f10610497576101008083540402835291602001916104c2565b820191906000526020600020905b8154815290600101906020018083116104a557829003601f168201915b5050505050905090565b60006104d782610ba5565b6004600083815260200190815260200160002060009054906101000a900473ffffffffffffffffffffffffffffffffffffffff169050919050565b600061051d826106d7565b90508073ffffffffffffffffffffffffffffffffffffffff168373ffffffffffffffffffffffffffffffffffffffff160361058d576040517f08c379a000000000000000000000000000000000000000000000000000000000815260040161058490611fe5565b60405180910390fd5b8073ffffffffffffffffffffffffffffffffffffffff166105ac610bf0565b73ffffffffffffffffffffffffffffffffffffffff1614806105db57506105da816105d5610bf0565b610a24565b5b61061a576040517f08c379a000000000000000000000000000000000000000000000000000000000815260040161061190612077565b60405180910390fd5b6106248383610bf8565b505050565b61063a610634610bf0565b82610cb1565b610679576040517f08c379a000000000000000000000000000000000000000000000000000000000815260040161067090612109565b60405180910390fd5b610684838383610d46565b505050565b61069161103f565b600061069d60086110bd565b90506106a960086110cb565b6106b382826110e1565b5050565b6106d2838383604051806020016040528060008152506108fa565b505050565b6000806106e3836110ff565b9050600073ffffffffffffffffffffffffffffffffffffffff168173ffffffffffffffffffffffffffffffffffffffff1603610754576040517f08c379a000000000000000000000000000000000000000000000000000000000815260040161074b90612175565b60405180910390fd5b80915050919050565b60008073ffffffffffffffffffffffffffffffffffffffff168273ffffffffffffffffffffffffffffffffffffffff16036107cd576040517f08c379a00000000000000000000000000000000000000000000000000000000081526004016107c490612207565b60405180910390fd5b600360008373ffffffffffffffffffffffffffffffffffffffff1673ffffffffffffffffffffffffffffffffffffffff168152602001908152602001600020549050919050565b61081c61103f565b610826600061113c565b565b6000600660009054906101000a900473ffffffffffffffffffffffffffffffffffffffff16905090565b60606001805461086190611f42565b80601f016020809104026020016040519081016040528092919081815260200182805461088d90611f42565b80156108da5780601f106108af576101008083540402835291602001916108da565b820191906000526020600020905b8154815290600101906020018083116108bd57829003601f168201915b5050505050905090565b6108f66108ef610bf0565b8383611202565b5050565b61090b610905610bf0565b83610cb1565b61094a576040517f08c379a000000000000000000000000000000000000000000000000000000000815260040161094190612109565b60405180910390fd5b6109568484848461136e565b50505050565b606061096782610ba5565b60078080549050836109799190612256565b8154811061098a57610989612287565b5b90600052602060002001805461099f90611f42565b80601f01602080910402602001604051908101604052809291908181526020018280546109cb90611f42565b8015610a185780601f106109ed57610100808354040283529160200191610a18565b820191906000526020600020905b8154815290600101906020018083116109fb57829003601f168201915b50505050509050919050565b6000600560008473ffffffffffffffffffffffffffffffffffffffff1673ffffffffffffffffffffffffffffffffffffffff16815260200190815260200160002060008373ffffffffffffffffffffffffffffffffffffffff1673ffffffffffffffffffffffffffffffffffffffff16815260200190815260200160002060009054906101000a900460ff16905092915050565b610ac061103f565b600073ffffffffffffffffffffffffffffffffffffffff168173ffffffffffffffffffffffffffffffffffffffff1603610b2f576040517f08c379a0000000000000000000000000000000000000000000000000000000008152600401610b2690612328565b60405180910390fd5b610b388161113c565b50565b60007f01ffc9a7000000000000000000000000000000000000000000000000000000007bffffffffffffffffffffffffffffffffffffffffffffffffffffffff1916827bffffffffffffffffffffffffffffffffffffffffffffffffffffffff1916149050919050565b610bae816113ca565b610bed576040517f08c379a0000000000000000000000000000000000000000000000000000000008152600401610be490612175565b60405180910390fd5b50565b600033905090565b816004600083815260200190815260200160002060006101000a81548173ffffffffffffffffffffffffffffffffffffffff021916908373ffffffffffffffffffffffffffffffffffffffff160217905550808273ffffffffffffffffffffffffffffffffffffffff16610c6b836106d7565b73ffffffffffffffffffffffffffffffffffffffff167f8c5be1e5ebec7d5bd14f71427d1e84f3dd0314c0f7b2291e5b200ac8c7c3b92560405160405180910390a45050565b600080610cbd836106d7565b90508073ffffffffffffffffffffffffffffffffffffffff168473ffffffffffffffffffffffffffffffffffffffff161480610cff5750610cfe8185610a24565b5b80610d3d57508373ffffffffffffffffffffffffffffffffffffffff16610d25846104cc565b73ffffffffffffffffffffffffffffffffffffffff16145b91505092915050565b8273ffffffffffffffffffffffffffffffffffffffff16610d66826106d7565b73ffffffffffffffffffffffffffffffffffffffff1614610dbc576040517f08c379a0000000000000000000000000000000000000000000000000000000008152600401610db3906123ba565b60405180910390fd5b600073ffffffffffffffffffffffffffffffffffffffff168273ffffffffffffffffffffffffffffffffffffffff1603610e2b576040517f08c379a0000000000000000000000000000000000000000000000000000000008152600401610e229061244c565b60405180910390fd5b610e38838383600161140b565b8273ffffffffffffffffffffffffffffffffffffffff16610e58826106d7565b73ffffffffffffffffffffffffffffffffffffffff1614610eae576040517f08c379a0000000000000000000000000000000000000000000000000000000008152600401610ea5906123ba565b60405180910390fd5b6004600082815260200190815260200160002060006101000a81549073ffffffffffffffffffffffffffffffffffffffff02191690556001600360008573ffffffffffffffffffffffffffffffffffffffff1673ffffffffffffffffffffffffffffffffffffffff168152602001908152602001600020600082825403925050819055506001600360008473ffffffffffffffffffffffffffffffffffffffff1673ffffffffffffffffffffffffffffffffffffffff16815260200190815260200160002060008282540192505081905550816002600083815260200190815260200160002060006101000a81548173ffffffffffffffffffffffffffffffffffffffff021916908373ffffffffffffffffffffffffffffffffffffffff160217905550808273ffffffffffffffffffffffffffffffffffffffff168473ffffffffffffffffffffffffffffffffffffffff167fddf252ad1be2c89b69c2b068fc378daa952ba7f163c4a11628f55a4df523b3ef60405160405180910390a461103a8383836001611531565b505050565b611047610bf0565b73ffffffffffffffffffffffffffffffffffffffff16611065610828565b73ffffffffffffffffffffffffffffffffffffffff16146110bb576040517f08c379a00000000000000000000000000000000000000000000000000000000081526004016110b2906124b8565b60405180910390fd5b565b600081600001549050919050565b6001816000016000828254019250508190555050565b6110fb828260405180602001604052806000815250611537565b5050565b60006002600083815260200190815260200160002060009054906101000a900473ffffffffffffffffffffffffffffffffffffffff169050919050565b6000600660009054906101000a900473ffffffffffffffffffffffffffffffffffffffff16905081600660006101000a81548173ffffffffffffffffffffffffffffffffffffffff021916908373ffffffffffffffffffffffffffffffffffffffff1602179055508173ffffffffffffffffffffffffffffffffffffffff168173ffffffffffffffffffffffffffffffffffffffff167f8be0079c531659141344cd1fd0a4f28419497f9722a3daafe3b4186f6b6457e060405160405180910390a35050565b8173ffffffffffffffffffffffffffffffffffffffff168373ffffffffffffffffffffffffffffffffffffffff1603611270576040517f08c379a000000000000000000000000000000000000000000000000000000000815260040161126790612524565b60405180910390fd5b80600560008573ffffffffffffffffffffffffffffffffffffffff1673ffffffffffffffffffffffffffffffffffffffff16815260200190815260200160002060008473ffffffffffffffffffffffffffffffffffffffff1673ffffffffffffffffffffffffffffffffffffffff16815260200190815260200160002060006101000a81548160ff0219169083151502179055508173ffffffffffffffffffffffffffffffffffffffff168373ffffffffffffffffffffffffffffffffffffffff167f17307eab39ab6107e8899845ad3d59bd9653f200f220920489ca2b5937696c31836040516113619190611a0d565b60405180910390a3505050565b611379848484610d46565b61138584848484611592565b6113c4576040517f08c379a00000000000000000000000000000000000000000000000000000000081526004016113bb906125b6565b60405180910390fd5b50505050565b60008073ffffffffffffffffffffffffffffffffffffffff166113ec836110ff565b73ffffffffffffffffffffffffffffffffffffffff1614159050919050565b600181111561152b57600073ffffffffffffffffffffffffffffffffffffffff168473ffffffffffffffffffffffffffffffffffffffff161461149f5780600360008673ffffffffffffffffffffffffffffffffffffffff1673ffffffffffffffffffffffffffffffffffffffff16815260200190815260200160002060008282546114979190612605565b925050819055505b600073ffffffffffffffffffffffffffffffffffffffff168373ffffffffffffffffffffffffffffffffffffffff161461152a5780600360008573ffffffffffffffffffffffffffffffffffffffff1673ffffffffffffffffffffffffffffffffffffffff16815260200190815260200160002060008282546115229190612639565b925050819055505b5b50505050565b50505050565b6115418383611719565b61154e6000848484611592565b61158d576040517f08c379a0000000000000000000000000000000000000000000000000000000008152600401611584906125b6565b60405180910390fd5b505050565b60006115b38473ffffffffffffffffffffffffffffffffffffffff16611936565b1561170c578373ffffffffffffffffffffffffffffffffffffffff1663150b7a026115dc610bf0565b8786866040518563ffffffff1660e01b81526004016115fe94939291906126c2565b6020604051808303816000875af192505050801561163a57506040513d601f19601f820116820180604052508101906116379190612723565b60015b6116bc573d806000811461166a576040519150601f19603f3d011682016040523d82523d6000602084013e61166f565b606091505b5060008151036116b4576040517f08c379a00000000000000000000000000000000000000000000000000000000081526004016116ab906125b6565b60405180910390fd5b805181602001fd5b63150b7a0260e01b7bffffffffffffffffffffffffffffffffffffffffffffffffffffffff1916817bffffffffffffffffffffffffffffffffffffffffffffffffffffffff191614915050611711565b600190505b949350505050565b600073ffffffffffffffffffffffffffffffffffffffff168273ffffffffffffffffffffffffffffffffffffffff1603611788576040517f08c379a000000000000000000000000000000000000000000000000000000000815260040161177f9061279c565b60405180910390fd5b611791816113ca565b156117d1576040517f08c379a00000000000000000000000000000000000000000000000000000000081526004016117c890612808565b60405180910390fd5b6117df60008383600161140b565b6117e8816113ca565b15611828576040517f08c379a000000000000000000000000000000000000000000000000000000000815260040161181f90612808565b60405180910390fd5b6001600360008473ffffffffffffffffffffffffffffffffffffffff1673ffffffffffffffffffffffffffffffffffffffff16815260200190815260200160002060008282540192505081905550816002600083815260200190815260200160002060006101000a81548173ffffffffffffffffffffffffffffffffffffffff021916908373ffffffffffffffffffffffffffffffffffffffff160217905550808273ffffffffffffffffffffffffffffffffffffffff16600073ffffffffffffffffffffffffffffffffffffffff167fddf252ad1be2c89b69c2b068fc378daa952ba7f163c4a11628f55a4df523b3ef60405160405180910390a4611932600083836001611531565b5050565b6000808273ffffffffffffffffffffffffffffffffffffffff163b119050919050565b6000604051905090565b600080fd5b600080fd5b60007fffffffff0000000000000000000000000000000000000000000000000000000082169050919050565b6119a28161196d565b81146119ad57600080fd5b50565b6000813590506119bf81611999565b92915050565b6000602082840312156119db576119da611963565b5b60006119e9848285016119b0565b91505092915050565b60008115159050919050565b611a07816119f2565b82525050565b6000602082019050611a2260008301846119fe565b92915050565b600081519050919050565b600082825260208201905092915050565b60005b83811015611a62578082015181840152602081019050611a47565b60008484015250505050565b6000601f19601f8301169050919050565b6000611a8a82611a28565b611a948185611a33565b9350611aa4818560208601611a44565b611aad81611a6e565b840191505092915050565b60006020820190508181036000830152611ad28184611a7f565b905092915050565b6000819050919050565b611aed81611ada565b8114611af857600080fd5b50565b600081359050611b0a81611ae4565b92915050565b600060208284031215611b2657611b25611963565b5b6000611b3484828501611afb565b91505092915050565b600073ffffffffffffffffffffffffffffffffffffffff82169050919050565b6000611b6882611b3d565b9050919050565b611b7881611b5d565b82525050565b6000602082019050611b936000830184611b6f565b92915050565b611ba281611b5d565b8114611bad57600080fd5b50565b600081359050611bbf81611b99565b92915050565b60008060408385031215611bdc57611bdb611963565b5b6000611bea85828601611bb0565b9250506020611bfb85828601611afb565b9150509250929050565b600080600060608486031215611c1e57611c1d611963565b5b6000611c2c86828701611bb0565b9350506020611c3d86828701611bb0565b9250506040611c4e86828701611afb565b9150509250925092565b600060208284031215611c6e57611c6d611963565b5b6000611c7c84828501611bb0565b91505092915050565b611c8e81611ada565b82525050565b6000602082019050611ca96000830184611c85565b92915050565b611cb8816119f2565b8114611cc357600080fd5b50565b600081359050611cd581611caf565b92915050565b60008060408385031215611cf257611cf1611963565b5b6000611d0085828601611bb0565b9250506020611d1185828601611cc6565b9150509250929050565b600080fd5b600080fd5b7f4e487b7100000000000000000000000000000000000000000000000000000000600052604160045260246000fd5b611d5d82611a6e565b810181811067ffffffffffffffff82111715611d7c57611d7b611d25565b5b80604052505050565b6000611d8f611959565b9050611d9b8282611d54565b919050565b600067ffffffffffffffff821115611dbb57611dba611d25565b5b611dc482611a6e565b9050602081019050919050565b82818337600083830152505050565b6000611df3611dee84611da0565b611d85565b905082815260208101848484011115611e0f57611e0e611d20565b5b611e1a848285611dd1565b509392505050565b600082601f830112611e3757611e36611d1b565b5b8135611e47848260208601611de0565b91505092915050565b60008060008060808587031215611e6a57611e69611963565b5b6000611e7887828801611bb0565b9450506020611e8987828801611bb0565b9350506040611e9a87828801611afb565b925050606085013567ffffffffffffffff811115611ebb57611eba611968565b5b611ec787828801611e22565b91505092959194509250565b60008060408385031215611eea57611ee9611963565b5b6000611ef885828601611bb0565b9250506020611f0985828601611bb0565b9150509250929050565b7f4e487b7100000000000000000000000000000000000000000000000000000000600052602260045260246000fd5b60006002820490506001821680611f5a57607f821691505b602082108103611f6d57611f6c611f13565b5b50919050565b7f4552433732313a20617070726f76616c20746f2063757272656e74206f776e6560008201527f7200000000000000000000000000000000000000000000000000000000000000602082015250565b6000611fcf602183611a33565b9150611fda82611f73565b604082019050919050565b60006020820190508181036000830152611ffe81611fc2565b9050919050565b7f4552433732313a20617070726f76652063616c6c6572206973206e6f7420746f60008201527f6b656e206f776e6572206f7220617070726f76656420666f7220616c6c000000602082015250565b6000612061603d83611a33565b915061206c82612005565b604082019050919050565b6000602082019050818103600083015261209081612054565b9050919050565b7f4552433732313a2063616c6c6572206973206e6f7420746f6b656e206f776e6560008201527f72206f7220617070726f76656400000000000000000000000000000000000000602082015250565b60006120f3602d83611a33565b91506120fe82612097565b604082019050919050565b60006020820190508181036000830152612122816120e6565b9050919050565b7f4552433732313a20696e76616c696420746f6b656e2049440000000000000000600082015250565b600061215f601883611a33565b915061216a82612129565b602082019050919050565b6000602082019050818103600083015261218e81612152565b9050919050565b7f4552433732313a2061646472657373207a65726f206973206e6f74206120766160008201527f6c6964206f776e65720000000000000000000000000000000000000000000000602082015250565b60006121f1602983611a33565b91506121fc82612195565b604082019050919050565b60006020820190508181036000830152612220816121e4565b9050919050565b7f4e487b7100000000000000000000000000000000000000000000000000000000600052601260045260246000fd5b600061226182611ada565b915061226c83611ada565b92508261227c5761227b612227565b5b828206905092915050565b7f4e487b7100000000000000000000000000000000000000000000000000000000600052603260045260246000fd5b7f4f776e61626c653a206e6577206f776e657220697320746865207a65726f206160008201527f6464726573730000000000000000000000000000000000000000000000000000602082015250565b6000612312602683611a33565b915061231d826122b6565b604082019050919050565b6000602082019050818103600083015261234181612305565b9050919050565b7f4552433732313a207472616e736665722066726f6d20696e636f72726563742060008201527f6f776e6572000000000000000000000000000000000000000000000000000000602082015250565b60006123a4602583611a33565b91506123af82612348565b604082019050919050565b600060208201905081810360008301526123d381612397565b9050919050565b7f4552433732313a207472616e7366657220746f20746865207a65726f2061646460008201527f7265737300000000000000000000000000000000000000000000000000000000602082015250565b6000612436602483611a33565b9150612441826123da565b604082019050919050565b6000602082019050818103600083015261246581612429565b9050919050565b7f4f776e61626c653a2063616c6c6572206973206e6f7420746865206f776e6572600082015250565b60006124a2602083611a33565b91506124ad8261246c565b602082019050919050565b600060208201905081810360008301526124d181612495565b9050919050565b7f4552433732313a20617070726f766520746f2063616c6c657200000000000000600082015250565b600061250e601983611a33565b9150612519826124d8565b602082019050919050565b6000602082019050818103600083015261253d81612501565b9050919050565b7f4552433732313a207472616e7366657220746f206e6f6e20455243373231526560008201527f63656976657220696d706c656d656e7465720000000000000000000000000000602082015250565b60006125a0603283611a33565b91506125ab82612544565b604082019050919050565b600060208201905081810360008301526125cf81612593565b9050919050565b7f4e487b7100000000000000000000000000000000000000000000000000000000600052601160045260246000fd5b600061261082611ada565b915061261b83611ada565b9250828203905081811115612633576126326125d6565b5b92915050565b600061264482611ada565b915061264f83611ada565b9250828201905080821115612667576126666125d6565b5b92915050565b600081519050919050565b600082825260208201905092915050565b60006126948261266d565b61269e8185612678565b93506126ae818560208601611a44565b6126b781611a6e565b840191505092915050565b60006080820190506126d76000830187611b6f565b6126e46020830186611b6f565b6126f16040830185611c85565b81810360608301526127038184612689565b905095945050505050565b60008151905061271d81611999565b92915050565b60006020828403121561273957612738611963565b5b60006127478482850161270e565b91505092915050565b7f4552433732313a206d696e7420746f20746865207a65726f2061646472657373600082015250565b6000612786602083611a33565b915061279182612750565b602082019050919050565b600060208201905081810360008301526127b581612779565b9050919050565b7f4552433732313a20746f6b656e20616c7265616479206d696e74656400000000600082015250565b60006127f2601c83611a33565b91506127fd826127bc565b602082019050919050565b60006020820190508181036000830152612821816127e5565b905091905056fea2646970667358221220865c7b7c469e0c2057901a06ef43317279ddc54d4e4e389af2c7471ed0d884a864736f6c634300081200337b226e616d65223a20224e465420233132222c226465736372697074696f6e223a20224e465421222c2022696d616765223a202268747470733a2f2f6d2e74756e697563646e2e636f6d2f66696c6562726f6b65722f63646e2f6f6c622f35342f61302f35346130653061373163366331663266623430613164666137333838313164635f773332305f683234305f63315f74302e6a7067227d7b226e616d65223a20224e465420233131222c226465736372697074696f6e223a20224e465421222c2022696d616765223a202268747470733a2f2f7069632e7175616e6a696e672e636f6d2f67642f65662f514a363730393939353734332e6a7067402133353068227d7b226e616d65223a20224e46542023313131222c226465736372697074696f6e223a20224e465421222c2022696d616765223a202268747470733a2f2f7069632e3631367069632e636f6d2f79735f626e65775f696d672f30302f35352f34342f394d72753864554366772e6a7067227d7b226e616d65223a20224e46542023313232222c226465736372697074696f6e223a20224e465421222c2022696d616765223a202268747470733a2f2f7069632e7175616e6a696e672e636f6d2f30332f686e2f514a363234343737313038382e6a7067402133353068227d7b226e616d65223a20224e4654202331222c226465736372697074696f6e223a20224d79206669727374204e465421222c2022696d616765223a202268747470733a2f2f7069632e7175616e6a696e672e636f6d2f30332f686e2f514a363234343737313038382e6a7067402133353068227d",
  "linkReferences": {},
  "deployedLinkReferences": {}
}