{
  "_format": "hh-sol-artifact-1",
  "contractName": "NFTPoolFactory",
  "sourceName": "contracts/NFTPoolFactory.sol",
  "abi": [
    {
      "inputs": [
        {
          "internalType": "address",
          "name": "_feeToSetter",
          "type": "address"
        },
        {
          "internalType": "address",
          "name": "_router",
          "type": "address"
        }
      ],
      "stateMutability": "nonpayable",
      "type": "constructor"
    },
    {
      "anonymous": false,
      "inputs": [
        {
          "indexed": true,
          "internalType": "address",
          "name": "token0",
          "type": "address"
        },
        {
          "indexed": false,
          "internalType": "address",
          "name": "pair",
          "type": "address"
        },
        {
          "indexed": false,
          "internalType": "uint256",
          "name": "",
          "type": "uint256"
        }
      ],
      "name": "PoolCreated",
      "type": "event"
    },
    {
      "inputs": [],
      "name": "INIT_CODE_PAIR_HASH",
      "outputs": [
        {
          "internalType": "bytes32",
          "name": "",
          "type": "bytes32"
        }
      ],
      "stateMutability": "view",
      "type": "function"
    },
    {
      "inputs": [
        {
          "internalType": "uint256",
          "name": "",
          "type": "uint256"
        }
      ],
      "name": "allPools",
      "outputs": [
        {
          "internalType": "address",
          "name": "",
          "type": "address"
        }
      ],
      "stateMutability": "view",
      "type": "function"
    },
    {
      "inputs": [],
      "name": "allPoolsLength",
      "outputs": [
        {
          "internalType": "uint256",
          "name": "",
          "type": "uint256"
        }
      ],
      "stateMutability": "view",
      "type": "function"
    },
    {
      "inputs": [
        {
          "internalType": "address",
          "name": "token",
          "type": "address"
        }
      ],
      "name": "createPool",
      "outputs": [
        {
          "internalType": "address",
          "name": "pool",
          "type": "address"
        }
      ],
      "stateMutability": "nonpayable",
      "type": "function"
    },
    {
      "inputs": [],
      "name": "feeTo",
      "outputs": [
        {
          "internalType": "address",
          "name": "",
          "type": "address"
        }
      ],
      "stateMutability": "view",
      "type": "function"
    },
    {
      "inputs": [],
      "name": "feeToSetter",
      "outputs": [
        {
          "internalType": "address",
          "name": "",
          "type": "address"
        }
      ],
      "stateMutability": "view",
      "type": "function"
    },
    {
      "inputs": [
        {
          "internalType": "address",
          "name": "",
          "type": "address"
        }
      ],
      "name": "getPool",
      "outputs": [
        {
          "internalType": "address",
          "name": "",
          "type": "address"
        }
      ],
      "stateMutability": "view",
      "type": "function"
    },
    {
      "inputs": [
        {
          "internalType": "address",
          "name": "token",
          "type": "address"
        }
      ],
      "name": "getPoolByToken",
      "outputs": [
        {
          "internalType": "address",
          "name": "",
          "type": "address"
        }
      ],
      "stateMutability": "view",
      "type": "function"
    },
    {
      "inputs": [],
      "name": "router",
      "outputs": [
        {
          "internalType": "address",
          "name": "",
          "type": "address"
        }
      ],
      "stateMutability": "view",
      "type": "function"
    },
    {
      "inputs": [
        {
          "internalType": "address",
          "name": "_feeTo",
          "type": "address"
        }
      ],
      "name": "setFeeTo",
      "outputs": [],
      "stateMutability": "nonpayable",
      "type": "function"
    },
    {
      "inputs": [
        {
          "internalType": "address",
          "name": "_feeToSetter",
          "type": "address"
        }
      ],
      "name": "setFeeToSetter",
      "outputs": [],
      "stateMutability": "nonpayable",
      "type": "function"
    }
  ],
  "bytecode": "0x608060405234801561001057600080fd5b50604051620036be380380620036be83398181016040528101906100349190610120565b81600160006101000a81548173ffffffffffffffffffffffffffffffffffffffff021916908373ffffffffffffffffffffffffffffffffffffffff16021790555080600260006101000a81548173ffffffffffffffffffffffffffffffffffffffff021916908373ffffffffffffffffffffffffffffffffffffffff1602179055505050610160565b600080fd5b600073ffffffffffffffffffffffffffffffffffffffff82169050919050565b60006100ed826100c2565b9050919050565b6100fd816100e2565b811461010857600080fd5b50565b60008151905061011a816100f4565b92915050565b60008060408385031215610137576101366100bd565b5b60006101458582860161010b565b92505060206101568582860161010b565b9150509250929050565b61354e80620001706000396000f3fe608060405234801561001057600080fd5b50600436106100a95760003560e01c8063a2e74af611610071578063a2e74af614610168578063bbadc03b14610184578063bbe4f6db146101b4578063efde4e64146101e4578063f46901ed14610202578063f887ea401461021e576100a9565b8063017e7e58146100ae578063094b7415146100cc57806341d1de97146100ea5780635855a25a1461011a5780639049f9d214610138575b600080fd5b6100b661023c565b6040516100c39190610802565b60405180910390f35b6100d4610260565b6040516100e19190610802565b60405180910390f35b61010460048036038101906100ff9190610858565b610286565b6040516101119190610802565b60405180910390f35b6101226102c5565b60405161012f919061089e565b60405180910390f35b610152600480360381019061014d91906108e5565b610312565b60405161015f9190610802565b60405180910390f35b610182600480360381019061017d91906108e5565b61053e565b005b61019e600480360381019061019991906108e5565b610612565b6040516101ab9190610802565b60405180910390f35b6101ce60048036038101906101c991906108e5565b61067b565b6040516101db9190610802565b60405180910390f35b6101ec6106ae565b6040516101f99190610921565b60405180910390f35b61021c600480360381019061021791906108e5565b6106bb565b005b61022661078e565b6040516102339190610802565b60405180910390f35b60008054906101000a900473ffffffffffffffffffffffffffffffffffffffff1681565b600160009054906101000a900473ffffffffffffffffffffffffffffffffffffffff1681565b6004818154811061029657600080fd5b906000526020600020016000915054906101000a900473ffffffffffffffffffffffffffffffffffffffff1681565b604051806020016102d5906107b4565b6020820181038252601f19601f820116604052506040516020016102f991906109ad565b6040516020818303038152906040528051906020012081565b60008060405180602001610325906107b4565b6020820181038252601f19601f82011660405250905060008360405160200161034e9190610a0c565b604051602081830303815290604052805190602001209050808251602084016000f592508273ffffffffffffffffffffffffffffffffffffffff1663485cc95585600260009054906101000a900473ffffffffffffffffffffffffffffffffffffffff166040518363ffffffff1660e01b81526004016103cf929190610a27565b600060405180830381600087803b1580156103e957600080fd5b505af11580156103fd573d6000803e3d6000fd5b5050505082600360008673ffffffffffffffffffffffffffffffffffffffff1673ffffffffffffffffffffffffffffffffffffffff16815260200190815260200160002060006101000a81548173ffffffffffffffffffffffffffffffffffffffff021916908373ffffffffffffffffffffffffffffffffffffffff1602179055506004839080600181540180825580915050600190039060005260206000200160009091909190916101000a81548173ffffffffffffffffffffffffffffffffffffffff021916908373ffffffffffffffffffffffffffffffffffffffff1602179055508373ffffffffffffffffffffffffffffffffffffffff167ff8a0462f666b427ea753848be7e91f9ce413975906f6f39950be296ca9a4d5248460048054905060405161052f929190610a50565b60405180910390a25050919050565b600160009054906101000a900473ffffffffffffffffffffffffffffffffffffffff1673ffffffffffffffffffffffffffffffffffffffff163373ffffffffffffffffffffffffffffffffffffffff16146105ce576040517f08c379a00000000000000000000000000000000000000000000000000000000081526004016105c590610ad6565b60405180910390fd5b80600160006101000a81548173ffffffffffffffffffffffffffffffffffffffff021916908373ffffffffffffffffffffffffffffffffffffffff16021790555050565b6000600360008373ffffffffffffffffffffffffffffffffffffffff1673ffffffffffffffffffffffffffffffffffffffff16815260200190815260200160002060009054906101000a900473ffffffffffffffffffffffffffffffffffffffff169050919050565b60036020528060005260406000206000915054906101000a900473ffffffffffffffffffffffffffffffffffffffff1681565b6000600480549050905090565b600160009054906101000a900473ffffffffffffffffffffffffffffffffffffffff1673ffffffffffffffffffffffffffffffffffffffff163373ffffffffffffffffffffffffffffffffffffffff161461074b576040517f08c379a000000000000000000000000000000000000000000000000000000000815260040161074290610ad6565b60405180910390fd5b806000806101000a81548173ffffffffffffffffffffffffffffffffffffffff021916908373ffffffffffffffffffffffffffffffffffffffff16021790555050565b600260009054906101000a900473ffffffffffffffffffffffffffffffffffffffff1681565b612a2280610af783390190565b600073ffffffffffffffffffffffffffffffffffffffff82169050919050565b60006107ec826107c1565b9050919050565b6107fc816107e1565b82525050565b600060208201905061081760008301846107f3565b92915050565b600080fd5b6000819050919050565b61083581610822565b811461084057600080fd5b50565b6000813590506108528161082c565b92915050565b60006020828403121561086e5761086d61081d565b5b600061087c84828501610843565b91505092915050565b6000819050919050565b61089881610885565b82525050565b60006020820190506108b3600083018461088f565b92915050565b6108c2816107e1565b81146108cd57600080fd5b50565b6000813590506108df816108b9565b92915050565b6000602082840312156108fb576108fa61081d565b5b6000610909848285016108d0565b91505092915050565b61091b81610822565b82525050565b60006020820190506109366000830184610912565b92915050565b600081519050919050565b600081905092915050565b60005b83811015610970578082015181840152602081019050610955565b60008484015250505050565b60006109878261093c565b6109918185610947565b93506109a1818560208601610952565b80840191505092915050565b60006109b9828461097c565b915081905092915050565b60008160601b9050919050565b60006109dc826109c4565b9050919050565b60006109ee826109d1565b9050919050565b610a06610a01826107e1565b6109e3565b82525050565b6000610a1882846109f5565b60148201915081905092915050565b6000604082019050610a3c60008301856107f3565b610a4960208301846107f3565b9392505050565b6000604082019050610a6560008301856107f3565b610a726020830184610912565b9392505050565b600082825260208201905092915050565b7f556e697377617056323a20464f5242494444454e000000000000000000000000600082015250565b6000610ac0601483610a79565b9150610acb82610a8a565b602082019050919050565b60006020820190508181036000830152610aef81610ab3565b905091905056fe6080604052600160065534801561001557600080fd5b5033600760006101000a81548173ffffffffffffffffffffffffffffffffffffffff021916908373ffffffffffffffffffffffffffffffffffffffff1602179055506129bc806100666000396000f3fe60806040526004361061010d5760003560e01c8063433463c011610095578063c45a015511610064578063c45a015514610395578063c4e41b22146103c0578063d56e9fbe146103eb578063e4d5267914610428578063e5b033941461046557610114565b8063433463c0146102db578063485cc9551461030457806376cdb03b1461032d578063b603c7d01461035857610114565b806318160ddd116100dc57806318160ddd146101d05780631fb479ec146101fb5780632379669814610238578063312e63fd1461027557806341a3c98e1461029e57610114565b80630ed6ebc81461011657806310fe9ae81461013f57806315d99d641461016a57806317a6b609146101a757610114565b3661011457005b005b34801561012257600080fd5b5061013d60048036038101906101389190611f2c565b6104a2565b005b34801561014b57600080fd5b50610154610e9c565b6040516101619190611f8e565b60405180910390f35b34801561017657600080fd5b50610191600480360381019061018c9190611fa9565b610ec5565b60405161019e9190612002565b60405180910390f35b3480156101b357600080fd5b506101ce60048036038101906101c99190611fa9565b610eea565b005b3480156101dc57600080fd5b506101e5610f44565b6040516101f2919061202c565b60405180910390f35b34801561020757600080fd5b50610222600480360381019061021d9190611fa9565b610f4a565b60405161022f919061202c565b60405180910390f35b34801561024457600080fd5b5061025f600480360381019061025a9190611fa9565b610f6f565b60405161026c919061202c565b60405180910390f35b34801561028157600080fd5b5061029c60048036038101906102979190612047565b610fca565b005b3480156102aa57600080fd5b506102c560048036038101906102c09190611fa9565b6117fa565b6040516102d2919061202c565b60405180910390f35b3480156102e757600080fd5b5061030260048036038101906102fd9190611fa9565b61181f565b005b34801561031057600080fd5b5061032b600480360381019061032691906120c2565b611a4b565b005b34801561033957600080fd5b50610342611b60565b60405161034f9190611f8e565b60405180910390f35b34801561036457600080fd5b5061037f600480360381019061037a9190611fa9565b611b86565b60405161038c9190611f8e565b60405180910390f35b3480156103a157600080fd5b506103aa611bc8565b6040516103b79190611f8e565b60405180910390f35b3480156103cc57600080fd5b506103d5611bee565b6040516103e2919061202c565b60405180910390f35b3480156103f757600080fd5b50610412600480360381019061040d9190611fa9565b611bf8565b60405161041f9190612002565b60405180910390f35b34801561043457600080fd5b5061044f600480360381019061044a9190611fa9565b611c53565b60405161045c919061202c565b60405180910390f35b34801561047157600080fd5b5061048c60048036038101906104879190611fa9565b611cae565b604051610499919061202c565b60405180910390f35b6001600654146104e7576040517f08c379a00000000000000000000000000000000000000000000000000000000081526004016104de9061215f565b60405180910390fd5b6000600681905550600860009054906101000a900473ffffffffffffffffffffffffffffffffffffffff1673ffffffffffffffffffffffffffffffffffffffff163373ffffffffffffffffffffffffffffffffffffffff161461057f576040517f08c379a0000000000000000000000000000000000000000000000000000000008152600401610576906121cb565b60405180910390fd5b600073ffffffffffffffffffffffffffffffffffffffff168373ffffffffffffffffffffffffffffffffffffffff16036105ee576040517f08c379a00000000000000000000000000000000000000000000000000000000081526004016105e590612237565b60405180910390fd5b42600360008573ffffffffffffffffffffffffffffffffffffffff1673ffffffffffffffffffffffffffffffffffffffff16815260200190815260200160002060008481526020019081526020016000205413610680576040517f08c379a0000000000000000000000000000000000000000000000000000000008152600401610677906122a3565b60405180910390fd5b8273ffffffffffffffffffffffffffffffffffffffff166301ffc9a76380ac58cd6040518263ffffffff1660e01b81526004016106bd9190612337565b602060405180830381865afa1580156106da573d6000803e3d6000fd5b505050506040513d601f19601f820116820180604052508101906106fe919061238a565b61073d576040517f08c379a000000000000000000000000000000000000000000000000000000000815260040161073490612403565b60405180910390fd5b3073ffffffffffffffffffffffffffffffffffffffff168373ffffffffffffffffffffffffffffffffffffffff16636352211e846040518263ffffffff1660e01b815260040161078d919061202c565b602060405180830381865afa1580156107aa573d6000803e3d6000fd5b505050506040513d601f19601f820116820180604052508101906107ce9190612438565b73ffffffffffffffffffffffffffffffffffffffff1614610824576040517f08c379a000000000000000000000000000000000000000000000000000000000815260040161081b906124b1565b60405180910390fd5b8073ffffffffffffffffffffffffffffffffffffffff16600560008573ffffffffffffffffffffffffffffffffffffffff1673ffffffffffffffffffffffffffffffffffffffff168152602001908152602001600020600084815260200190815260200160002060009054906101000a900473ffffffffffffffffffffffffffffffffffffffff1673ffffffffffffffffffffffffffffffffffffffff1614610902576040517f08c379a00000000000000000000000000000000000000000000000000000000081526004016108f99061251d565b60405180910390fd5b600060015460008054906101000a900473ffffffffffffffffffffffffffffffffffffffff1673ffffffffffffffffffffffffffffffffffffffff166370a08231306040518263ffffffff1660e01b81526004016109609190611f8e565b602060405180830381865afa15801561097d573d6000803e3d6000fd5b505050506040513d601f19601f820116820180604052508101906109a19190612552565b6109ab91906125ae565b9050600460008573ffffffffffffffffffffffffffffffffffffffff1673ffffffffffffffffffffffffffffffffffffffff168152602001908152602001600020600084815260200190815260200160002054811015610a40576040517f08c379a0000000000000000000000000000000000000000000000000000000008152600401610a379061262e565b60405180910390fd5b8373ffffffffffffffffffffffffffffffffffffffff1663095ea7b383856040518363ffffffff1660e01b8152600401610a7b92919061264e565b600060405180830381600087803b158015610a9557600080fd5b505af1158015610aa9573d6000803e3d6000fd5b505050508373ffffffffffffffffffffffffffffffffffffffff166342842e0e3084866040518463ffffffff1660e01b8152600401610aea93929190612677565b600060405180830381600087803b158015610b0457600080fd5b505af1158015610b18573d6000803e3d6000fd5b50505050600460008573ffffffffffffffffffffffffffffffffffffffff1673ffffffffffffffffffffffffffffffffffffffff168152602001908152602001600020600084815260200190815260200160002054811115610bfb57610bfa60008054906101000a900473ffffffffffffffffffffffffffffffffffffffff1683600460008873ffffffffffffffffffffffffffffffffffffffff1673ffffffffffffffffffffffffffffffffffffffff16815260200190815260200160002060008781526020019081526020016000205484610bf591906125ae565b611d09565b5b600460008573ffffffffffffffffffffffffffffffffffffffff1673ffffffffffffffffffffffffffffffffffffffff168152602001908152602001600020600084815260200190815260200160002054600260008673ffffffffffffffffffffffffffffffffffffffff1673ffffffffffffffffffffffffffffffffffffffff16815260200190815260200160002060008581526020019081526020016000206000828254610cab91906126ae565b925050819055506000600460008673ffffffffffffffffffffffffffffffffffffffff1673ffffffffffffffffffffffffffffffffffffffff1681526020019081526020016000206000858152602001908152602001600020819055506000600360008673ffffffffffffffffffffffffffffffffffffffff1673ffffffffffffffffffffffffffffffffffffffff1681526020019081526020016000206000858152602001908152602001600020819055506000600560008673ffffffffffffffffffffffffffffffffffffffff1673ffffffffffffffffffffffffffffffffffffffff168152602001908152602001600020600085815260200190815260200160002060006101000a81548173ffffffffffffffffffffffffffffffffffffffff021916908373ffffffffffffffffffffffffffffffffffffffff16021790555060008054906101000a900473ffffffffffffffffffffffffffffffffffffffff1673ffffffffffffffffffffffffffffffffffffffff166370a08231306040518263ffffffff1660e01b8152600401610e479190611f8e565b602060405180830381865afa158015610e64573d6000803e3d6000fd5b505050506040513d601f19601f82011682018060405250810190610e889190612552565b600181905550506001600681905550505050565b60008060009054906101000a900473ffffffffffffffffffffffffffffffffffffffff16905090565b6003602052816000526040600020602052806000526040600020600091509150505481565b6000600260008473ffffffffffffffffffffffffffffffffffffffff1673ffffffffffffffffffffffffffffffffffffffff1681526020019081526020016000206000838152602001908152602001600020819055505050565b60015481565b6004602052816000526040600020602052806000526040600020600091509150505481565b6000600260008473ffffffffffffffffffffffffffffffffffffffff1673ffffffffffffffffffffffffffffffffffffffff168152602001908152602001600020600083815260200190815260200160002054905092915050565b60016006541461100f576040517f08c379a00000000000000000000000000000000000000000000000000000000081526004016110069061215f565b60405180910390fd5b6000600681905550600860009054906101000a900473ffffffffffffffffffffffffffffffffffffffff1673ffffffffffffffffffffffffffffffffffffffff163373ffffffffffffffffffffffffffffffffffffffff16146110a7576040517f08c379a000000000000000000000000000000000000000000000000000000000815260040161109e906121cb565b60405180910390fd5b600073ffffffffffffffffffffffffffffffffffffffff168573ffffffffffffffffffffffffffffffffffffffff1603611116576040517f08c379a000000000000000000000000000000000000000000000000000000000815260040161110d90612237565b60405180910390fd5b8473ffffffffffffffffffffffffffffffffffffffff166301ffc9a76380ac58cd6040518263ffffffff1660e01b81526004016111539190612337565b602060405180830381865afa158015611170573d6000803e3d6000fd5b505050506040513d601f19601f82011682018060405250810190611194919061238a565b6111d3576040517f08c379a00000000000000000000000000000000000000000000000000000000081526004016111ca90612403565b60405180910390fd5b3073ffffffffffffffffffffffffffffffffffffffff168573ffffffffffffffffffffffffffffffffffffffff16636352211e866040518263ffffffff1660e01b8152600401611223919061202c565b602060405180830381865afa158015611240573d6000803e3d6000fd5b505050506040513d601f19601f820116820180604052508101906112649190612438565b73ffffffffffffffffffffffffffffffffffffffff16146112ba576040517f08c379a00000000000000000000000000000000000000000000000000000000081526004016112b19061272e565b60405180910390fd5b82600260008773ffffffffffffffffffffffffffffffffffffffff1673ffffffffffffffffffffffffffffffffffffffff168152602001908152602001600020600086815260200190815260200160002054101561134d576040517f08c379a00000000000000000000000000000000000000000000000000000000081526004016113449061262e565b60405180910390fd5b80421061138f576040517f08c379a0000000000000000000000000000000000000000000000000000000008152600401611386906122a3565b60405180910390fd5b8260008054906101000a900473ffffffffffffffffffffffffffffffffffffffff1673ffffffffffffffffffffffffffffffffffffffff166370a08231306040518263ffffffff1660e01b81526004016113e99190611f8e565b602060405180830381865afa158015611406573d6000803e3d6000fd5b505050506040513d601f19601f8201168201806040525081019061142a9190612552565b101561146b576040517f08c379a00000000000000000000000000000000000000000000000000000000081526004016114629061279a565b60405180910390fd5b60008054906101000a900473ffffffffffffffffffffffffffffffffffffffff1673ffffffffffffffffffffffffffffffffffffffff1663095ea7b330856040518363ffffffff1660e01b81526004016114c692919061264e565b6020604051808303816000875af11580156114e5573d6000803e3d6000fd5b505050506040513d601f19601f82011682018060405250810190611509919061238a565b5060008054906101000a900473ffffffffffffffffffffffffffffffffffffffff1673ffffffffffffffffffffffffffffffffffffffff166323b872dd3084866040518463ffffffff1660e01b815260040161156793929190612677565b6020604051808303816000875af1158015611586573d6000803e3d6000fd5b505050506040513d601f19601f820116820180604052508101906115aa919061238a565b5082600260008773ffffffffffffffffffffffffffffffffffffffff1673ffffffffffffffffffffffffffffffffffffffff1681526020019081526020016000206000868152602001908152602001600020600082825461160b91906125ae565b9250508190555082600460008773ffffffffffffffffffffffffffffffffffffffff1673ffffffffffffffffffffffffffffffffffffffff16815260200190815260200160002060008681526020019081526020016000208190555081600560008773ffffffffffffffffffffffffffffffffffffffff1673ffffffffffffffffffffffffffffffffffffffff168152602001908152602001600020600086815260200190815260200160002060006101000a81548173ffffffffffffffffffffffffffffffffffffffff021916908373ffffffffffffffffffffffffffffffffffffffff16021790555080600360008773ffffffffffffffffffffffffffffffffffffffff1673ffffffffffffffffffffffffffffffffffffffff16815260200190815260200160002060008681526020019081526020016000208190555060008054906101000a900473ffffffffffffffffffffffffffffffffffffffff1673ffffffffffffffffffffffffffffffffffffffff166370a08231306040518263ffffffff1660e01b81526004016117a49190611f8e565b602060405180830381865afa1580156117c1573d6000803e3d6000fd5b505050506040513d601f19601f820116820180604052508101906117e59190612552565b60018190555060016006819055505050505050565b6002602052816000526040600020602052806000526040600020600091509150505481565b600160065414611864576040517f08c379a000000000000000000000000000000000000000000000000000000000815260040161185b9061215f565b60405180910390fd5b6000600681905550600073ffffffffffffffffffffffffffffffffffffffff168273ffffffffffffffffffffffffffffffffffffffff16036118db576040517f08c379a00000000000000000000000000000000000000000000000000000000081526004016118d290612237565b60405180910390fd5b60008060009054906101000a900473ffffffffffffffffffffffffffffffffffffffff1673ffffffffffffffffffffffffffffffffffffffff166370a08231306040518263ffffffff1660e01b81526004016119379190611f8e565b602060405180830381865afa158015611954573d6000803e3d6000fd5b505050506040513d601f19601f820116820180604052508101906119789190612552565b905060006001548261198a91906125ae565b9050600081116119cf576040517f08c379a00000000000000000000000000000000000000000000000000000000081526004016119c690612806565b60405180910390fd5b80600260008673ffffffffffffffffffffffffffffffffffffffff1673ffffffffffffffffffffffffffffffffffffffff16815260200190815260200160002060008581526020019081526020016000206000828254611a2f91906126ae565b9250508190555081600181905550505060016006819055505050565b600760009054906101000a900473ffffffffffffffffffffffffffffffffffffffff1673ffffffffffffffffffffffffffffffffffffffff163373ffffffffffffffffffffffffffffffffffffffff1614611adb576040517f08c379a0000000000000000000000000000000000000000000000000000000008152600401611ad290612872565b60405180910390fd5b816000806101000a81548173ffffffffffffffffffffffffffffffffffffffff021916908373ffffffffffffffffffffffffffffffffffffffff16021790555080600860006101000a81548173ffffffffffffffffffffffffffffffffffffffff021916908373ffffffffffffffffffffffffffffffffffffffff1602179055505050565b600860009054906101000a900473ffffffffffffffffffffffffffffffffffffffff1681565b60056020528160005260406000206020528060005260406000206000915091509054906101000a900473ffffffffffffffffffffffffffffffffffffffff1681565b600760009054906101000a900473ffffffffffffffffffffffffffffffffffffffff1681565b6000600154905090565b6000600360008473ffffffffffffffffffffffffffffffffffffffff1673ffffffffffffffffffffffffffffffffffffffff168152602001908152602001600020600083815260200190815260200160002054905092915050565b6000600260008473ffffffffffffffffffffffffffffffffffffffff1673ffffffffffffffffffffffffffffffffffffffff168152602001908152602001600020600083815260200190815260200160002054905092915050565b6000600460008473ffffffffffffffffffffffffffffffffffffffff1673ffffffffffffffffffffffffffffffffffffffff168152602001908152602001600020600083815260200190815260200160002054905092915050565b6000808473ffffffffffffffffffffffffffffffffffffffff166040518060400160405280601981526020017f7472616e7366657228616464726573732c75696e743235362900000000000000815250805190602001208585604051602401611d7392919061264e565b604051602081830303815290604052907bffffffffffffffffffffffffffffffffffffffffffffffffffffffff19166020820180517bffffffffffffffffffffffffffffffffffffffffffffffffffffffff8381831617835250505050604051611ddd9190612903565b6000604051808303816000865af19150503d8060008114611e1a576040519150601f19603f3d011682016040523d82523d6000602084013e611e1f565b606091505b5091509150818015611e4d5750600081511480611e4c575080806020019051810190611e4b919061238a565b5b5b611e8c576040517f08c379a0000000000000000000000000000000000000000000000000000000008152600401611e8390612966565b60405180910390fd5b5050505050565b600080fd5b600073ffffffffffffffffffffffffffffffffffffffff82169050919050565b6000611ec382611e98565b9050919050565b611ed381611eb8565b8114611ede57600080fd5b50565b600081359050611ef081611eca565b92915050565b6000819050919050565b611f0981611ef6565b8114611f1457600080fd5b50565b600081359050611f2681611f00565b92915050565b600080600060608486031215611f4557611f44611e93565b5b6000611f5386828701611ee1565b9350506020611f6486828701611f17565b9250506040611f7586828701611ee1565b9150509250925092565b611f8881611eb8565b82525050565b6000602082019050611fa36000830184611f7f565b92915050565b60008060408385031215611fc057611fbf611e93565b5b6000611fce85828601611ee1565b9250506020611fdf85828601611f17565b9150509250929050565b6000819050919050565b611ffc81611fe9565b82525050565b60006020820190506120176000830184611ff3565b92915050565b61202681611ef6565b82525050565b6000602082019050612041600083018461201d565b92915050565b600080600080600060a0868803121561206357612062611e93565b5b600061207188828901611ee1565b955050602061208288828901611f17565b945050604061209388828901611f17565b93505060606120a488828901611ee1565b92505060806120b588828901611f17565b9150509295509295909350565b600080604083850312156120d9576120d8611e93565b5b60006120e785828601611ee1565b92505060206120f885828601611ee1565b9150509250929050565b600082825260208201905092915050565b7f4e4654506f6f6c3a204c4f434b45440000000000000000000000000000000000600082015250565b6000612149600f83612102565b915061215482612113565b602082019050919050565b600060208201905081810360008301526121788161213c565b9050919050565b7f6e6f742062616e6b000000000000000000000000000000000000000000000000600082015250565b60006121b5600883612102565b91506121c08261217f565b602082019050919050565b600060208201905081810360008301526121e4816121a8565b9050919050565b7f7472616e7366657220746f20746865207a65726f204e46542061646472657373600082015250565b6000612221602083612102565b915061222c826121eb565b602082019050919050565b6000602082019050818103600083015261225081612214565b9050919050565b7f74696d65206572726f7200000000000000000000000000000000000000000000600082015250565b600061228d600a83612102565b915061229882612257565b602082019050919050565b600060208201905081810360008301526122bc81612280565b9050919050565b6000819050919050565b60007fffffffff0000000000000000000000000000000000000000000000000000000082169050919050565b60008160e01b9050919050565b600061232161231c612317846122c3565b6122f9565b6122cd565b9050919050565b61233181612306565b82525050565b600060208201905061234c6000830184612328565b92915050565b60008115159050919050565b61236781612352565b811461237257600080fd5b50565b6000815190506123848161235e565b92915050565b6000602082840312156123a05761239f611e93565b5b60006123ae84828501612375565b91505092915050565b7f6e6f742045524337323100000000000000000000000000000000000000000000600082015250565b60006123ed600a83612102565b91506123f8826123b7565b602082019050919050565b6000602082019050818103600083015261241c816123e0565b9050919050565b60008151905061243281611eca565b92915050565b60006020828403121561244e5761244d611e93565b5b600061245c84828501612423565b91505092915050565b7f6e6f74206e6674206f776e657200000000000000000000000000000000000000600082015250565b600061249b600d83612102565b91506124a682612465565b602082019050919050565b600060208201905081810360008301526124ca8161248e565b9050919050565b7f6e6f74206f6c64206f776e657200000000000000000000000000000000000000600082015250565b6000612507600d83612102565b9150612512826124d1565b602082019050919050565b60006020820190508181036000830152612536816124fa565b9050919050565b60008151905061254c81611f00565b92915050565b60006020828403121561256857612567611e93565b5b60006125768482850161253d565b91505092915050565b7f4e487b7100000000000000000000000000000000000000000000000000000000600052601160045260246000fd5b60006125b982611ef6565b91506125c483611ef6565b92508282039050818111156125dc576125db61257f565b5b92915050565b7f6e6f7420656e6f75676800000000000000000000000000000000000000000000600082015250565b6000612618600a83612102565b9150612623826125e2565b602082019050919050565b600060208201905081810360008301526126478161260b565b9050919050565b60006040820190506126636000830185611f7f565b612670602083018461201d565b9392505050565b600060608201905061268c6000830186611f7f565b6126996020830185611f7f565b6126a6604083018461201d565b949350505050565b60006126b982611ef6565b91506126c483611ef6565b92508282019050808211156126dc576126db61257f565b5b92915050565b7f6e6f74206f776e65720000000000000000000000000000000000000000000000600082015250565b6000612718600983612102565b9150612723826126e2565b602082019050919050565b600060208201905081810360008301526127478161270b565b9050919050565b7f4e6f745f456e6f7567685f546f6b656e00000000000000000000000000000000600082015250565b6000612784601083612102565b915061278f8261274e565b602082019050919050565b600060208201905081810360008301526127b381612777565b9050919050565b7f7472616e7366657220636f756e74203c3d20302e000000000000000000000000600082015250565b60006127f0601483612102565b91506127fb826127ba565b602082019050919050565b6000602082019050818103600083015261281f816127e3565b9050919050565b7f4e4654506f6f6c3a20464f5242494444454e0000000000000000000000000000600082015250565b600061285c601283612102565b915061286782612826565b602082019050919050565b6000602082019050818103600083015261288b8161284f565b9050919050565b600081519050919050565b600081905092915050565b60005b838110156128c65780820151818401526020810190506128ab565b60008484015250505050565b60006128dd82612892565b6128e7818561289d565b93506128f78185602086016128a8565b80840191505092915050565b600061290f82846128d2565b915081905092915050565b7f4e4654506f6f6c3a205452414e534645525f4641494c45440000000000000000600082015250565b6000612950601883612102565b915061295b8261291a565b602082019050919050565b6000602082019050818103600083015261297f81612943565b905091905056fea26469706673582212209d2d3ea8525376290e7ac9078a0fbea90ebb1b5988f82af21c87ee837fef01b264736f6c63430008120033a264697066735822122043bc5f7fbb745a5ba2aa1fac299db45a5bbf4f9b54740ca9ebb9aeb19c5642dc64736f6c63430008120033",
  "linkReferences": {},
  "deployedLinkReferences": {}
}