{
  "_format": "hh-sol-artifact-1",
  "contractName": "NFTPoolFactory",
  "sourceName": "contracts/NFTPoolFactory.sol",
  "abi": [
    {
      "inputs": [
        {
          "internalType": "address",
          "name": "_feeToSetter",
          "type": "address"
        },
        {
          "internalType": "address",
          "name": "_router",
          "type": "address"
        },
        {
          "internalType": "address",
          "name": "_nftVault",
          "type": "address"
        }
      ],
      "stateMutability": "nonpayable",
      "type": "constructor"
    },
    {
      "anonymous": false,
      "inputs": [
        {
          "indexed": true,
          "internalType": "address",
          "name": "token0",
          "type": "address"
        },
        {
          "indexed": false,
          "internalType": "address",
          "name": "pair",
          "type": "address"
        },
        {
          "indexed": false,
          "internalType": "uint256",
          "name": "",
          "type": "uint256"
        }
      ],
      "name": "PoolCreated",
      "type": "event"
    },
    {
      "inputs": [],
      "name": "INIT_CODE_PAIR_HASH",
      "outputs": [
        {
          "internalType": "bytes32",
          "name": "",
          "type": "bytes32"
        }
      ],
      "stateMutability": "view",
      "type": "function"
    },
    {
      "inputs": [
        {
          "internalType": "uint256",
          "name": "",
          "type": "uint256"
        }
      ],
      "name": "allPools",
      "outputs": [
        {
          "internalType": "address",
          "name": "",
          "type": "address"
        }
      ],
      "stateMutability": "view",
      "type": "function"
    },
    {
      "inputs": [],
      "name": "allPoolsLength",
      "outputs": [
        {
          "internalType": "uint256",
          "name": "",
          "type": "uint256"
        }
      ],
      "stateMutability": "view",
      "type": "function"
    },
    {
      "inputs": [
        {
          "internalType": "address",
          "name": "token",
          "type": "address"
        },
        {
          "internalType": "address",
          "name": "nftAuction",
          "type": "address"
        }
      ],
      "name": "createPool",
      "outputs": [
        {
          "internalType": "address",
          "name": "pool",
          "type": "address"
        }
      ],
      "stateMutability": "nonpayable",
      "type": "function"
    },
    {
      "inputs": [],
      "name": "feeTo",
      "outputs": [
        {
          "internalType": "address",
          "name": "",
          "type": "address"
        }
      ],
      "stateMutability": "view",
      "type": "function"
    },
    {
      "inputs": [],
      "name": "feeToSetter",
      "outputs": [
        {
          "internalType": "address",
          "name": "",
          "type": "address"
        }
      ],
      "stateMutability": "view",
      "type": "function"
    },
    {
      "inputs": [
        {
          "internalType": "address",
          "name": "",
          "type": "address"
        }
      ],
      "name": "getPool",
      "outputs": [
        {
          "internalType": "address",
          "name": "",
          "type": "address"
        }
      ],
      "stateMutability": "view",
      "type": "function"
    },
    {
      "inputs": [
        {
          "internalType": "address",
          "name": "token",
          "type": "address"
        }
      ],
      "name": "getPoolByToken",
      "outputs": [
        {
          "internalType": "address",
          "name": "",
          "type": "address"
        }
      ],
      "stateMutability": "view",
      "type": "function"
    },
    {
      "inputs": [],
      "name": "nftVault",
      "outputs": [
        {
          "internalType": "address",
          "name": "",
          "type": "address"
        }
      ],
      "stateMutability": "view",
      "type": "function"
    },
    {
      "inputs": [],
      "name": "router",
      "outputs": [
        {
          "internalType": "address",
          "name": "",
          "type": "address"
        }
      ],
      "stateMutability": "view",
      "type": "function"
    },
    {
      "inputs": [
        {
          "internalType": "address",
          "name": "_feeTo",
          "type": "address"
        }
      ],
      "name": "setFeeTo",
      "outputs": [],
      "stateMutability": "nonpayable",
      "type": "function"
    },
    {
      "inputs": [
        {
          "internalType": "address",
          "name": "_feeToSetter",
          "type": "address"
        }
      ],
      "name": "setFeeToSetter",
      "outputs": [],
      "stateMutability": "nonpayable",
      "type": "function"
    }
  ],
  "bytecode": "0x608060405234801561001057600080fd5b50604051620043b7380380620043b783398181016040528101906100349190610162565b82600160006101000a81548173ffffffffffffffffffffffffffffffffffffffff021916908373ffffffffffffffffffffffffffffffffffffffff16021790555081600260006101000a81548173ffffffffffffffffffffffffffffffffffffffff021916908373ffffffffffffffffffffffffffffffffffffffff16021790555080600560006101000a81548173ffffffffffffffffffffffffffffffffffffffff021916908373ffffffffffffffffffffffffffffffffffffffff1602179055505050506101b5565b600080fd5b600073ffffffffffffffffffffffffffffffffffffffff82169050919050565b600061012f82610104565b9050919050565b61013f81610124565b811461014a57600080fd5b50565b60008151905061015c81610136565b92915050565b60008060006060848603121561017b5761017a6100ff565b5b60006101898682870161014d565b935050602061019a8682870161014d565b92505060406101ab8682870161014d565b9150509250925092565b6141f280620001c56000396000f3fe608060405234801561001057600080fd5b50600436106100b45760003560e01c8063bbe4f6db11610071578063bbe4f6db1461018f578063dbfb7d81146101bf578063e3433615146101dd578063efde4e641461020d578063f46901ed1461022b578063f887ea4014610247576100b4565b8063017e7e58146100b9578063094b7415146100d757806341d1de97146100f55780635855a25a14610125578063a2e74af614610143578063bbadc03b1461015f575b600080fd5b6100c1610265565b6040516100ce9190610878565b60405180910390f35b6100df610289565b6040516100ec9190610878565b60405180910390f35b61010f600480360381019061010a91906108ce565b6102af565b60405161011c9190610878565b60405180910390f35b61012d6102ee565b60405161013a9190610914565b60405180910390f35b61015d6004803603810190610158919061095b565b61033b565b005b6101796004803603810190610174919061095b565b61040f565b6040516101869190610878565b60405180910390f35b6101a960048036038101906101a4919061095b565b610478565b6040516101b69190610878565b60405180910390f35b6101c76104ab565b6040516101d49190610878565b60405180910390f35b6101f760048036038101906101f29190610988565b6104d1565b6040516102049190610878565b60405180910390f35b610215610724565b60405161022291906109d7565b60405180910390f35b6102456004803603810190610240919061095b565b610731565b005b61024f610804565b60405161025c9190610878565b60405180910390f35b60008054906101000a900473ffffffffffffffffffffffffffffffffffffffff1681565b600160009054906101000a900473ffffffffffffffffffffffffffffffffffffffff1681565b600481815481106102bf57600080fd5b906000526020600020016000915054906101000a900473ffffffffffffffffffffffffffffffffffffffff1681565b604051806020016102fe9061082a565b6020820181038252601f19601f820116604052506040516020016103229190610a63565b6040516020818303038152906040528051906020012081565b600160009054906101000a900473ffffffffffffffffffffffffffffffffffffffff1673ffffffffffffffffffffffffffffffffffffffff163373ffffffffffffffffffffffffffffffffffffffff16146103cb576040517f08c379a00000000000000000000000000000000000000000000000000000000081526004016103c290610ad7565b60405180910390fd5b80600160006101000a81548173ffffffffffffffffffffffffffffffffffffffff021916908373ffffffffffffffffffffffffffffffffffffffff16021790555050565b6000600360008373ffffffffffffffffffffffffffffffffffffffff1673ffffffffffffffffffffffffffffffffffffffff16815260200190815260200160002060009054906101000a900473ffffffffffffffffffffffffffffffffffffffff169050919050565b60036020528060005260406000206000915054906101000a900473ffffffffffffffffffffffffffffffffffffffff1681565b600560009054906101000a900473ffffffffffffffffffffffffffffffffffffffff1681565b600080604051806020016104e49061082a565b6020820181038252601f19601f82011660405250905060008460405160200161050d9190610b3f565b604051602081830303815290604052805190602001209050808251602084016000f592508273ffffffffffffffffffffffffffffffffffffffff1663f8c8765e86600260009054906101000a900473ffffffffffffffffffffffffffffffffffffffff1687600560009054906101000a900473ffffffffffffffffffffffffffffffffffffffff166040518563ffffffff1660e01b81526004016105b49493929190610b5a565b600060405180830381600087803b1580156105ce57600080fd5b505af11580156105e2573d6000803e3d6000fd5b5050505082600360008773ffffffffffffffffffffffffffffffffffffffff1673ffffffffffffffffffffffffffffffffffffffff16815260200190815260200160002060006101000a81548173ffffffffffffffffffffffffffffffffffffffff021916908373ffffffffffffffffffffffffffffffffffffffff1602179055506004839080600181540180825580915050600190039060005260206000200160009091909190916101000a81548173ffffffffffffffffffffffffffffffffffffffff021916908373ffffffffffffffffffffffffffffffffffffffff1602179055508473ffffffffffffffffffffffffffffffffffffffff167ff8a0462f666b427ea753848be7e91f9ce413975906f6f39950be296ca9a4d52484600480549050604051610714929190610b9f565b60405180910390a2505092915050565b6000600480549050905090565b600160009054906101000a900473ffffffffffffffffffffffffffffffffffffffff1673ffffffffffffffffffffffffffffffffffffffff163373ffffffffffffffffffffffffffffffffffffffff16146107c1576040517f08c379a00000000000000000000000000000000000000000000000000000000081526004016107b890610ad7565b60405180910390fd5b806000806101000a81548173ffffffffffffffffffffffffffffffffffffffff021916908373ffffffffffffffffffffffffffffffffffffffff16021790555050565b600260009054906101000a900473ffffffffffffffffffffffffffffffffffffffff1681565b6135f480610bc983390190565b600073ffffffffffffffffffffffffffffffffffffffff82169050919050565b600061086282610837565b9050919050565b61087281610857565b82525050565b600060208201905061088d6000830184610869565b92915050565b600080fd5b6000819050919050565b6108ab81610898565b81146108b657600080fd5b50565b6000813590506108c8816108a2565b92915050565b6000602082840312156108e4576108e3610893565b5b60006108f2848285016108b9565b91505092915050565b6000819050919050565b61090e816108fb565b82525050565b60006020820190506109296000830184610905565b92915050565b61093881610857565b811461094357600080fd5b50565b6000813590506109558161092f565b92915050565b60006020828403121561097157610970610893565b5b600061097f84828501610946565b91505092915050565b6000806040838503121561099f5761099e610893565b5b60006109ad85828601610946565b92505060206109be85828601610946565b9150509250929050565b6109d181610898565b82525050565b60006020820190506109ec60008301846109c8565b92915050565b600081519050919050565b600081905092915050565b60005b83811015610a26578082015181840152602081019050610a0b565b60008484015250505050565b6000610a3d826109f2565b610a4781856109fd565b9350610a57818560208601610a08565b80840191505092915050565b6000610a6f8284610a32565b915081905092915050565b600082825260208201905092915050565b7f556e697377617056323a20464f5242494444454e000000000000000000000000600082015250565b6000610ac1601483610a7a565b9150610acc82610a8b565b602082019050919050565b60006020820190508181036000830152610af081610ab4565b9050919050565b60008160601b9050919050565b6000610b0f82610af7565b9050919050565b6000610b2182610b04565b9050919050565b610b39610b3482610857565b610b16565b82525050565b6000610b4b8284610b28565b60148201915081905092915050565b6000608082019050610b6f6000830187610869565b610b7c6020830186610869565b610b896040830185610869565b610b966060830184610869565b95945050505050565b6000604082019050610bb46000830185610869565b610bc160208301846109c8565b939250505056fe6080604052683635c9adc5dea000006002556000600355600160085534801561002757600080fd5b5033600960006101000a81548173ffffffffffffffffffffffffffffffffffffffff021916908373ffffffffffffffffffffffffffffffffffffffff16021790555061357c806100786000396000f3fe6080604052600436106101235760003560e01c806376cdb03b116100a0578063d56e9fbe11610064578063d56e9fbe14610403578063e4d5267914610440578063e5b033941461047d578063f4fee51c146104ba578063f8c8765e146104e35761012a565b806376cdb03b146103085780638e900e3a14610333578063b603c7d014610370578063c45a0155146103ad578063c4e41b22146103d85761012a565b80631fb479ec116100e75780631fb479ec14610211578063237966981461024e578063312e63fd1461028b578063433463c0146102b45780635476ea9e146102dd5761012a565b80630ed6ebc81461012c57806310fe9ae81461015557806315d99d641461018057806317a6b609146101bd57806318160ddd146101e65761012a565b3661012a57005b005b34801561013857600080fd5b50610153600480360381019061014e9190612949565b61050c565b005b34801561016157600080fd5b5061016a611009565b60405161017791906129ab565b60405180910390f35b34801561018c57600080fd5b506101a760048036038101906101a291906129c6565b611032565b6040516101b49190612a1f565b60405180910390f35b3480156101c957600080fd5b506101e460048036038101906101df91906129c6565b611057565b005b3480156101f257600080fd5b506101fb6112ef565b6040516102089190612a49565b60405180910390f35b34801561021d57600080fd5b50610238600480360381019061023391906129c6565b6112f5565b6040516102459190612a49565b60405180910390f35b34801561025a57600080fd5b50610275600480360381019061027091906129c6565b61131a565b6040516102829190612a49565b60405180910390f35b34801561029757600080fd5b506102b260048036038101906102ad9190612a64565b611375565b005b3480156102c057600080fd5b506102db60048036038101906102d691906129c6565b611cb1565b005b3480156102e957600080fd5b506102f2611fe0565b6040516102ff91906129ab565b60405180910390f35b34801561031457600080fd5b5061031d612006565b60405161032a91906129ab565b60405180910390f35b34801561033f57600080fd5b5061035a600480360381019061035591906129c6565b61202c565b6040516103679190612a49565b60405180910390f35b34801561037c57600080fd5b50610397600480360381019061039291906129c6565b612051565b6040516103a491906129ab565b60405180910390f35b3480156103b957600080fd5b506103c2612093565b6040516103cf91906129ab565b60405180910390f35b3480156103e457600080fd5b506103ed6120b9565b6040516103fa9190612a49565b60405180910390f35b34801561040f57600080fd5b5061042a600480360381019061042591906129c6565b6120c3565b6040516104379190612a1f565b60405180910390f35b34801561044c57600080fd5b50610467600480360381019061046291906129c6565b61211e565b6040516104749190612a49565b60405180910390f35b34801561048957600080fd5b506104a4600480360381019061049f91906129c6565b612179565b6040516104b19190612a49565b60405180910390f35b3480156104c657600080fd5b506104e160048036038101906104dc91906129c6565b6121d4565b005b3480156104ef57600080fd5b5061050a60048036038101906105059190612adf565b61258d565b005b600160085414610551576040517f08c379a000000000000000000000000000000000000000000000000000000000815260040161054890612ba3565b60405180910390fd5b6000600881905550600a60009054906101000a900473ffffffffffffffffffffffffffffffffffffffff1673ffffffffffffffffffffffffffffffffffffffff163373ffffffffffffffffffffffffffffffffffffffff16146105e9576040517f08c379a00000000000000000000000000000000000000000000000000000000081526004016105e090612c0f565b60405180910390fd5b600073ffffffffffffffffffffffffffffffffffffffff168373ffffffffffffffffffffffffffffffffffffffff1603610658576040517f08c379a000000000000000000000000000000000000000000000000000000000815260040161064f90612c7b565b60405180910390fd5b42600560008573ffffffffffffffffffffffffffffffffffffffff1673ffffffffffffffffffffffffffffffffffffffff168152602001908152602001600020600084815260200190815260200160002054136106ea576040517f08c379a00000000000000000000000000000000000000000000000000000000081526004016106e190612ce7565b60405180910390fd5b8273ffffffffffffffffffffffffffffffffffffffff166301ffc9a76380ac58cd6040518263ffffffff1660e01b81526004016107279190612d7b565b602060405180830381865afa158015610744573d6000803e3d6000fd5b505050506040513d601f19601f820116820180604052508101906107689190612dce565b6107a7576040517f08c379a000000000000000000000000000000000000000000000000000000000815260040161079e90612e47565b60405180910390fd5b3073ffffffffffffffffffffffffffffffffffffffff168373ffffffffffffffffffffffffffffffffffffffff16636352211e846040518263ffffffff1660e01b81526004016107f79190612a49565b602060405180830381865afa158015610814573d6000803e3d6000fd5b505050506040513d601f19601f820116820180604052508101906108389190612e7c565b73ffffffffffffffffffffffffffffffffffffffff161461088e576040517f08c379a000000000000000000000000000000000000000000000000000000000815260040161088590612ef5565b60405180910390fd5b8073ffffffffffffffffffffffffffffffffffffffff16600760008573ffffffffffffffffffffffffffffffffffffffff1673ffffffffffffffffffffffffffffffffffffffff168152602001908152602001600020600084815260200190815260200160002060009054906101000a900473ffffffffffffffffffffffffffffffffffffffff1673ffffffffffffffffffffffffffffffffffffffff161461096c576040517f08c379a000000000000000000000000000000000000000000000000000000000815260040161096390612f61565b60405180910390fd5b600060015460008054906101000a900473ffffffffffffffffffffffffffffffffffffffff1673ffffffffffffffffffffffffffffffffffffffff166370a08231306040518263ffffffff1660e01b81526004016109ca91906129ab565b602060405180830381865afa1580156109e7573d6000803e3d6000fd5b505050506040513d601f19601f82011682018060405250810190610a0b9190612f96565b610a159190612ff2565b9050600660008573ffffffffffffffffffffffffffffffffffffffff1673ffffffffffffffffffffffffffffffffffffffff168152602001908152602001600020600084815260200190815260200160002054811015610aaa576040517f08c379a0000000000000000000000000000000000000000000000000000000008152600401610aa190613072565b60405180910390fd5b8373ffffffffffffffffffffffffffffffffffffffff1663095ea7b383856040518363ffffffff1660e01b8152600401610ae5929190613092565b600060405180830381600087803b158015610aff57600080fd5b505af1158015610b13573d6000803e3d6000fd5b505050508373ffffffffffffffffffffffffffffffffffffffff166342842e0e3084866040518463ffffffff1660e01b8152600401610b54939291906130bb565b600060405180830381600087803b158015610b6e57600080fd5b505af1158015610b82573d6000803e3d6000fd5b50505050600660008573ffffffffffffffffffffffffffffffffffffffff1673ffffffffffffffffffffffffffffffffffffffff168152602001908152602001600020600084815260200190815260200160002054811115610c6557610c6460008054906101000a900473ffffffffffffffffffffffffffffffffffffffff1683600660008873ffffffffffffffffffffffffffffffffffffffff1673ffffffffffffffffffffffffffffffffffffffff16815260200190815260200160002060008781526020019081526020016000205484610c5f9190612ff2565b612726565b5b600660008573ffffffffffffffffffffffffffffffffffffffff1673ffffffffffffffffffffffffffffffffffffffff168152602001908152602001600020600084815260200190815260200160002054600460008673ffffffffffffffffffffffffffffffffffffffff1673ffffffffffffffffffffffffffffffffffffffff16815260200190815260200160002060008581526020019081526020016000206000828254610d1591906130f2565b925050819055506000600660008673ffffffffffffffffffffffffffffffffffffffff1673ffffffffffffffffffffffffffffffffffffffff1681526020019081526020016000206000858152602001908152602001600020819055506000600560008673ffffffffffffffffffffffffffffffffffffffff1673ffffffffffffffffffffffffffffffffffffffff1681526020019081526020016000206000858152602001908152602001600020819055506000600760008673ffffffffffffffffffffffffffffffffffffffff1673ffffffffffffffffffffffffffffffffffffffff168152602001908152602001600020600085815260200190815260200160002060006101000a81548173ffffffffffffffffffffffffffffffffffffffff021916908373ffffffffffffffffffffffffffffffffffffffff16021790555060008054906101000a900473ffffffffffffffffffffffffffffffffffffffff1673ffffffffffffffffffffffffffffffffffffffff166370a08231306040518263ffffffff1660e01b8152600401610eb191906129ab565b602060405180830381865afa158015610ece573d6000803e3d6000fd5b505050506040513d601f19601f82011682018060405250810190610ef29190612f96565b600181905550600c60009054906101000a900473ffffffffffffffffffffffffffffffffffffffff1673ffffffffffffffffffffffffffffffffffffffff1660008054906101000a900473ffffffffffffffffffffffffffffffffffffffff1673ffffffffffffffffffffffffffffffffffffffff1603610ffb57600c60009054906101000a900473ffffffffffffffffffffffffffffffffffffffff1673ffffffffffffffffffffffffffffffffffffffff166322f4d265826040518263ffffffff1660e01b8152600401610fc89190612a1f565b600060405180830381600087803b158015610fe257600080fd5b505af1158015610ff6573d6000803e3d6000fd5b505050505b506001600881905550505050565b60008060009054906101000a900473ffffffffffffffffffffffffffffffffffffffff16905090565b6005602052816000526040600020602052806000526040600020600091509150505481565b6000600460008473ffffffffffffffffffffffffffffffffffffffff1673ffffffffffffffffffffffffffffffffffffffff168152602001908152602001600020600083815260200190815260200160002081905550600c60009054906101000a900473ffffffffffffffffffffffffffffffffffffffff1673ffffffffffffffffffffffffffffffffffffffff1660008054906101000a900473ffffffffffffffffffffffffffffffffffffffff1673ffffffffffffffffffffffffffffffffffffffff16036112eb5760006103e86003546111349190613155565b0361115b57600060038190555060028060008282546111539190613186565b925050819055505b60016003600082825461116e91906130f2565b92505081905550600c60009054906101000a900473ffffffffffffffffffffffffffffffffffffffff1673ffffffffffffffffffffffffffffffffffffffff166322f4d2656003546040518263ffffffff1660e01b81526004016111d29190612a1f565b600060405180830381600087803b1580156111ec57600080fd5b505af1158015611200573d6000803e3d6000fd5b50505050600254600460008473ffffffffffffffffffffffffffffffffffffffff1673ffffffffffffffffffffffffffffffffffffffff168152602001908152602001600020600083815260200190815260200160002081905550600c60009054906101000a900473ffffffffffffffffffffffffffffffffffffffff1673ffffffffffffffffffffffffffffffffffffffff166374240de36002546040518263ffffffff1660e01b81526004016112b89190612a49565b600060405180830381600087803b1580156112d257600080fd5b505af11580156112e6573d6000803e3d6000fd5b505050505b5050565b60015481565b6006602052816000526040600020602052806000526040600020600091509150505481565b6000600460008473ffffffffffffffffffffffffffffffffffffffff1673ffffffffffffffffffffffffffffffffffffffff168152602001908152602001600020600083815260200190815260200160002054905092915050565b6001600854146113ba576040517f08c379a00000000000000000000000000000000000000000000000000000000081526004016113b190612ba3565b60405180910390fd5b6000600881905550600a60009054906101000a900473ffffffffffffffffffffffffffffffffffffffff1673ffffffffffffffffffffffffffffffffffffffff163373ffffffffffffffffffffffffffffffffffffffff1614611452576040517f08c379a000000000000000000000000000000000000000000000000000000000815260040161144990612c0f565b60405180910390fd5b600073ffffffffffffffffffffffffffffffffffffffff168573ffffffffffffffffffffffffffffffffffffffff16036114c1576040517f08c379a00000000000000000000000000000000000000000000000000000000081526004016114b890612c7b565b60405180910390fd5b8473ffffffffffffffffffffffffffffffffffffffff166301ffc9a76380ac58cd6040518263ffffffff1660e01b81526004016114fe9190612d7b565b602060405180830381865afa15801561151b573d6000803e3d6000fd5b505050506040513d601f19601f8201168201806040525081019061153f9190612dce565b61157e576040517f08c379a000000000000000000000000000000000000000000000000000000000815260040161157590612e47565b60405180910390fd5b3073ffffffffffffffffffffffffffffffffffffffff168573ffffffffffffffffffffffffffffffffffffffff16636352211e866040518263ffffffff1660e01b81526004016115ce9190612a49565b602060405180830381865afa1580156115eb573d6000803e3d6000fd5b505050506040513d601f19601f8201168201806040525081019061160f9190612e7c565b73ffffffffffffffffffffffffffffffffffffffff1614611665576040517f08c379a000000000000000000000000000000000000000000000000000000000815260040161165c90613203565b60405180910390fd5b82600460008773ffffffffffffffffffffffffffffffffffffffff1673ffffffffffffffffffffffffffffffffffffffff16815260200190815260200160002060008681526020019081526020016000205410156116f8576040517f08c379a00000000000000000000000000000000000000000000000000000000081526004016116ef90613072565b60405180910390fd5b80421061173a576040517f08c379a000000000000000000000000000000000000000000000000000000000815260040161173190612ce7565b60405180910390fd5b8260008054906101000a900473ffffffffffffffffffffffffffffffffffffffff1673ffffffffffffffffffffffffffffffffffffffff166370a08231306040518263ffffffff1660e01b815260040161179491906129ab565b602060405180830381865afa1580156117b1573d6000803e3d6000fd5b505050506040513d601f19601f820116820180604052508101906117d59190612f96565b1015611816576040517f08c379a000000000000000000000000000000000000000000000000000000000815260040161180d9061326f565b60405180910390fd5b60008054906101000a900473ffffffffffffffffffffffffffffffffffffffff1673ffffffffffffffffffffffffffffffffffffffff1663095ea7b330856040518363ffffffff1660e01b8152600401611871929190613092565b6020604051808303816000875af1158015611890573d6000803e3d6000fd5b505050506040513d601f19601f820116820180604052508101906118b49190612dce565b5060008054906101000a900473ffffffffffffffffffffffffffffffffffffffff1673ffffffffffffffffffffffffffffffffffffffff166323b872dd3084866040518463ffffffff1660e01b8152600401611912939291906130bb565b6020604051808303816000875af1158015611931573d6000803e3d6000fd5b505050506040513d601f19601f820116820180604052508101906119559190612dce565b5082600460008773ffffffffffffffffffffffffffffffffffffffff1673ffffffffffffffffffffffffffffffffffffffff168152602001908152602001600020600086815260200190815260200160002060008282546119b69190612ff2565b9250508190555082600660008773ffffffffffffffffffffffffffffffffffffffff1673ffffffffffffffffffffffffffffffffffffffff16815260200190815260200160002060008681526020019081526020016000208190555081600760008773ffffffffffffffffffffffffffffffffffffffff1673ffffffffffffffffffffffffffffffffffffffff168152602001908152602001600020600086815260200190815260200160002060006101000a81548173ffffffffffffffffffffffffffffffffffffffff021916908373ffffffffffffffffffffffffffffffffffffffff16021790555080600560008773ffffffffffffffffffffffffffffffffffffffff1673ffffffffffffffffffffffffffffffffffffffff16815260200190815260200160002060008681526020019081526020016000208190555060008054906101000a900473ffffffffffffffffffffffffffffffffffffffff1673ffffffffffffffffffffffffffffffffffffffff166370a08231306040518263ffffffff1660e01b8152600401611b4f91906129ab565b602060405180830381865afa158015611b6c573d6000803e3d6000fd5b505050506040513d601f19601f82011682018060405250810190611b909190612f96565b600181905550600c60009054906101000a900473ffffffffffffffffffffffffffffffffffffffff1673ffffffffffffffffffffffffffffffffffffffff1660008054906101000a900473ffffffffffffffffffffffffffffffffffffffff1673ffffffffffffffffffffffffffffffffffffffff1603611ca257600c60009054906101000a900473ffffffffffffffffffffffffffffffffffffffff1673ffffffffffffffffffffffffffffffffffffffff166322f4d26584611c539061328f565b6040518263ffffffff1660e01b8152600401611c6f9190612a1f565b600060405180830381600087803b158015611c8957600080fd5b505af1158015611c9d573d6000803e3d6000fd5b505050505b60016008819055505050505050565b600160085414611cf6576040517f08c379a0000000000000000000000000000000000000000000000000000000008152600401611ced90612ba3565b60405180910390fd5b6000600881905550600073ffffffffffffffffffffffffffffffffffffffff168273ffffffffffffffffffffffffffffffffffffffff1603611d6d576040517f08c379a0000000000000000000000000000000000000000000000000000000008152600401611d6490612c7b565b60405180910390fd5b60008060009054906101000a900473ffffffffffffffffffffffffffffffffffffffff1673ffffffffffffffffffffffffffffffffffffffff166370a08231306040518263ffffffff1660e01b8152600401611dc991906129ab565b602060405180830381865afa158015611de6573d6000803e3d6000fd5b505050506040513d601f19601f82011682018060405250810190611e0a9190612f96565b9050600060015482611e1c9190612ff2565b905060008111611e61576040517f08c379a0000000000000000000000000000000000000000000000000000000008152600401611e5890613323565b60405180910390fd5b80600460008673ffffffffffffffffffffffffffffffffffffffff1673ffffffffffffffffffffffffffffffffffffffff16815260200190815260200160002060008581526020019081526020016000206000828254611ec191906130f2565b9250508190555081600181905550600c60009054906101000a900473ffffffffffffffffffffffffffffffffffffffff1673ffffffffffffffffffffffffffffffffffffffff1660008054906101000a900473ffffffffffffffffffffffffffffffffffffffff1673ffffffffffffffffffffffffffffffffffffffff1603611fd257600c60009054906101000a900473ffffffffffffffffffffffffffffffffffffffff1673ffffffffffffffffffffffffffffffffffffffff166322f4d265826040518263ffffffff1660e01b8152600401611f9f9190612a1f565b600060405180830381600087803b158015611fb957600080fd5b505af1158015611fcd573d6000803e3d6000fd5b505050505b505060016008819055505050565b600b60009054906101000a900473ffffffffffffffffffffffffffffffffffffffff1681565b600a60009054906101000a900473ffffffffffffffffffffffffffffffffffffffff1681565b6004602052816000526040600020602052806000526040600020600091509150505481565b60076020528160005260406000206020528060005260406000206000915091509054906101000a900473ffffffffffffffffffffffffffffffffffffffff1681565b600960009054906101000a900473ffffffffffffffffffffffffffffffffffffffff1681565b6000600154905090565b6000600560008473ffffffffffffffffffffffffffffffffffffffff1673ffffffffffffffffffffffffffffffffffffffff168152602001908152602001600020600083815260200190815260200160002054905092915050565b6000600460008473ffffffffffffffffffffffffffffffffffffffff1673ffffffffffffffffffffffffffffffffffffffff168152602001908152602001600020600083815260200190815260200160002054905092915050565b6000600660008473ffffffffffffffffffffffffffffffffffffffff1673ffffffffffffffffffffffffffffffffffffffff168152602001908152602001600020600083815260200190815260200160002054905092915050565b42600560008473ffffffffffffffffffffffffffffffffffffffff1673ffffffffffffffffffffffffffffffffffffffff16815260200190815260200160002060008381526020019081526020016000205412612266576040517f08c379a000000000000000000000000000000000000000000000000000000000815260040161225d9061338f565b60405180910390fd5b6000600b60009054906101000a900473ffffffffffffffffffffffffffffffffffffffff1690508273ffffffffffffffffffffffffffffffffffffffff1663095ea7b382846040518363ffffffff1660e01b81526004016122c8929190613092565b600060405180830381600087803b1580156122e257600080fd5b505af11580156122f6573d6000803e3d6000fd5b505050508273ffffffffffffffffffffffffffffffffffffffff166342842e0e3083856040518463ffffffff1660e01b8152600401612337939291906130bb565b600060405180830381600087803b15801561235157600080fd5b505af1158015612365573d6000803e3d6000fd5b505050508073ffffffffffffffffffffffffffffffffffffffff1663abb940518484600660008873ffffffffffffffffffffffffffffffffffffffff1673ffffffffffffffffffffffffffffffffffffffff168152602001908152602001600020600087815260200190815260200160002054600460008973ffffffffffffffffffffffffffffffffffffffff1673ffffffffffffffffffffffffffffffffffffffff16815260200190815260200160002060008881526020019081526020016000205461243391906130f2565b6040518463ffffffff1660e01b8152600401612451939291906133af565b600060405180830381600087803b15801561246b57600080fd5b505af115801561247f573d6000803e3d6000fd5b505050507fffffffffffffffffffffffffffffffffffffffffffffffffffffffffffffffff600560008573ffffffffffffffffffffffffffffffffffffffff1673ffffffffffffffffffffffffffffffffffffffff1681526020019081526020016000206000848152602001908152602001600020819055506000600760008573ffffffffffffffffffffffffffffffffffffffff1673ffffffffffffffffffffffffffffffffffffffff168152602001908152602001600020600084815260200190815260200160002060006101000a81548173ffffffffffffffffffffffffffffffffffffffff021916908373ffffffffffffffffffffffffffffffffffffffff160217905550505050565b600960009054906101000a900473ffffffffffffffffffffffffffffffffffffffff1673ffffffffffffffffffffffffffffffffffffffff163373ffffffffffffffffffffffffffffffffffffffff161461261d576040517f08c379a000000000000000000000000000000000000000000000000000000000815260040161261490613432565b60405180910390fd5b836000806101000a81548173ffffffffffffffffffffffffffffffffffffffff021916908373ffffffffffffffffffffffffffffffffffffffff16021790555082600a60006101000a81548173ffffffffffffffffffffffffffffffffffffffff021916908373ffffffffffffffffffffffffffffffffffffffff16021790555081600b60006101000a81548173ffffffffffffffffffffffffffffffffffffffff021916908373ffffffffffffffffffffffffffffffffffffffff16021790555080600c60006101000a81548173ffffffffffffffffffffffffffffffffffffffff021916908373ffffffffffffffffffffffffffffffffffffffff16021790555050505050565b6000808473ffffffffffffffffffffffffffffffffffffffff166040518060400160405280601981526020017f7472616e7366657228616464726573732c75696e743235362900000000000000815250805190602001208585604051602401612790929190613092565b604051602081830303815290604052907bffffffffffffffffffffffffffffffffffffffffffffffffffffffff19166020820180517bffffffffffffffffffffffffffffffffffffffffffffffffffffffff83818316178352505050506040516127fa91906134c3565b6000604051808303816000865af19150503d8060008114612837576040519150601f19603f3d011682016040523d82523d6000602084013e61283c565b606091505b509150915081801561286a57506000815114806128695750808060200190518101906128689190612dce565b5b5b6128a9576040517f08c379a00000000000000000000000000000000000000000000000000000000081526004016128a090613526565b60405180910390fd5b5050505050565b600080fd5b600073ffffffffffffffffffffffffffffffffffffffff82169050919050565b60006128e0826128b5565b9050919050565b6128f0816128d5565b81146128fb57600080fd5b50565b60008135905061290d816128e7565b92915050565b6000819050919050565b61292681612913565b811461293157600080fd5b50565b6000813590506129438161291d565b92915050565b600080600060608486031215612962576129616128b0565b5b6000612970868287016128fe565b935050602061298186828701612934565b9250506040612992868287016128fe565b9150509250925092565b6129a5816128d5565b82525050565b60006020820190506129c0600083018461299c565b92915050565b600080604083850312156129dd576129dc6128b0565b5b60006129eb858286016128fe565b92505060206129fc85828601612934565b9150509250929050565b6000819050919050565b612a1981612a06565b82525050565b6000602082019050612a346000830184612a10565b92915050565b612a4381612913565b82525050565b6000602082019050612a5e6000830184612a3a565b92915050565b600080600080600060a08688031215612a8057612a7f6128b0565b5b6000612a8e888289016128fe565b9550506020612a9f88828901612934565b9450506040612ab088828901612934565b9350506060612ac1888289016128fe565b9250506080612ad288828901612934565b9150509295509295909350565b60008060008060808587031215612af957612af86128b0565b5b6000612b07878288016128fe565b9450506020612b18878288016128fe565b9350506040612b29878288016128fe565b9250506060612b3a878288016128fe565b91505092959194509250565b600082825260208201905092915050565b7f4e4654506f6f6c3a204c4f434b45440000000000000000000000000000000000600082015250565b6000612b8d600f83612b46565b9150612b9882612b57565b602082019050919050565b60006020820190508181036000830152612bbc81612b80565b9050919050565b7f6e6f742062616e6b000000000000000000000000000000000000000000000000600082015250565b6000612bf9600883612b46565b9150612c0482612bc3565b602082019050919050565b60006020820190508181036000830152612c2881612bec565b9050919050565b7f7472616e7366657220746f20746865207a65726f204e46542061646472657373600082015250565b6000612c65602083612b46565b9150612c7082612c2f565b602082019050919050565b60006020820190508181036000830152612c9481612c58565b9050919050565b7f74696d65206572726f7200000000000000000000000000000000000000000000600082015250565b6000612cd1600a83612b46565b9150612cdc82612c9b565b602082019050919050565b60006020820190508181036000830152612d0081612cc4565b9050919050565b6000819050919050565b60007fffffffff0000000000000000000000000000000000000000000000000000000082169050919050565b60008160e01b9050919050565b6000612d65612d60612d5b84612d07565b612d3d565b612d11565b9050919050565b612d7581612d4a565b82525050565b6000602082019050612d906000830184612d6c565b92915050565b60008115159050919050565b612dab81612d96565b8114612db657600080fd5b50565b600081519050612dc881612da2565b92915050565b600060208284031215612de457612de36128b0565b5b6000612df284828501612db9565b91505092915050565b7f6e6f742045524337323100000000000000000000000000000000000000000000600082015250565b6000612e31600a83612b46565b9150612e3c82612dfb565b602082019050919050565b60006020820190508181036000830152612e6081612e24565b9050919050565b600081519050612e76816128e7565b92915050565b600060208284031215612e9257612e916128b0565b5b6000612ea084828501612e67565b91505092915050565b7f6e6f74206e6674206f776e657200000000000000000000000000000000000000600082015250565b6000612edf600d83612b46565b9150612eea82612ea9565b602082019050919050565b60006020820190508181036000830152612f0e81612ed2565b9050919050565b7f6e6f74206f6c64206f776e657200000000000000000000000000000000000000600082015250565b6000612f4b600d83612b46565b9150612f5682612f15565b602082019050919050565b60006020820190508181036000830152612f7a81612f3e565b9050919050565b600081519050612f908161291d565b92915050565b600060208284031215612fac57612fab6128b0565b5b6000612fba84828501612f81565b91505092915050565b7f4e487b7100000000000000000000000000000000000000000000000000000000600052601160045260246000fd5b6000612ffd82612913565b915061300883612913565b92508282039050818111156130205761301f612fc3565b5b92915050565b7f6e6f7420656e6f75676800000000000000000000000000000000000000000000600082015250565b600061305c600a83612b46565b915061306782613026565b602082019050919050565b6000602082019050818103600083015261308b8161304f565b9050919050565b60006040820190506130a7600083018561299c565b6130b46020830184612a3a565b9392505050565b60006060820190506130d0600083018661299c565b6130dd602083018561299c565b6130ea6040830184612a3a565b949350505050565b60006130fd82612913565b915061310883612913565b92508282019050808211156131205761311f612fc3565b5b92915050565b7f4e487b7100000000000000000000000000000000000000000000000000000000600052601260045260246000fd5b600061316082612913565b915061316b83612913565b92508261317b5761317a613126565b5b828206905092915050565b600061319182612913565b915061319c83612913565b9250826131ac576131ab613126565b5b828204905092915050565b7f6e6f74206f776e65720000000000000000000000000000000000000000000000600082015250565b60006131ed600983612b46565b91506131f8826131b7565b602082019050919050565b6000602082019050818103600083015261321c816131e0565b9050919050565b7f4e6f745f456e6f7567685f546f6b656e00000000000000000000000000000000600082015250565b6000613259601083612b46565b915061326482613223565b602082019050919050565b600060208201905081810360008301526132888161324c565b9050919050565b600061329a82612a06565b91507f800000000000000000000000000000000000000000000000000000000000000082036132cc576132cb612fc3565b5b816000039050919050565b7f7472616e7366657220636f756e74203c3d20302e000000000000000000000000600082015250565b600061330d601483612b46565b9150613318826132d7565b602082019050919050565b6000602082019050818103600083015261333c81613300565b9050919050565b7f4e4654506f6f6c3a204e6f742064656661756c74207374617465207965740000600082015250565b6000613379601e83612b46565b915061338482613343565b602082019050919050565b600060208201905081810360008301526133a88161336c565b9050919050565b60006060820190506133c4600083018661299c565b6133d16020830185612a3a565b6133de6040830184612a3a565b949350505050565b7f4e4654506f6f6c3a20464f5242494444454e0000000000000000000000000000600082015250565b600061341c601283612b46565b9150613427826133e6565b602082019050919050565b6000602082019050818103600083015261344b8161340f565b9050919050565b600081519050919050565b600081905092915050565b60005b8381101561348657808201518184015260208101905061346b565b60008484015250505050565b600061349d82613452565b6134a7818561345d565b93506134b7818560208601613468565b80840191505092915050565b60006134cf8284613492565b915081905092915050565b7f4e4654506f6f6c3a205452414e534645525f4641494c45440000000000000000600082015250565b6000613510601883612b46565b915061351b826134da565b602082019050919050565b6000602082019050818103600083015261353f81613503565b905091905056fea26469706673582212203395e4ca96681bf4967f4f17fafaaf2dd2fa28e4c8239fdb41c3a25dc4919e6c64736f6c63430008120033a2646970667358221220d7c13cc3f438cfa7ead9bec99f9956aa364b0254dd4b5a7816561458b5b4289064736f6c63430008120033",
  "linkReferences": {},
  "deployedLinkReferences": {}
}