{
  "_format": "hh-sol-artifact-1",
  "contractName": "NFTPoolFactory",
  "sourceName": "contracts/NFTPoolFactory.sol",
  "abi": [
    {
      "inputs": [
        {
          "internalType": "address",
          "name": "_feeToSetter",
          "type": "address"
        },
        {
          "internalType": "address",
          "name": "_router",
          "type": "address"
        },
        {
          "internalType": "address",
          "name": "_nftVault",
          "type": "address"
        }
      ],
      "stateMutability": "nonpayable",
      "type": "constructor"
    },
    {
      "anonymous": false,
      "inputs": [
        {
          "indexed": true,
          "internalType": "address",
          "name": "token0",
          "type": "address"
        },
        {
          "indexed": false,
          "internalType": "address",
          "name": "pair",
          "type": "address"
        },
        {
          "indexed": false,
          "internalType": "uint256",
          "name": "",
          "type": "uint256"
        }
      ],
      "name": "PoolCreated",
      "type": "event"
    },
    {
      "inputs": [],
      "name": "INIT_CODE_PAIR_HASH",
      "outputs": [
        {
          "internalType": "bytes32",
          "name": "",
          "type": "bytes32"
        }
      ],
      "stateMutability": "view",
      "type": "function"
    },
    {
      "inputs": [
        {
          "internalType": "uint256",
          "name": "",
          "type": "uint256"
        }
      ],
      "name": "allPools",
      "outputs": [
        {
          "internalType": "address",
          "name": "",
          "type": "address"
        }
      ],
      "stateMutability": "view",
      "type": "function"
    },
    {
      "inputs": [],
      "name": "allPoolsLength",
      "outputs": [
        {
          "internalType": "uint256",
          "name": "",
          "type": "uint256"
        }
      ],
      "stateMutability": "view",
      "type": "function"
    },
    {
      "inputs": [
        {
          "internalType": "address",
          "name": "token",
          "type": "address"
        },
        {
          "internalType": "address",
          "name": "nftAuction",
          "type": "address"
        }
      ],
      "name": "createPool",
      "outputs": [
        {
          "internalType": "address",
          "name": "pool",
          "type": "address"
        }
      ],
      "stateMutability": "nonpayable",
      "type": "function"
    },
    {
      "inputs": [],
      "name": "feeTo",
      "outputs": [
        {
          "internalType": "address",
          "name": "",
          "type": "address"
        }
      ],
      "stateMutability": "view",
      "type": "function"
    },
    {
      "inputs": [],
      "name": "feeToSetter",
      "outputs": [
        {
          "internalType": "address",
          "name": "",
          "type": "address"
        }
      ],
      "stateMutability": "view",
      "type": "function"
    },
    {
      "inputs": [
        {
          "internalType": "address",
          "name": "",
          "type": "address"
        }
      ],
      "name": "getPool",
      "outputs": [
        {
          "internalType": "address",
          "name": "",
          "type": "address"
        }
      ],
      "stateMutability": "view",
      "type": "function"
    },
    {
      "inputs": [
        {
          "internalType": "address",
          "name": "token",
          "type": "address"
        }
      ],
      "name": "getPoolByToken",
      "outputs": [
        {
          "internalType": "address",
          "name": "",
          "type": "address"
        }
      ],
      "stateMutability": "view",
      "type": "function"
    },
    {
      "inputs": [],
      "name": "nftVault",
      "outputs": [
        {
          "internalType": "address",
          "name": "",
          "type": "address"
        }
      ],
      "stateMutability": "view",
      "type": "function"
    },
    {
      "inputs": [],
      "name": "router",
      "outputs": [
        {
          "internalType": "address",
          "name": "",
          "type": "address"
        }
      ],
      "stateMutability": "view",
      "type": "function"
    },
    {
      "inputs": [
        {
          "internalType": "address",
          "name": "_feeTo",
          "type": "address"
        }
      ],
      "name": "setFeeTo",
      "outputs": [],
      "stateMutability": "nonpayable",
      "type": "function"
    },
    {
      "inputs": [
        {
          "internalType": "address",
          "name": "_feeToSetter",
          "type": "address"
        }
      ],
      "name": "setFeeToSetter",
      "outputs": [],
      "stateMutability": "nonpayable",
      "type": "function"
    }
  ],
  "bytecode": "0x608060405234801561001057600080fd5b50604051620040d6380380620040d683398181016040528101906100349190610162565b82600160006101000a81548173ffffffffffffffffffffffffffffffffffffffff021916908373ffffffffffffffffffffffffffffffffffffffff16021790555081600260006101000a81548173ffffffffffffffffffffffffffffffffffffffff021916908373ffffffffffffffffffffffffffffffffffffffff16021790555080600560006101000a81548173ffffffffffffffffffffffffffffffffffffffff021916908373ffffffffffffffffffffffffffffffffffffffff1602179055505050506101b5565b600080fd5b600073ffffffffffffffffffffffffffffffffffffffff82169050919050565b600061012f82610104565b9050919050565b61013f81610124565b811461014a57600080fd5b50565b60008151905061015c81610136565b92915050565b60008060006060848603121561017b5761017a6100ff565b5b60006101898682870161014d565b935050602061019a8682870161014d565b92505060406101ab8682870161014d565b9150509250925092565b613f1180620001c56000396000f3fe608060405234801561001057600080fd5b50600436106100b45760003560e01c8063bbe4f6db11610071578063bbe4f6db1461018f578063dbfb7d81146101bf578063e3433615146101dd578063efde4e641461020d578063f46901ed1461022b578063f887ea4014610247576100b4565b8063017e7e58146100b9578063094b7415146100d757806341d1de97146100f55780635855a25a14610125578063a2e74af614610143578063bbadc03b1461015f575b600080fd5b6100c1610265565b6040516100ce9190610878565b60405180910390f35b6100df610289565b6040516100ec9190610878565b60405180910390f35b61010f600480360381019061010a91906108ce565b6102af565b60405161011c9190610878565b60405180910390f35b61012d6102ee565b60405161013a9190610914565b60405180910390f35b61015d6004803603810190610158919061095b565b61033b565b005b6101796004803603810190610174919061095b565b61040f565b6040516101869190610878565b60405180910390f35b6101a960048036038101906101a4919061095b565b610478565b6040516101b69190610878565b60405180910390f35b6101c76104ab565b6040516101d49190610878565b60405180910390f35b6101f760048036038101906101f29190610988565b6104d1565b6040516102049190610878565b60405180910390f35b610215610724565b60405161022291906109d7565b60405180910390f35b6102456004803603810190610240919061095b565b610731565b005b61024f610804565b60405161025c9190610878565b60405180910390f35b60008054906101000a900473ffffffffffffffffffffffffffffffffffffffff1681565b600160009054906101000a900473ffffffffffffffffffffffffffffffffffffffff1681565b600481815481106102bf57600080fd5b906000526020600020016000915054906101000a900473ffffffffffffffffffffffffffffffffffffffff1681565b604051806020016102fe9061082a565b6020820181038252601f19601f820116604052506040516020016103229190610a63565b6040516020818303038152906040528051906020012081565b600160009054906101000a900473ffffffffffffffffffffffffffffffffffffffff1673ffffffffffffffffffffffffffffffffffffffff163373ffffffffffffffffffffffffffffffffffffffff16146103cb576040517f08c379a00000000000000000000000000000000000000000000000000000000081526004016103c290610ad7565b60405180910390fd5b80600160006101000a81548173ffffffffffffffffffffffffffffffffffffffff021916908373ffffffffffffffffffffffffffffffffffffffff16021790555050565b6000600360008373ffffffffffffffffffffffffffffffffffffffff1673ffffffffffffffffffffffffffffffffffffffff16815260200190815260200160002060009054906101000a900473ffffffffffffffffffffffffffffffffffffffff169050919050565b60036020528060005260406000206000915054906101000a900473ffffffffffffffffffffffffffffffffffffffff1681565b600560009054906101000a900473ffffffffffffffffffffffffffffffffffffffff1681565b600080604051806020016104e49061082a565b6020820181038252601f19601f82011660405250905060008460405160200161050d9190610b3f565b604051602081830303815290604052805190602001209050808251602084016000f592508273ffffffffffffffffffffffffffffffffffffffff1663f8c8765e86600260009054906101000a900473ffffffffffffffffffffffffffffffffffffffff1687600560009054906101000a900473ffffffffffffffffffffffffffffffffffffffff166040518563ffffffff1660e01b81526004016105b49493929190610b5a565b600060405180830381600087803b1580156105ce57600080fd5b505af11580156105e2573d6000803e3d6000fd5b5050505082600360008773ffffffffffffffffffffffffffffffffffffffff1673ffffffffffffffffffffffffffffffffffffffff16815260200190815260200160002060006101000a81548173ffffffffffffffffffffffffffffffffffffffff021916908373ffffffffffffffffffffffffffffffffffffffff1602179055506004839080600181540180825580915050600190039060005260206000200160009091909190916101000a81548173ffffffffffffffffffffffffffffffffffffffff021916908373ffffffffffffffffffffffffffffffffffffffff1602179055508473ffffffffffffffffffffffffffffffffffffffff167ff8a0462f666b427ea753848be7e91f9ce413975906f6f39950be296ca9a4d52484600480549050604051610714929190610b9f565b60405180910390a2505092915050565b6000600480549050905090565b600160009054906101000a900473ffffffffffffffffffffffffffffffffffffffff1673ffffffffffffffffffffffffffffffffffffffff163373ffffffffffffffffffffffffffffffffffffffff16146107c1576040517f08c379a00000000000000000000000000000000000000000000000000000000081526004016107b890610ad7565b60405180910390fd5b806000806101000a81548173ffffffffffffffffffffffffffffffffffffffff021916908373ffffffffffffffffffffffffffffffffffffffff16021790555050565b600260009054906101000a900473ffffffffffffffffffffffffffffffffffffffff1681565b61331380610bc983390190565b600073ffffffffffffffffffffffffffffffffffffffff82169050919050565b600061086282610837565b9050919050565b61087281610857565b82525050565b600060208201905061088d6000830184610869565b92915050565b600080fd5b6000819050919050565b6108ab81610898565b81146108b657600080fd5b50565b6000813590506108c8816108a2565b92915050565b6000602082840312156108e4576108e3610893565b5b60006108f2848285016108b9565b91505092915050565b6000819050919050565b61090e816108fb565b82525050565b60006020820190506109296000830184610905565b92915050565b61093881610857565b811461094357600080fd5b50565b6000813590506109558161092f565b92915050565b60006020828403121561097157610970610893565b5b600061097f84828501610946565b91505092915050565b6000806040838503121561099f5761099e610893565b5b60006109ad85828601610946565b92505060206109be85828601610946565b9150509250929050565b6109d181610898565b82525050565b60006020820190506109ec60008301846109c8565b92915050565b600081519050919050565b600081905092915050565b60005b83811015610a26578082015181840152602081019050610a0b565b60008484015250505050565b6000610a3d826109f2565b610a4781856109fd565b9350610a57818560208601610a08565b80840191505092915050565b6000610a6f8284610a32565b915081905092915050565b600082825260208201905092915050565b7f556e697377617056323a20464f5242494444454e000000000000000000000000600082015250565b6000610ac1601483610a7a565b9150610acc82610a8b565b602082019050919050565b60006020820190508181036000830152610af081610ab4565b9050919050565b60008160601b9050919050565b6000610b0f82610af7565b9050919050565b6000610b2182610b04565b9050919050565b610b39610b3482610857565b610b16565b82525050565b6000610b4b8284610b28565b60148201915081905092915050565b6000608082019050610b6f6000830187610869565b610b7c6020830186610869565b610b896040830185610869565b610b966060830184610869565b95945050505050565b6000604082019050610bb46000830185610869565b610bc160208301846109c8565b939250505056fe6080604052600160065534801561001557600080fd5b5033600760006101000a81548173ffffffffffffffffffffffffffffffffffffffff021916908373ffffffffffffffffffffffffffffffffffffffff1602179055506132ad806100666000396000f3fe6080604052600436106101235760003560e01c806376cdb03b116100a0578063d56e9fbe11610064578063d56e9fbe14610403578063e4d5267914610440578063e5b033941461047d578063f4fee51c146104ba578063f8c8765e146104e35761012a565b806376cdb03b146103085780638e900e3a14610333578063b603c7d014610370578063c45a0155146103ad578063c4e41b22146103d85761012a565b80631fb479ec116100e75780631fb479ec14610211578063237966981461024e578063312e63fd1461028b578063433463c0146102b45780635476ea9e146102dd5761012a565b80630ed6ebc81461012c57806310fe9ae81461015557806315d99d641461018057806317a6b609146101bd57806318160ddd146101e65761012a565b3661012a57005b005b34801561013857600080fd5b50610153600480360381019061014e919061270b565b61050c565b005b34801561016157600080fd5b5061016a611009565b604051610177919061276d565b60405180910390f35b34801561018c57600080fd5b506101a760048036038101906101a29190612788565b611032565b6040516101b491906127e1565b60405180910390f35b3480156101c957600080fd5b506101e460048036038101906101df9190612788565b611057565b005b3480156101f257600080fd5b506101fb6110b1565b604051610208919061280b565b60405180910390f35b34801561021d57600080fd5b5061023860048036038101906102339190612788565b6110b7565b604051610245919061280b565b60405180910390f35b34801561025a57600080fd5b5061027560048036038101906102709190612788565b6110dc565b604051610282919061280b565b60405180910390f35b34801561029757600080fd5b506102b260048036038101906102ad9190612826565b611137565b005b3480156102c057600080fd5b506102db60048036038101906102d69190612788565b611a73565b005b3480156102e957600080fd5b506102f2611da2565b6040516102ff919061276d565b60405180910390f35b34801561031457600080fd5b5061031d611dc8565b60405161032a919061276d565b60405180910390f35b34801561033f57600080fd5b5061035a60048036038101906103559190612788565b611dee565b604051610367919061280b565b60405180910390f35b34801561037c57600080fd5b5061039760048036038101906103929190612788565b611e13565b6040516103a4919061276d565b60405180910390f35b3480156103b957600080fd5b506103c2611e55565b6040516103cf919061276d565b60405180910390f35b3480156103e457600080fd5b506103ed611e7b565b6040516103fa919061280b565b60405180910390f35b34801561040f57600080fd5b5061042a60048036038101906104259190612788565b611e85565b60405161043791906127e1565b60405180910390f35b34801561044c57600080fd5b5061046760048036038101906104629190612788565b611ee0565b604051610474919061280b565b60405180910390f35b34801561048957600080fd5b506104a4600480360381019061049f9190612788565b611f3b565b6040516104b1919061280b565b60405180910390f35b3480156104c657600080fd5b506104e160048036038101906104dc9190612788565b611f96565b005b3480156104ef57600080fd5b5061050a600480360381019061050591906128a1565b61234f565b005b600160065414610551576040517f08c379a000000000000000000000000000000000000000000000000000000000815260040161054890612965565b60405180910390fd5b6000600681905550600860009054906101000a900473ffffffffffffffffffffffffffffffffffffffff1673ffffffffffffffffffffffffffffffffffffffff163373ffffffffffffffffffffffffffffffffffffffff16146105e9576040517f08c379a00000000000000000000000000000000000000000000000000000000081526004016105e0906129d1565b60405180910390fd5b600073ffffffffffffffffffffffffffffffffffffffff168373ffffffffffffffffffffffffffffffffffffffff1603610658576040517f08c379a000000000000000000000000000000000000000000000000000000000815260040161064f90612a3d565b60405180910390fd5b42600360008573ffffffffffffffffffffffffffffffffffffffff1673ffffffffffffffffffffffffffffffffffffffff168152602001908152602001600020600084815260200190815260200160002054136106ea576040517f08c379a00000000000000000000000000000000000000000000000000000000081526004016106e190612aa9565b60405180910390fd5b8273ffffffffffffffffffffffffffffffffffffffff166301ffc9a76380ac58cd6040518263ffffffff1660e01b81526004016107279190612b3d565b602060405180830381865afa158015610744573d6000803e3d6000fd5b505050506040513d601f19601f820116820180604052508101906107689190612b90565b6107a7576040517f08c379a000000000000000000000000000000000000000000000000000000000815260040161079e90612c09565b60405180910390fd5b3073ffffffffffffffffffffffffffffffffffffffff168373ffffffffffffffffffffffffffffffffffffffff16636352211e846040518263ffffffff1660e01b81526004016107f7919061280b565b602060405180830381865afa158015610814573d6000803e3d6000fd5b505050506040513d601f19601f820116820180604052508101906108389190612c3e565b73ffffffffffffffffffffffffffffffffffffffff161461088e576040517f08c379a000000000000000000000000000000000000000000000000000000000815260040161088590612cb7565b60405180910390fd5b8073ffffffffffffffffffffffffffffffffffffffff16600560008573ffffffffffffffffffffffffffffffffffffffff1673ffffffffffffffffffffffffffffffffffffffff168152602001908152602001600020600084815260200190815260200160002060009054906101000a900473ffffffffffffffffffffffffffffffffffffffff1673ffffffffffffffffffffffffffffffffffffffff161461096c576040517f08c379a000000000000000000000000000000000000000000000000000000000815260040161096390612d23565b60405180910390fd5b600060015460008054906101000a900473ffffffffffffffffffffffffffffffffffffffff1673ffffffffffffffffffffffffffffffffffffffff166370a08231306040518263ffffffff1660e01b81526004016109ca919061276d565b602060405180830381865afa1580156109e7573d6000803e3d6000fd5b505050506040513d601f19601f82011682018060405250810190610a0b9190612d58565b610a159190612db4565b9050600460008573ffffffffffffffffffffffffffffffffffffffff1673ffffffffffffffffffffffffffffffffffffffff168152602001908152602001600020600084815260200190815260200160002054811015610aaa576040517f08c379a0000000000000000000000000000000000000000000000000000000008152600401610aa190612e34565b60405180910390fd5b8373ffffffffffffffffffffffffffffffffffffffff1663095ea7b383856040518363ffffffff1660e01b8152600401610ae5929190612e54565b600060405180830381600087803b158015610aff57600080fd5b505af1158015610b13573d6000803e3d6000fd5b505050508373ffffffffffffffffffffffffffffffffffffffff166342842e0e3084866040518463ffffffff1660e01b8152600401610b5493929190612e7d565b600060405180830381600087803b158015610b6e57600080fd5b505af1158015610b82573d6000803e3d6000fd5b50505050600460008573ffffffffffffffffffffffffffffffffffffffff1673ffffffffffffffffffffffffffffffffffffffff168152602001908152602001600020600084815260200190815260200160002054811115610c6557610c6460008054906101000a900473ffffffffffffffffffffffffffffffffffffffff1683600460008873ffffffffffffffffffffffffffffffffffffffff1673ffffffffffffffffffffffffffffffffffffffff16815260200190815260200160002060008781526020019081526020016000205484610c5f9190612db4565b6124e8565b5b600460008573ffffffffffffffffffffffffffffffffffffffff1673ffffffffffffffffffffffffffffffffffffffff168152602001908152602001600020600084815260200190815260200160002054600260008673ffffffffffffffffffffffffffffffffffffffff1673ffffffffffffffffffffffffffffffffffffffff16815260200190815260200160002060008581526020019081526020016000206000828254610d159190612eb4565b925050819055506000600460008673ffffffffffffffffffffffffffffffffffffffff1673ffffffffffffffffffffffffffffffffffffffff1681526020019081526020016000206000858152602001908152602001600020819055506000600360008673ffffffffffffffffffffffffffffffffffffffff1673ffffffffffffffffffffffffffffffffffffffff1681526020019081526020016000206000858152602001908152602001600020819055506000600560008673ffffffffffffffffffffffffffffffffffffffff1673ffffffffffffffffffffffffffffffffffffffff168152602001908152602001600020600085815260200190815260200160002060006101000a81548173ffffffffffffffffffffffffffffffffffffffff021916908373ffffffffffffffffffffffffffffffffffffffff16021790555060008054906101000a900473ffffffffffffffffffffffffffffffffffffffff1673ffffffffffffffffffffffffffffffffffffffff166370a08231306040518263ffffffff1660e01b8152600401610eb1919061276d565b602060405180830381865afa158015610ece573d6000803e3d6000fd5b505050506040513d601f19601f82011682018060405250810190610ef29190612d58565b600181905550600a60009054906101000a900473ffffffffffffffffffffffffffffffffffffffff1673ffffffffffffffffffffffffffffffffffffffff1660008054906101000a900473ffffffffffffffffffffffffffffffffffffffff1673ffffffffffffffffffffffffffffffffffffffff1603610ffb57600a60009054906101000a900473ffffffffffffffffffffffffffffffffffffffff1673ffffffffffffffffffffffffffffffffffffffff166322f4d265826040518263ffffffff1660e01b8152600401610fc891906127e1565b600060405180830381600087803b158015610fe257600080fd5b505af1158015610ff6573d6000803e3d6000fd5b505050505b506001600681905550505050565b60008060009054906101000a900473ffffffffffffffffffffffffffffffffffffffff16905090565b6003602052816000526040600020602052806000526040600020600091509150505481565b6000600260008473ffffffffffffffffffffffffffffffffffffffff1673ffffffffffffffffffffffffffffffffffffffff1681526020019081526020016000206000838152602001908152602001600020819055505050565b60015481565b6004602052816000526040600020602052806000526040600020600091509150505481565b6000600260008473ffffffffffffffffffffffffffffffffffffffff1673ffffffffffffffffffffffffffffffffffffffff168152602001908152602001600020600083815260200190815260200160002054905092915050565b60016006541461117c576040517f08c379a000000000000000000000000000000000000000000000000000000000815260040161117390612965565b60405180910390fd5b6000600681905550600860009054906101000a900473ffffffffffffffffffffffffffffffffffffffff1673ffffffffffffffffffffffffffffffffffffffff163373ffffffffffffffffffffffffffffffffffffffff1614611214576040517f08c379a000000000000000000000000000000000000000000000000000000000815260040161120b906129d1565b60405180910390fd5b600073ffffffffffffffffffffffffffffffffffffffff168573ffffffffffffffffffffffffffffffffffffffff1603611283576040517f08c379a000000000000000000000000000000000000000000000000000000000815260040161127a90612a3d565b60405180910390fd5b8473ffffffffffffffffffffffffffffffffffffffff166301ffc9a76380ac58cd6040518263ffffffff1660e01b81526004016112c09190612b3d565b602060405180830381865afa1580156112dd573d6000803e3d6000fd5b505050506040513d601f19601f820116820180604052508101906113019190612b90565b611340576040517f08c379a000000000000000000000000000000000000000000000000000000000815260040161133790612c09565b60405180910390fd5b3073ffffffffffffffffffffffffffffffffffffffff168573ffffffffffffffffffffffffffffffffffffffff16636352211e866040518263ffffffff1660e01b8152600401611390919061280b565b602060405180830381865afa1580156113ad573d6000803e3d6000fd5b505050506040513d601f19601f820116820180604052508101906113d19190612c3e565b73ffffffffffffffffffffffffffffffffffffffff1614611427576040517f08c379a000000000000000000000000000000000000000000000000000000000815260040161141e90612f34565b60405180910390fd5b82600260008773ffffffffffffffffffffffffffffffffffffffff1673ffffffffffffffffffffffffffffffffffffffff16815260200190815260200160002060008681526020019081526020016000205410156114ba576040517f08c379a00000000000000000000000000000000000000000000000000000000081526004016114b190612e34565b60405180910390fd5b8042106114fc576040517f08c379a00000000000000000000000000000000000000000000000000000000081526004016114f390612aa9565b60405180910390fd5b8260008054906101000a900473ffffffffffffffffffffffffffffffffffffffff1673ffffffffffffffffffffffffffffffffffffffff166370a08231306040518263ffffffff1660e01b8152600401611556919061276d565b602060405180830381865afa158015611573573d6000803e3d6000fd5b505050506040513d601f19601f820116820180604052508101906115979190612d58565b10156115d8576040517f08c379a00000000000000000000000000000000000000000000000000000000081526004016115cf90612fa0565b60405180910390fd5b60008054906101000a900473ffffffffffffffffffffffffffffffffffffffff1673ffffffffffffffffffffffffffffffffffffffff1663095ea7b330856040518363ffffffff1660e01b8152600401611633929190612e54565b6020604051808303816000875af1158015611652573d6000803e3d6000fd5b505050506040513d601f19601f820116820180604052508101906116769190612b90565b5060008054906101000a900473ffffffffffffffffffffffffffffffffffffffff1673ffffffffffffffffffffffffffffffffffffffff166323b872dd3084866040518463ffffffff1660e01b81526004016116d493929190612e7d565b6020604051808303816000875af11580156116f3573d6000803e3d6000fd5b505050506040513d601f19601f820116820180604052508101906117179190612b90565b5082600260008773ffffffffffffffffffffffffffffffffffffffff1673ffffffffffffffffffffffffffffffffffffffff168152602001908152602001600020600086815260200190815260200160002060008282546117789190612db4565b9250508190555082600460008773ffffffffffffffffffffffffffffffffffffffff1673ffffffffffffffffffffffffffffffffffffffff16815260200190815260200160002060008681526020019081526020016000208190555081600560008773ffffffffffffffffffffffffffffffffffffffff1673ffffffffffffffffffffffffffffffffffffffff168152602001908152602001600020600086815260200190815260200160002060006101000a81548173ffffffffffffffffffffffffffffffffffffffff021916908373ffffffffffffffffffffffffffffffffffffffff16021790555080600360008773ffffffffffffffffffffffffffffffffffffffff1673ffffffffffffffffffffffffffffffffffffffff16815260200190815260200160002060008681526020019081526020016000208190555060008054906101000a900473ffffffffffffffffffffffffffffffffffffffff1673ffffffffffffffffffffffffffffffffffffffff166370a08231306040518263ffffffff1660e01b8152600401611911919061276d565b602060405180830381865afa15801561192e573d6000803e3d6000fd5b505050506040513d601f19601f820116820180604052508101906119529190612d58565b600181905550600a60009054906101000a900473ffffffffffffffffffffffffffffffffffffffff1673ffffffffffffffffffffffffffffffffffffffff1660008054906101000a900473ffffffffffffffffffffffffffffffffffffffff1673ffffffffffffffffffffffffffffffffffffffff1603611a6457600a60009054906101000a900473ffffffffffffffffffffffffffffffffffffffff1673ffffffffffffffffffffffffffffffffffffffff166322f4d26584611a1590612fc0565b6040518263ffffffff1660e01b8152600401611a3191906127e1565b600060405180830381600087803b158015611a4b57600080fd5b505af1158015611a5f573d6000803e3d6000fd5b505050505b60016006819055505050505050565b600160065414611ab8576040517f08c379a0000000000000000000000000000000000000000000000000000000008152600401611aaf90612965565b60405180910390fd5b6000600681905550600073ffffffffffffffffffffffffffffffffffffffff168273ffffffffffffffffffffffffffffffffffffffff1603611b2f576040517f08c379a0000000000000000000000000000000000000000000000000000000008152600401611b2690612a3d565b60405180910390fd5b60008060009054906101000a900473ffffffffffffffffffffffffffffffffffffffff1673ffffffffffffffffffffffffffffffffffffffff166370a08231306040518263ffffffff1660e01b8152600401611b8b919061276d565b602060405180830381865afa158015611ba8573d6000803e3d6000fd5b505050506040513d601f19601f82011682018060405250810190611bcc9190612d58565b9050600060015482611bde9190612db4565b905060008111611c23576040517f08c379a0000000000000000000000000000000000000000000000000000000008152600401611c1a90613054565b60405180910390fd5b80600260008673ffffffffffffffffffffffffffffffffffffffff1673ffffffffffffffffffffffffffffffffffffffff16815260200190815260200160002060008581526020019081526020016000206000828254611c839190612eb4565b9250508190555081600181905550600a60009054906101000a900473ffffffffffffffffffffffffffffffffffffffff1673ffffffffffffffffffffffffffffffffffffffff1660008054906101000a900473ffffffffffffffffffffffffffffffffffffffff1673ffffffffffffffffffffffffffffffffffffffff1603611d9457600a60009054906101000a900473ffffffffffffffffffffffffffffffffffffffff1673ffffffffffffffffffffffffffffffffffffffff166322f4d265826040518263ffffffff1660e01b8152600401611d6191906127e1565b600060405180830381600087803b158015611d7b57600080fd5b505af1158015611d8f573d6000803e3d6000fd5b505050505b505060016006819055505050565b600960009054906101000a900473ffffffffffffffffffffffffffffffffffffffff1681565b600860009054906101000a900473ffffffffffffffffffffffffffffffffffffffff1681565b6002602052816000526040600020602052806000526040600020600091509150505481565b60056020528160005260406000206020528060005260406000206000915091509054906101000a900473ffffffffffffffffffffffffffffffffffffffff1681565b600760009054906101000a900473ffffffffffffffffffffffffffffffffffffffff1681565b6000600154905090565b6000600360008473ffffffffffffffffffffffffffffffffffffffff1673ffffffffffffffffffffffffffffffffffffffff168152602001908152602001600020600083815260200190815260200160002054905092915050565b6000600260008473ffffffffffffffffffffffffffffffffffffffff1673ffffffffffffffffffffffffffffffffffffffff168152602001908152602001600020600083815260200190815260200160002054905092915050565b6000600460008473ffffffffffffffffffffffffffffffffffffffff1673ffffffffffffffffffffffffffffffffffffffff168152602001908152602001600020600083815260200190815260200160002054905092915050565b42600360008473ffffffffffffffffffffffffffffffffffffffff1673ffffffffffffffffffffffffffffffffffffffff16815260200190815260200160002060008381526020019081526020016000205412612028576040517f08c379a000000000000000000000000000000000000000000000000000000000815260040161201f906130c0565b60405180910390fd5b6000600960009054906101000a900473ffffffffffffffffffffffffffffffffffffffff1690508273ffffffffffffffffffffffffffffffffffffffff1663095ea7b382846040518363ffffffff1660e01b815260040161208a929190612e54565b600060405180830381600087803b1580156120a457600080fd5b505af11580156120b8573d6000803e3d6000fd5b505050508273ffffffffffffffffffffffffffffffffffffffff166342842e0e3083856040518463ffffffff1660e01b81526004016120f993929190612e7d565b600060405180830381600087803b15801561211357600080fd5b505af1158015612127573d6000803e3d6000fd5b505050508073ffffffffffffffffffffffffffffffffffffffff1663abb940518484600460008873ffffffffffffffffffffffffffffffffffffffff1673ffffffffffffffffffffffffffffffffffffffff168152602001908152602001600020600087815260200190815260200160002054600260008973ffffffffffffffffffffffffffffffffffffffff1673ffffffffffffffffffffffffffffffffffffffff1681526020019081526020016000206000888152602001908152602001600020546121f59190612eb4565b6040518463ffffffff1660e01b8152600401612213939291906130e0565b600060405180830381600087803b15801561222d57600080fd5b505af1158015612241573d6000803e3d6000fd5b505050507fffffffffffffffffffffffffffffffffffffffffffffffffffffffffffffffff600360008573ffffffffffffffffffffffffffffffffffffffff1673ffffffffffffffffffffffffffffffffffffffff1681526020019081526020016000206000848152602001908152602001600020819055506000600560008573ffffffffffffffffffffffffffffffffffffffff1673ffffffffffffffffffffffffffffffffffffffff168152602001908152602001600020600084815260200190815260200160002060006101000a81548173ffffffffffffffffffffffffffffffffffffffff021916908373ffffffffffffffffffffffffffffffffffffffff160217905550505050565b600760009054906101000a900473ffffffffffffffffffffffffffffffffffffffff1673ffffffffffffffffffffffffffffffffffffffff163373ffffffffffffffffffffffffffffffffffffffff16146123df576040517f08c379a00000000000000000000000000000000000000000000000000000000081526004016123d690613163565b60405180910390fd5b836000806101000a81548173ffffffffffffffffffffffffffffffffffffffff021916908373ffffffffffffffffffffffffffffffffffffffff16021790555082600860006101000a81548173ffffffffffffffffffffffffffffffffffffffff021916908373ffffffffffffffffffffffffffffffffffffffff16021790555081600960006101000a81548173ffffffffffffffffffffffffffffffffffffffff021916908373ffffffffffffffffffffffffffffffffffffffff16021790555080600a60006101000a81548173ffffffffffffffffffffffffffffffffffffffff021916908373ffffffffffffffffffffffffffffffffffffffff16021790555050505050565b6000808473ffffffffffffffffffffffffffffffffffffffff166040518060400160405280601981526020017f7472616e7366657228616464726573732c75696e743235362900000000000000815250805190602001208585604051602401612552929190612e54565b604051602081830303815290604052907bffffffffffffffffffffffffffffffffffffffffffffffffffffffff19166020820180517bffffffffffffffffffffffffffffffffffffffffffffffffffffffff83818316178352505050506040516125bc91906131f4565b6000604051808303816000865af19150503d80600081146125f9576040519150601f19603f3d011682016040523d82523d6000602084013e6125fe565b606091505b509150915081801561262c575060008151148061262b57508080602001905181019061262a9190612b90565b5b5b61266b576040517f08c379a000000000000000000000000000000000000000000000000000000000815260040161266290613257565b60405180910390fd5b5050505050565b600080fd5b600073ffffffffffffffffffffffffffffffffffffffff82169050919050565b60006126a282612677565b9050919050565b6126b281612697565b81146126bd57600080fd5b50565b6000813590506126cf816126a9565b92915050565b6000819050919050565b6126e8816126d5565b81146126f357600080fd5b50565b600081359050612705816126df565b92915050565b60008060006060848603121561272457612723612672565b5b6000612732868287016126c0565b9350506020612743868287016126f6565b9250506040612754868287016126c0565b9150509250925092565b61276781612697565b82525050565b6000602082019050612782600083018461275e565b92915050565b6000806040838503121561279f5761279e612672565b5b60006127ad858286016126c0565b92505060206127be858286016126f6565b9150509250929050565b6000819050919050565b6127db816127c8565b82525050565b60006020820190506127f660008301846127d2565b92915050565b612805816126d5565b82525050565b600060208201905061282060008301846127fc565b92915050565b600080600080600060a0868803121561284257612841612672565b5b6000612850888289016126c0565b9550506020612861888289016126f6565b9450506040612872888289016126f6565b9350506060612883888289016126c0565b9250506080612894888289016126f6565b9150509295509295909350565b600080600080608085870312156128bb576128ba612672565b5b60006128c9878288016126c0565b94505060206128da878288016126c0565b93505060406128eb878288016126c0565b92505060606128fc878288016126c0565b91505092959194509250565b600082825260208201905092915050565b7f4e4654506f6f6c3a204c4f434b45440000000000000000000000000000000000600082015250565b600061294f600f83612908565b915061295a82612919565b602082019050919050565b6000602082019050818103600083015261297e81612942565b9050919050565b7f6e6f742062616e6b000000000000000000000000000000000000000000000000600082015250565b60006129bb600883612908565b91506129c682612985565b602082019050919050565b600060208201905081810360008301526129ea816129ae565b9050919050565b7f7472616e7366657220746f20746865207a65726f204e46542061646472657373600082015250565b6000612a27602083612908565b9150612a32826129f1565b602082019050919050565b60006020820190508181036000830152612a5681612a1a565b9050919050565b7f74696d65206572726f7200000000000000000000000000000000000000000000600082015250565b6000612a93600a83612908565b9150612a9e82612a5d565b602082019050919050565b60006020820190508181036000830152612ac281612a86565b9050919050565b6000819050919050565b60007fffffffff0000000000000000000000000000000000000000000000000000000082169050919050565b60008160e01b9050919050565b6000612b27612b22612b1d84612ac9565b612aff565b612ad3565b9050919050565b612b3781612b0c565b82525050565b6000602082019050612b526000830184612b2e565b92915050565b60008115159050919050565b612b6d81612b58565b8114612b7857600080fd5b50565b600081519050612b8a81612b64565b92915050565b600060208284031215612ba657612ba5612672565b5b6000612bb484828501612b7b565b91505092915050565b7f6e6f742045524337323100000000000000000000000000000000000000000000600082015250565b6000612bf3600a83612908565b9150612bfe82612bbd565b602082019050919050565b60006020820190508181036000830152612c2281612be6565b9050919050565b600081519050612c38816126a9565b92915050565b600060208284031215612c5457612c53612672565b5b6000612c6284828501612c29565b91505092915050565b7f6e6f74206e6674206f776e657200000000000000000000000000000000000000600082015250565b6000612ca1600d83612908565b9150612cac82612c6b565b602082019050919050565b60006020820190508181036000830152612cd081612c94565b9050919050565b7f6e6f74206f6c64206f776e657200000000000000000000000000000000000000600082015250565b6000612d0d600d83612908565b9150612d1882612cd7565b602082019050919050565b60006020820190508181036000830152612d3c81612d00565b9050919050565b600081519050612d52816126df565b92915050565b600060208284031215612d6e57612d6d612672565b5b6000612d7c84828501612d43565b91505092915050565b7f4e487b7100000000000000000000000000000000000000000000000000000000600052601160045260246000fd5b6000612dbf826126d5565b9150612dca836126d5565b9250828203905081811115612de257612de1612d85565b5b92915050565b7f6e6f7420656e6f75676800000000000000000000000000000000000000000000600082015250565b6000612e1e600a83612908565b9150612e2982612de8565b602082019050919050565b60006020820190508181036000830152612e4d81612e11565b9050919050565b6000604082019050612e69600083018561275e565b612e7660208301846127fc565b9392505050565b6000606082019050612e92600083018661275e565b612e9f602083018561275e565b612eac60408301846127fc565b949350505050565b6000612ebf826126d5565b9150612eca836126d5565b9250828201905080821115612ee257612ee1612d85565b5b92915050565b7f6e6f74206f776e65720000000000000000000000000000000000000000000000600082015250565b6000612f1e600983612908565b9150612f2982612ee8565b602082019050919050565b60006020820190508181036000830152612f4d81612f11565b9050919050565b7f4e6f745f456e6f7567685f546f6b656e00000000000000000000000000000000600082015250565b6000612f8a601083612908565b9150612f9582612f54565b602082019050919050565b60006020820190508181036000830152612fb981612f7d565b9050919050565b6000612fcb826127c8565b91507f80000000000000000000000000000000000000000000000000000000000000008203612ffd57612ffc612d85565b5b816000039050919050565b7f7472616e7366657220636f756e74203c3d20302e000000000000000000000000600082015250565b600061303e601483612908565b915061304982613008565b602082019050919050565b6000602082019050818103600083015261306d81613031565b9050919050565b7f4e4654506f6f6c3a204e6f742064656661756c74207374617465207965740000600082015250565b60006130aa601e83612908565b91506130b582613074565b602082019050919050565b600060208201905081810360008301526130d98161309d565b9050919050565b60006060820190506130f5600083018661275e565b61310260208301856127fc565b61310f60408301846127fc565b949350505050565b7f4e4654506f6f6c3a20464f5242494444454e0000000000000000000000000000600082015250565b600061314d601283612908565b915061315882613117565b602082019050919050565b6000602082019050818103600083015261317c81613140565b9050919050565b600081519050919050565b600081905092915050565b60005b838110156131b757808201518184015260208101905061319c565b60008484015250505050565b60006131ce82613183565b6131d8818561318e565b93506131e8818560208601613199565b80840191505092915050565b600061320082846131c3565b915081905092915050565b7f4e4654506f6f6c3a205452414e534645525f4641494c45440000000000000000600082015250565b6000613241601883612908565b915061324c8261320b565b602082019050919050565b6000602082019050818103600083015261327081613234565b905091905056fea2646970667358221220eb2244feb341736ece4df327bd58480980de3c3af0ba05a38555c9096432f59164736f6c63430008120033a2646970667358221220a3670a59b9a501fbd54ed22085c7c22ea2c731c6a56b004a698df56d591ae7e664736f6c63430008120033",
  "linkReferences": {},
  "deployedLinkReferences": {}
}