{
  "_format": "hh-sol-artifact-1",
  "contractName": "Exchange",
  "sourceName": "contracts/Exchange.sol",
  "abi": [
    {
      "inputs": [
        {
          "internalType": "contract OrderManagement",
          "name": "_orderMgr",
          "type": "address"
        }
      ],
      "stateMutability": "nonpayable",
      "type": "constructor"
    },
    {
      "anonymous": false,
      "inputs": [
        {
          "indexed": true,
          "internalType": "uint256",
          "name": "orderId",
          "type": "uint256"
        }
      ],
      "name": "OrderCanceled",
      "type": "event"
    },
    {
      "anonymous": false,
      "inputs": [
        {
          "indexed": false,
          "internalType": "uint256",
          "name": "orderId",
          "type": "uint256"
        },
        {
          "indexed": false,
          "internalType": "address",
          "name": "buyer",
          "type": "address"
        }
      ],
      "name": "OrderFilled",
      "type": "event"
    },
    {
      "inputs": [
        {
          "internalType": "uint256",
          "name": "orderId",
          "type": "uint256"
        }
      ],
      "name": "cancelOrder",
      "outputs": [],
      "stateMutability": "nonpayable",
      "type": "function"
    },
    {
      "inputs": [
        {
          "internalType": "uint256",
          "name": "orderId",
          "type": "uint256"
        }
      ],
      "name": "fillOrder",
      "outputs": [],
      "stateMutability": "nonpayable",
      "type": "function"
    },
    {
      "inputs": [
        {
          "internalType": "uint256",
          "name": "orderId",
          "type": "uint256"
        }
      ],
      "name": "getFillOrderResults",
      "outputs": [
        {
          "internalType": "address",
          "name": "maker",
          "type": "address"
        },
        {
          "internalType": "address",
          "name": "nftContract",
          "type": "address"
        },
        {
          "internalType": "address",
          "name": "tokenContract",
          "type": "address"
        },
        {
          "internalType": "uint256",
          "name": "tokenId",
          "type": "uint256"
        },
        {
          "internalType": "uint256",
          "name": "price",
          "type": "uint256"
        },
        {
          "internalType": "uint256",
          "name": "expiration",
          "type": "uint256"
        },
        {
          "internalType": "enum OrderManagement.Status",
          "name": "status",
          "type": "uint8"
        }
      ],
      "stateMutability": "view",
      "type": "function"
    },
    {
      "inputs": [],
      "name": "orderMgr",
      "outputs": [
        {
          "internalType": "contract OrderManagement",
          "name": "",
          "type": "address"
        }
      ],
      "stateMutability": "view",
      "type": "function"
    }
  ],
  "bytecode": "0x608060405234801561001057600080fd5b5060405162000e8338038062000e83833981810160405281019061003491906100ef565b806000806101000a81548173ffffffffffffffffffffffffffffffffffffffff021916908373ffffffffffffffffffffffffffffffffffffffff1602179055505061011c565b600080fd5b600073ffffffffffffffffffffffffffffffffffffffff82169050919050565b60006100aa8261007f565b9050919050565b60006100bc8261009f565b9050919050565b6100cc816100b1565b81146100d757600080fd5b50565b6000815190506100e9816100c3565b92915050565b6000602082840312156101055761010461007a565b5b6000610113848285016100da565b91505092915050565b610d57806200012c6000396000f3fe608060405234801561001057600080fd5b506004361061004c5760003560e01c80633e28350414610051578063514fcac71461008757806367b830ad146100a3578063a0cbf50c146100bf575b600080fd5b61006b6004803603810190610066919061070f565b6100dd565b60405161007e9796959493929190610803565b60405180910390f35b6100a1600480360381019061009c919061070f565b61022e565b005b6100bd60048036038101906100b8919061070f565b61039b565b005b6100c76106a6565b6040516100d491906108d1565b60405180910390f35b60008060008060008060008060008054906101000a900473ffffffffffffffffffffffffffffffffffffffff1673ffffffffffffffffffffffffffffffffffffffff1663d09ef2418a6040518263ffffffff1660e01b815260040161014291906108ec565b61010060405180830381865afa158015610160573d6000803e3d6000fd5b505050506040513d601f19601f820116820180604052508101906101849190610b00565b90506001600281111561019a5761019961078c565b5b8160e0015160028111156101b1576101b061078c565b5b146101f1576040517f08c379a00000000000000000000000000000000000000000000000000000000081526004016101e890610b8b565b60405180910390fd5b806000015181602001518260400151836060015184608001518560a001518660e00151975097509750975097509750975050919395979092949650565b60008060009054906101000a900473ffffffffffffffffffffffffffffffffffffffff1673ffffffffffffffffffffffffffffffffffffffff1663d09ef241836040518263ffffffff1660e01b815260040161028a91906108ec565b61010060405180830381865afa1580156102a8573d6000803e3d6000fd5b505050506040513d601f19601f820116820180604052508101906102cc9190610b00565b9050600060028111156102e2576102e161078c565b5b8160e0015160028111156102f9576102f861078c565b5b14610339576040517f08c379a000000000000000000000000000000000000000000000000000000000815260040161033090610bf7565b60405180910390fd5b60028160e0019060028111156103525761035161078c565b5b908160028111156103665761036561078c565b5b81525050817fc41f4ceb2938876c35e61b705e9d2f18a02c4a26ce5e049a6308a943d46851b360405160405180910390a25050565b60008060009054906101000a900473ffffffffffffffffffffffffffffffffffffffff1673ffffffffffffffffffffffffffffffffffffffff1663d09ef241836040518263ffffffff1660e01b81526004016103f791906108ec565b61010060405180830381865afa158015610415573d6000803e3d6000fd5b505050506040513d601f19601f820116820180604052508101906104399190610b00565b90506000600281111561044f5761044e61078c565b5b8160e0015160028111156104665761046561078c565b5b146104a6576040517f08c379a000000000000000000000000000000000000000000000000000000000815260040161049d90610bf7565b60405180910390fd5b806040015173ffffffffffffffffffffffffffffffffffffffff166323b872dd3360008054906101000a900473ffffffffffffffffffffffffffffffffffffffff1673ffffffffffffffffffffffffffffffffffffffff16630613340e6040518163ffffffff1660e01b8152600401602060405180830381865afa158015610532573d6000803e3d6000fd5b505050506040513d601f19601f820116820180604052508101906105569190610c67565b84608001516040518463ffffffff1660e01b815260040161057993929190610c94565b6020604051808303816000875af1158015610598573d6000803e3d6000fd5b505050506040513d601f19601f820116820180604052508101906105bc9190610ccb565b50806020015173ffffffffffffffffffffffffffffffffffffffff166323b872dd82600001513384606001516040518463ffffffff1660e01b815260040161060693929190610c94565b600060405180830381600087803b15801561062057600080fd5b505af1158015610634573d6000803e3d6000fd5b5050505060018160e0019060028111156106515761065061078c565b5b908160028111156106655761066461078c565b5b815250507f74ebbab24ee8774729982ac100f931306b160f431f7f1483cc380186d56754bc823360405161069a929190610cf8565b60405180910390a15050565b60008054906101000a900473ffffffffffffffffffffffffffffffffffffffff1681565b6000604051905090565b600080fd5b6000819050919050565b6106ec816106d9565b81146106f757600080fd5b50565b600081359050610709816106e3565b92915050565b600060208284031215610725576107246106d4565b5b6000610733848285016106fa565b91505092915050565b600073ffffffffffffffffffffffffffffffffffffffff82169050919050565b60006107678261073c565b9050919050565b6107778161075c565b82525050565b610786816106d9565b82525050565b7f4e487b7100000000000000000000000000000000000000000000000000000000600052602160045260246000fd5b600381106107cc576107cb61078c565b5b50565b60008190506107dd826107bb565b919050565b60006107ed826107cf565b9050919050565b6107fd816107e2565b82525050565b600060e082019050610818600083018a61076e565b610825602083018961076e565b610832604083018861076e565b61083f606083018761077d565b61084c608083018661077d565b61085960a083018561077d565b61086660c08301846107f4565b98975050505050505050565b6000819050919050565b600061089761089261088d8461073c565b610872565b61073c565b9050919050565b60006108a98261087c565b9050919050565b60006108bb8261089e565b9050919050565b6108cb816108b0565b82525050565b60006020820190506108e660008301846108c2565b92915050565b6000602082019050610901600083018461077d565b92915050565b600080fd5b6000601f19601f8301169050919050565b7f4e487b7100000000000000000000000000000000000000000000000000000000600052604160045260246000fd5b6109558261090c565b810181811067ffffffffffffffff821117156109745761097361091d565b5b80604052505050565b60006109876106ca565b9050610993828261094c565b919050565b6109a18161075c565b81146109ac57600080fd5b50565b6000815190506109be81610998565b92915050565b6000815190506109d3816106e3565b92915050565b60008115159050919050565b6109ee816109d9565b81146109f957600080fd5b50565b600081519050610a0b816109e5565b92915050565b60038110610a1e57600080fd5b50565b600081519050610a3081610a11565b92915050565b60006101008284031215610a4d57610a4c610907565b5b610a5861010061097d565b90506000610a68848285016109af565b6000830152506020610a7c848285016109af565b6020830152506040610a90848285016109af565b6040830152506060610aa4848285016109c4565b6060830152506080610ab8848285016109c4565b60808301525060a0610acc848285016109c4565b60a08301525060c0610ae0848285016109fc565b60c08301525060e0610af484828501610a21565b60e08301525092915050565b60006101008284031215610b1757610b166106d4565b5b6000610b2584828501610a36565b91505092915050565b600082825260208201905092915050565b7f4f7264657220686173206e6f74206265656e2066696c6c656400000000000000600082015250565b6000610b75601983610b2e565b9150610b8082610b3f565b602082019050919050565b60006020820190508181036000830152610ba481610b68565b9050919050565b7f4f72646572206973206e6f74206f70656e000000000000000000000000000000600082015250565b6000610be1601183610b2e565b9150610bec82610bab565b602082019050919050565b60006020820190508181036000830152610c1081610bd4565b9050919050565b6000610c228261073c565b9050919050565b6000610c3482610c17565b9050919050565b610c4481610c29565b8114610c4f57600080fd5b50565b600081519050610c6181610c3b565b92915050565b600060208284031215610c7d57610c7c6106d4565b5b6000610c8b84828501610c52565b91505092915050565b6000606082019050610ca9600083018661076e565b610cb6602083018561076e565b610cc3604083018461077d565b949350505050565b600060208284031215610ce157610ce06106d4565b5b6000610cef848285016109fc565b91505092915050565b6000604082019050610d0d600083018561077d565b610d1a602083018461076e565b939250505056fea264697066735822122039127e298e25d23c03910b8e5ced113e564586643c1a165915124bf697fc54af64736f6c63430008120033",
  "linkReferences": {},
  "deployedLinkReferences": {}
}