{
  "_format": "hh-sol-artifact-1",
  "contractName": "Exchange",
  "sourceName": "contracts/Exchange.sol",
  "abi": [
    {
      "inputs": [
        {
          "internalType": "contract OrderManagement",
          "name": "_orderMgr",
          "type": "address"
        },
        {
          "internalType": "contract NFTRouter",
          "name": "_nftRouter",
          "type": "address"
        },
        {
          "internalType": "contract IWETH",
          "name": "_weth",
          "type": "address"
        }
      ],
      "stateMutability": "nonpayable",
      "type": "constructor"
    },
    {
      "anonymous": false,
      "inputs": [
        {
          "indexed": true,
          "internalType": "uint256",
          "name": "orderId",
          "type": "uint256"
        }
      ],
      "name": "OrderCanceled",
      "type": "event"
    },
    {
      "anonymous": false,
      "inputs": [
        {
          "indexed": false,
          "internalType": "uint256",
          "name": "orderId",
          "type": "uint256"
        },
        {
          "indexed": false,
          "internalType": "address",
          "name": "buyer",
          "type": "address"
        }
      ],
      "name": "OrderFilled",
      "type": "event"
    },
    {
      "inputs": [
        {
          "internalType": "uint256",
          "name": "orderId",
          "type": "uint256"
        }
      ],
      "name": "cancelOrder",
      "outputs": [],
      "stateMutability": "nonpayable",
      "type": "function"
    },
    {
      "inputs": [
        {
          "internalType": "uint256",
          "name": "orderId",
          "type": "uint256"
        }
      ],
      "name": "fillOrder",
      "outputs": [],
      "stateMutability": "nonpayable",
      "type": "function"
    },
    {
      "inputs": [
        {
          "internalType": "uint256",
          "name": "orderId",
          "type": "uint256"
        }
      ],
      "name": "fillOrderWithEther",
      "outputs": [],
      "stateMutability": "payable",
      "type": "function"
    },
    {
      "inputs": [
        {
          "internalType": "uint256",
          "name": "orderId",
          "type": "uint256"
        }
      ],
      "name": "getFillOrderResults",
      "outputs": [
        {
          "internalType": "address",
          "name": "maker",
          "type": "address"
        },
        {
          "internalType": "address",
          "name": "nftContract",
          "type": "address"
        },
        {
          "internalType": "address",
          "name": "tokenContract",
          "type": "address"
        },
        {
          "internalType": "uint256",
          "name": "tokenId",
          "type": "uint256"
        },
        {
          "internalType": "uint256",
          "name": "price",
          "type": "uint256"
        },
        {
          "internalType": "uint256",
          "name": "expiration",
          "type": "uint256"
        },
        {
          "internalType": "enum OrderManagement.Status",
          "name": "status",
          "type": "uint8"
        }
      ],
      "stateMutability": "view",
      "type": "function"
    },
    {
      "inputs": [],
      "name": "nftRouter",
      "outputs": [
        {
          "internalType": "contract NFTRouter",
          "name": "",
          "type": "address"
        }
      ],
      "stateMutability": "view",
      "type": "function"
    },
    {
      "inputs": [],
      "name": "orderMgr",
      "outputs": [
        {
          "internalType": "contract OrderManagement",
          "name": "",
          "type": "address"
        }
      ],
      "stateMutability": "view",
      "type": "function"
    },
    {
      "inputs": [],
      "name": "weth",
      "outputs": [
        {
          "internalType": "contract IWETH",
          "name": "",
          "type": "address"
        }
      ],
      "stateMutability": "view",
      "type": "function"
    }
  ],
  "bytecode": "0x60806040523480156200001157600080fd5b50604051620019f4380380620019f483398181016040528101906200003791906200021e565b826000806101000a81548173ffffffffffffffffffffffffffffffffffffffff021916908373ffffffffffffffffffffffffffffffffffffffff16021790555081600160006101000a81548173ffffffffffffffffffffffffffffffffffffffff021916908373ffffffffffffffffffffffffffffffffffffffff16021790555080600260006101000a81548173ffffffffffffffffffffffffffffffffffffffff021916908373ffffffffffffffffffffffffffffffffffffffff1602179055505050506200027a565b600080fd5b600073ffffffffffffffffffffffffffffffffffffffff82169050919050565b6000620001348262000107565b9050919050565b6000620001488262000127565b9050919050565b6200015a816200013b565b81146200016657600080fd5b50565b6000815190506200017a816200014f565b92915050565b60006200018d8262000107565b9050919050565b6000620001a18262000180565b9050919050565b620001b38162000194565b8114620001bf57600080fd5b50565b600081519050620001d381620001a8565b92915050565b6000620001e68262000127565b9050919050565b620001f881620001d9565b81146200020457600080fd5b50565b6000815190506200021881620001ed565b92915050565b6000806000606084860312156200023a576200023962000102565b5b60006200024a8682870162000169565b93505060206200025d86828701620001c2565b9250506040620002708682870162000207565b9150509250925092565b61176a806200028a6000396000f3fe6080604052600436106100705760003560e01c806367b830ad1161004e57806367b830ad1461010c578063a0cbf50c14610135578063cc056c6714610160578063f8a5375b1461017c57610070565b80633e283504146100755780633fc8cef3146100b8578063514fcac7146100e3575b600080fd5b34801561008157600080fd5b5061009c60048036038101906100979190610e92565b6101a7565b6040516100af9796959493929190610f86565b60405180910390f35b3480156100c457600080fd5b506100cd6102f8565b6040516100da9190611054565b60405180910390f35b3480156100ef57600080fd5b5061010a60048036038101906101059190610e92565b61031e565b005b34801561011857600080fd5b50610133600480360381019061012e9190610e92565b61048b565b005b34801561014157600080fd5b5061014a610902565b6040516101579190611090565b60405180910390f35b61017a60048036038101906101759190610e92565b610926565b005b34801561018857600080fd5b50610191610e27565b60405161019e91906110de565b60405180910390f35b60008060008060008060008060008054906101000a900473ffffffffffffffffffffffffffffffffffffffff1673ffffffffffffffffffffffffffffffffffffffff1663d09ef2418a6040518263ffffffff1660e01b815260040161020c91906110f9565b61010060405180830381865afa15801561022a573d6000803e3d6000fd5b505050506040513d601f19601f8201168201806040525081019061024e919061130d565b90506001600281111561026457610263610f0f565b5b8160e00151600281111561027b5761027a610f0f565b5b146102bb576040517f08c379a00000000000000000000000000000000000000000000000000000000081526004016102b290611398565b60405180910390fd5b806000015181602001518260400151836060015184608001518560a001518660e00151975097509750975097509750975050919395979092949650565b600260009054906101000a900473ffffffffffffffffffffffffffffffffffffffff1681565b60008060009054906101000a900473ffffffffffffffffffffffffffffffffffffffff1673ffffffffffffffffffffffffffffffffffffffff1663d09ef241836040518263ffffffff1660e01b815260040161037a91906110f9565b61010060405180830381865afa158015610398573d6000803e3d6000fd5b505050506040513d601f19601f820116820180604052508101906103bc919061130d565b9050600060028111156103d2576103d1610f0f565b5b8160e0015160028111156103e9576103e8610f0f565b5b14610429576040517f08c379a000000000000000000000000000000000000000000000000000000000815260040161042090611404565b60405180910390fd5b60028160e00190600281111561044257610441610f0f565b5b9081600281111561045657610455610f0f565b5b81525050817fc41f4ceb2938876c35e61b705e9d2f18a02c4a26ce5e049a6308a943d46851b360405160405180910390a25050565b60008060009054906101000a900473ffffffffffffffffffffffffffffffffffffffff1673ffffffffffffffffffffffffffffffffffffffff1663d09ef241836040518263ffffffff1660e01b81526004016104e791906110f9565b61010060405180830381865afa158015610505573d6000803e3d6000fd5b505050506040513d601f19601f82011682018060405250810190610529919061130d565b90506000600281111561053f5761053e610f0f565b5b8160e00151600281111561055657610555610f0f565b5b14610596576040517f08c379a000000000000000000000000000000000000000000000000000000000815260040161058d90611404565b60405180910390fd5b60006064606183608001516105ab9190611453565b6105b591906114c4565b905060008183608001516105c991906114f5565b9050826040015173ffffffffffffffffffffffffffffffffffffffff166323b872dd3330846040518463ffffffff1660e01b815260040161060c93929190611529565b6020604051808303816000875af115801561062b573d6000803e3d6000fd5b505050506040513d601f19601f8201168201806040525081019061064f9190611560565b50826040015173ffffffffffffffffffffffffffffffffffffffff1663095ea7b3600160009054906101000a900473ffffffffffffffffffffffffffffffffffffffff16836040518363ffffffff1660e01b81526004016106b192919061158d565b6020604051808303816000875af11580156106d0573d6000803e3d6000fd5b505050506040513d601f19601f820116820180604052508101906106f49190611560565b50826040015173ffffffffffffffffffffffffffffffffffffffff166323b872dd338560000151856040518463ffffffff1660e01b815260040161073a93929190611529565b6020604051808303816000875af1158015610759573d6000803e3d6000fd5b505050506040513d601f19601f8201168201806040525081019061077d9190611560565b50600160009054906101000a900473ffffffffffffffffffffffffffffffffffffffff1673ffffffffffffffffffffffffffffffffffffffff16630717354a84602001518560600151846040518463ffffffff1660e01b81526004016107e5939291906115b6565b600060405180830381600087803b1580156107ff57600080fd5b505af1158015610813573d6000803e3d6000fd5b50505050826020015173ffffffffffffffffffffffffffffffffffffffff166323b872dd84600001513386606001516040518463ffffffff1660e01b815260040161086093929190611529565b600060405180830381600087803b15801561087a57600080fd5b505af115801561088e573d6000803e3d6000fd5b5050505060018360e0019060028111156108ab576108aa610f0f565b5b908160028111156108bf576108be610f0f565b5b815250507f74ebbab24ee8774729982ac100f931306b160f431f7f1483cc380186d56754bc84336040516108f49291906115ed565b60405180910390a150505050565b60008054906101000a900473ffffffffffffffffffffffffffffffffffffffff1681565b60008060009054906101000a900473ffffffffffffffffffffffffffffffffffffffff1673ffffffffffffffffffffffffffffffffffffffff1663d09ef241836040518263ffffffff1660e01b815260040161098291906110f9565b61010060405180830381865afa1580156109a0573d6000803e3d6000fd5b505050506040513d601f19601f820116820180604052508101906109c4919061130d565b9050600060028111156109da576109d9610f0f565b5b8160e0015160028111156109f1576109f0610f0f565b5b14610a31576040517f08c379a0000000000000000000000000000000000000000000000000000000008152600401610a2890611404565b60405180910390fd5b80608001513414610a77576040517f08c379a0000000000000000000000000000000000000000000000000000000008152600401610a6e90611662565b60405180910390fd5b6000606460618360800151610a8c9190611453565b610a9691906114c4565b90506000818360800151610aaa91906114f5565b9050600260009054906101000a900473ffffffffffffffffffffffffffffffffffffffff1673ffffffffffffffffffffffffffffffffffffffff1663d0e30db0826040518263ffffffff1660e01b81526004016000604051808303818588803b158015610b1657600080fd5b505af1158015610b2a573d6000803e3d6000fd5b50505050506000836000015173ffffffffffffffffffffffffffffffffffffffff1683604051610b59906116b3565b60006040518083038185875af1925050503d8060008114610b96576040519150601f19603f3d011682016040523d82523d6000602084013e610b9b565b606091505b5050905080610bdf576040517f08c379a0000000000000000000000000000000000000000000000000000000008152600401610bd690611714565b60405180910390fd5b600260009054906101000a900473ffffffffffffffffffffffffffffffffffffffff1673ffffffffffffffffffffffffffffffffffffffff1663095ea7b3600160009054906101000a900473ffffffffffffffffffffffffffffffffffffffff16846040518363ffffffff1660e01b8152600401610c5e92919061158d565b6020604051808303816000875af1158015610c7d573d6000803e3d6000fd5b505050506040513d601f19601f82011682018060405250810190610ca19190611560565b50600160009054906101000a900473ffffffffffffffffffffffffffffffffffffffff1673ffffffffffffffffffffffffffffffffffffffff16630717354a85602001518660600151856040518463ffffffff1660e01b8152600401610d09939291906115b6565b600060405180830381600087803b158015610d2357600080fd5b505af1158015610d37573d6000803e3d6000fd5b50505050836020015173ffffffffffffffffffffffffffffffffffffffff166323b872dd85600001513387606001516040518463ffffffff1660e01b8152600401610d8493929190611529565b600060405180830381600087803b158015610d9e57600080fd5b505af1158015610db2573d6000803e3d6000fd5b5050505060018460e001906002811115610dcf57610dce610f0f565b5b90816002811115610de357610de2610f0f565b5b815250507f74ebbab24ee8774729982ac100f931306b160f431f7f1483cc380186d56754bc8533604051610e189291906115ed565b60405180910390a15050505050565b600160009054906101000a900473ffffffffffffffffffffffffffffffffffffffff1681565b6000604051905090565b600080fd5b6000819050919050565b610e6f81610e5c565b8114610e7a57600080fd5b50565b600081359050610e8c81610e66565b92915050565b600060208284031215610ea857610ea7610e57565b5b6000610eb684828501610e7d565b91505092915050565b600073ffffffffffffffffffffffffffffffffffffffff82169050919050565b6000610eea82610ebf565b9050919050565b610efa81610edf565b82525050565b610f0981610e5c565b82525050565b7f4e487b7100000000000000000000000000000000000000000000000000000000600052602160045260246000fd5b60038110610f4f57610f4e610f0f565b5b50565b6000819050610f6082610f3e565b919050565b6000610f7082610f52565b9050919050565b610f8081610f65565b82525050565b600060e082019050610f9b600083018a610ef1565b610fa86020830189610ef1565b610fb56040830188610ef1565b610fc26060830187610f00565b610fcf6080830186610f00565b610fdc60a0830185610f00565b610fe960c0830184610f77565b98975050505050505050565b6000819050919050565b600061101a61101561101084610ebf565b610ff5565b610ebf565b9050919050565b600061102c82610fff565b9050919050565b600061103e82611021565b9050919050565b61104e81611033565b82525050565b60006020820190506110696000830184611045565b92915050565b600061107a82611021565b9050919050565b61108a8161106f565b82525050565b60006020820190506110a56000830184611081565b92915050565b60006110b682610fff565b9050919050565b60006110c8826110ab565b9050919050565b6110d8816110bd565b82525050565b60006020820190506110f360008301846110cf565b92915050565b600060208201905061110e6000830184610f00565b92915050565b600080fd5b6000601f19601f8301169050919050565b7f4e487b7100000000000000000000000000000000000000000000000000000000600052604160045260246000fd5b61116282611119565b810181811067ffffffffffffffff821117156111815761118061112a565b5b80604052505050565b6000611194610e4d565b90506111a08282611159565b919050565b6111ae81610edf565b81146111b957600080fd5b50565b6000815190506111cb816111a5565b92915050565b6000815190506111e081610e66565b92915050565b60008115159050919050565b6111fb816111e6565b811461120657600080fd5b50565b600081519050611218816111f2565b92915050565b6003811061122b57600080fd5b50565b60008151905061123d8161121e565b92915050565b6000610100828403121561125a57611259611114565b5b61126561010061118a565b90506000611275848285016111bc565b6000830152506020611289848285016111bc565b602083015250604061129d848285016111bc565b60408301525060606112b1848285016111d1565b60608301525060806112c5848285016111d1565b60808301525060a06112d9848285016111d1565b60a08301525060c06112ed84828501611209565b60c08301525060e06113018482850161122e565b60e08301525092915050565b6000610100828403121561132457611323610e57565b5b600061133284828501611243565b91505092915050565b600082825260208201905092915050565b7f4f7264657220686173206e6f74206265656e2066696c6c656400000000000000600082015250565b600061138260198361133b565b915061138d8261134c565b602082019050919050565b600060208201905081810360008301526113b181611375565b9050919050565b7f4f72646572206973206e6f74206f70656e000000000000000000000000000000600082015250565b60006113ee60118361133b565b91506113f9826113b8565b602082019050919050565b6000602082019050818103600083015261141d816113e1565b9050919050565b7f4e487b7100000000000000000000000000000000000000000000000000000000600052601160045260246000fd5b600061145e82610e5c565b915061146983610e5c565b925082820261147781610e5c565b9150828204841483151761148e5761148d611424565b5b5092915050565b7f4e487b7100000000000000000000000000000000000000000000000000000000600052601260045260246000fd5b60006114cf82610e5c565b91506114da83610e5c565b9250826114ea576114e9611495565b5b828204905092915050565b600061150082610e5c565b915061150b83610e5c565b925082820390508181111561152357611522611424565b5b92915050565b600060608201905061153e6000830186610ef1565b61154b6020830185610ef1565b6115586040830184610f00565b949350505050565b60006020828403121561157657611575610e57565b5b600061158484828501611209565b91505092915050565b60006040820190506115a26000830185610ef1565b6115af6020830184610f00565b9392505050565b60006060820190506115cb6000830186610ef1565b6115d86020830185610f00565b6115e56040830184610f00565b949350505050565b60006040820190506116026000830185610f00565b61160f6020830184610ef1565b9392505050565b7f496e636f7272656374204554482076616c75652073656e740000000000000000600082015250565b600061164c60188361133b565b915061165782611616565b602082019050919050565b6000602082019050818103600083015261167b8161163f565b9050919050565b600081905092915050565b50565b600061169d600083611682565b91506116a88261168d565b600082019050919050565b60006116be82611690565b9150819050919050565b7f4661696c656420746f2073656e64204574686572000000000000000000000000600082015250565b60006116fe60148361133b565b9150611709826116c8565b602082019050919050565b6000602082019050818103600083015261172d816116f1565b905091905056fea2646970667358221220afbf5811a4984f63c5074da0b78c53814a8e4608b1de9fb4dc220dcd13b94f2464736f6c63430008120033",
  "linkReferences": {},
  "deployedLinkReferences": {}
}