{
  "_format": "hh-sol-artifact-1",
  "contractName": "Exchange",
  "sourceName": "contracts/Exchange.sol",
  "abi": [
    {
      "inputs": [
        {
          "internalType": "contract OrderManagement",
          "name": "_orderMgr",
          "type": "address"
        },
        {
          "internalType": "contract NFTRouter",
          "name": "_nftRouter",
          "type": "address"
        }
      ],
      "stateMutability": "nonpayable",
      "type": "constructor"
    },
    {
      "anonymous": false,
      "inputs": [
        {
          "indexed": true,
          "internalType": "uint256",
          "name": "orderId",
          "type": "uint256"
        }
      ],
      "name": "OrderCanceled",
      "type": "event"
    },
    {
      "anonymous": false,
      "inputs": [
        {
          "indexed": false,
          "internalType": "uint256",
          "name": "orderId",
          "type": "uint256"
        },
        {
          "indexed": false,
          "internalType": "address",
          "name": "buyer",
          "type": "address"
        }
      ],
      "name": "OrderFilled",
      "type": "event"
    },
    {
      "inputs": [
        {
          "internalType": "uint256",
          "name": "orderId",
          "type": "uint256"
        }
      ],
      "name": "cancelOrder",
      "outputs": [],
      "stateMutability": "nonpayable",
      "type": "function"
    },
    {
      "inputs": [
        {
          "internalType": "uint256",
          "name": "orderId",
          "type": "uint256"
        }
      ],
      "name": "fillOrder",
      "outputs": [],
      "stateMutability": "nonpayable",
      "type": "function"
    },
    {
      "inputs": [
        {
          "internalType": "uint256",
          "name": "orderId",
          "type": "uint256"
        }
      ],
      "name": "getFillOrderResults",
      "outputs": [
        {
          "internalType": "address",
          "name": "maker",
          "type": "address"
        },
        {
          "internalType": "address",
          "name": "nftContract",
          "type": "address"
        },
        {
          "internalType": "address",
          "name": "tokenContract",
          "type": "address"
        },
        {
          "internalType": "uint256",
          "name": "tokenId",
          "type": "uint256"
        },
        {
          "internalType": "uint256",
          "name": "price",
          "type": "uint256"
        },
        {
          "internalType": "uint256",
          "name": "expiration",
          "type": "uint256"
        },
        {
          "internalType": "enum OrderManagement.Status",
          "name": "status",
          "type": "uint8"
        }
      ],
      "stateMutability": "view",
      "type": "function"
    },
    {
      "inputs": [],
      "name": "nftRouter",
      "outputs": [
        {
          "internalType": "contract NFTRouter",
          "name": "",
          "type": "address"
        }
      ],
      "stateMutability": "view",
      "type": "function"
    },
    {
      "inputs": [],
      "name": "orderMgr",
      "outputs": [
        {
          "internalType": "contract OrderManagement",
          "name": "",
          "type": "address"
        }
      ],
      "stateMutability": "view",
      "type": "function"
    }
  ],
  "bytecode": "0x60806040523480156200001157600080fd5b506040516200123638038062001236833981810160405281019062000037919062000197565b816000806101000a81548173ffffffffffffffffffffffffffffffffffffffff021916908373ffffffffffffffffffffffffffffffffffffffff16021790555080600160006101000a81548173ffffffffffffffffffffffffffffffffffffffff021916908373ffffffffffffffffffffffffffffffffffffffff1602179055505050620001de565b600080fd5b600073ffffffffffffffffffffffffffffffffffffffff82169050919050565b6000620000f282620000c5565b9050919050565b60006200010682620000e5565b9050919050565b6200011881620000f9565b81146200012457600080fd5b50565b60008151905062000138816200010d565b92915050565b60006200014b82620000c5565b9050919050565b60006200015f826200013e565b9050919050565b620001718162000152565b81146200017d57600080fd5b50565b600081519050620001918162000166565b92915050565b60008060408385031215620001b157620001b0620000c0565b5b6000620001c18582860162000127565b9250506020620001d48582860162000180565b9150509250929050565b61104880620001ee6000396000f3fe608060405234801561001057600080fd5b50600436106100575760003560e01c80633e2835041461005c578063514fcac71461009257806367b830ad146100ae578063a0cbf50c146100ca578063f8a5375b146100e8575b600080fd5b610076600480360381019061007191906108ca565b610106565b60405161008997969594939291906109be565b60405180910390f35b6100ac60048036038101906100a791906108ca565b610257565b005b6100c860048036038101906100c391906108ca565b6103c4565b005b6100d261083b565b6040516100df9190610a8c565b60405180910390f35b6100f061085f565b6040516100fd9190610ada565b60405180910390f35b60008060008060008060008060008054906101000a900473ffffffffffffffffffffffffffffffffffffffff1673ffffffffffffffffffffffffffffffffffffffff1663d09ef2418a6040518263ffffffff1660e01b815260040161016b9190610af5565b61010060405180830381865afa158015610189573d6000803e3d6000fd5b505050506040513d601f19601f820116820180604052508101906101ad9190610d09565b9050600160028111156101c3576101c2610947565b5b8160e0015160028111156101da576101d9610947565b5b1461021a576040517f08c379a000000000000000000000000000000000000000000000000000000000815260040161021190610d94565b60405180910390fd5b806000015181602001518260400151836060015184608001518560a001518660e00151975097509750975097509750975050919395979092949650565b60008060009054906101000a900473ffffffffffffffffffffffffffffffffffffffff1673ffffffffffffffffffffffffffffffffffffffff1663d09ef241836040518263ffffffff1660e01b81526004016102b39190610af5565b61010060405180830381865afa1580156102d1573d6000803e3d6000fd5b505050506040513d601f19601f820116820180604052508101906102f59190610d09565b90506000600281111561030b5761030a610947565b5b8160e00151600281111561032257610321610947565b5b14610362576040517f08c379a000000000000000000000000000000000000000000000000000000000815260040161035990610e00565b60405180910390fd5b60028160e00190600281111561037b5761037a610947565b5b9081600281111561038f5761038e610947565b5b81525050817fc41f4ceb2938876c35e61b705e9d2f18a02c4a26ce5e049a6308a943d46851b360405160405180910390a25050565b60008060009054906101000a900473ffffffffffffffffffffffffffffffffffffffff1673ffffffffffffffffffffffffffffffffffffffff1663d09ef241836040518263ffffffff1660e01b81526004016104209190610af5565b61010060405180830381865afa15801561043e573d6000803e3d6000fd5b505050506040513d601f19601f820116820180604052508101906104629190610d09565b90506000600281111561047857610477610947565b5b8160e00151600281111561048f5761048e610947565b5b146104cf576040517f08c379a00000000000000000000000000000000000000000000000000000000081526004016104c690610e00565b60405180910390fd5b60006064606183608001516104e49190610e4f565b6104ee9190610ec0565b905060008183608001516105029190610ef1565b9050826040015173ffffffffffffffffffffffffffffffffffffffff166323b872dd3330846040518463ffffffff1660e01b815260040161054593929190610f25565b6020604051808303816000875af1158015610564573d6000803e3d6000fd5b505050506040513d601f19601f820116820180604052508101906105889190610f5c565b50826040015173ffffffffffffffffffffffffffffffffffffffff1663095ea7b3600160009054906101000a900473ffffffffffffffffffffffffffffffffffffffff16836040518363ffffffff1660e01b81526004016105ea929190610f89565b6020604051808303816000875af1158015610609573d6000803e3d6000fd5b505050506040513d601f19601f8201168201806040525081019061062d9190610f5c565b50826040015173ffffffffffffffffffffffffffffffffffffffff166323b872dd338560000151856040518463ffffffff1660e01b815260040161067393929190610f25565b6020604051808303816000875af1158015610692573d6000803e3d6000fd5b505050506040513d601f19601f820116820180604052508101906106b69190610f5c565b50600160009054906101000a900473ffffffffffffffffffffffffffffffffffffffff1673ffffffffffffffffffffffffffffffffffffffff16630717354a84602001518560600151846040518463ffffffff1660e01b815260040161071e93929190610fb2565b600060405180830381600087803b15801561073857600080fd5b505af115801561074c573d6000803e3d6000fd5b50505050826020015173ffffffffffffffffffffffffffffffffffffffff166323b872dd84600001513386606001516040518463ffffffff1660e01b815260040161079993929190610f25565b600060405180830381600087803b1580156107b357600080fd5b505af11580156107c7573d6000803e3d6000fd5b5050505060018360e0019060028111156107e4576107e3610947565b5b908160028111156107f8576107f7610947565b5b815250507f74ebbab24ee8774729982ac100f931306b160f431f7f1483cc380186d56754bc843360405161082d929190610fe9565b60405180910390a150505050565b60008054906101000a900473ffffffffffffffffffffffffffffffffffffffff1681565b600160009054906101000a900473ffffffffffffffffffffffffffffffffffffffff1681565b6000604051905090565b600080fd5b6000819050919050565b6108a781610894565b81146108b257600080fd5b50565b6000813590506108c48161089e565b92915050565b6000602082840312156108e0576108df61088f565b5b60006108ee848285016108b5565b91505092915050565b600073ffffffffffffffffffffffffffffffffffffffff82169050919050565b6000610922826108f7565b9050919050565b61093281610917565b82525050565b61094181610894565b82525050565b7f4e487b7100000000000000000000000000000000000000000000000000000000600052602160045260246000fd5b6003811061098757610986610947565b5b50565b600081905061099882610976565b919050565b60006109a88261098a565b9050919050565b6109b88161099d565b82525050565b600060e0820190506109d3600083018a610929565b6109e06020830189610929565b6109ed6040830188610929565b6109fa6060830187610938565b610a076080830186610938565b610a1460a0830185610938565b610a2160c08301846109af565b98975050505050505050565b6000819050919050565b6000610a52610a4d610a48846108f7565b610a2d565b6108f7565b9050919050565b6000610a6482610a37565b9050919050565b6000610a7682610a59565b9050919050565b610a8681610a6b565b82525050565b6000602082019050610aa16000830184610a7d565b92915050565b6000610ab282610a37565b9050919050565b6000610ac482610aa7565b9050919050565b610ad481610ab9565b82525050565b6000602082019050610aef6000830184610acb565b92915050565b6000602082019050610b0a6000830184610938565b92915050565b600080fd5b6000601f19601f8301169050919050565b7f4e487b7100000000000000000000000000000000000000000000000000000000600052604160045260246000fd5b610b5e82610b15565b810181811067ffffffffffffffff82111715610b7d57610b7c610b26565b5b80604052505050565b6000610b90610885565b9050610b9c8282610b55565b919050565b610baa81610917565b8114610bb557600080fd5b50565b600081519050610bc781610ba1565b92915050565b600081519050610bdc8161089e565b92915050565b60008115159050919050565b610bf781610be2565b8114610c0257600080fd5b50565b600081519050610c1481610bee565b92915050565b60038110610c2757600080fd5b50565b600081519050610c3981610c1a565b92915050565b60006101008284031215610c5657610c55610b10565b5b610c61610100610b86565b90506000610c7184828501610bb8565b6000830152506020610c8584828501610bb8565b6020830152506040610c9984828501610bb8565b6040830152506060610cad84828501610bcd565b6060830152506080610cc184828501610bcd565b60808301525060a0610cd584828501610bcd565b60a08301525060c0610ce984828501610c05565b60c08301525060e0610cfd84828501610c2a565b60e08301525092915050565b60006101008284031215610d2057610d1f61088f565b5b6000610d2e84828501610c3f565b91505092915050565b600082825260208201905092915050565b7f4f7264657220686173206e6f74206265656e2066696c6c656400000000000000600082015250565b6000610d7e601983610d37565b9150610d8982610d48565b602082019050919050565b60006020820190508181036000830152610dad81610d71565b9050919050565b7f4f72646572206973206e6f74206f70656e000000000000000000000000000000600082015250565b6000610dea601183610d37565b9150610df582610db4565b602082019050919050565b60006020820190508181036000830152610e1981610ddd565b9050919050565b7f4e487b7100000000000000000000000000000000000000000000000000000000600052601160045260246000fd5b6000610e5a82610894565b9150610e6583610894565b9250828202610e7381610894565b91508282048414831517610e8a57610e89610e20565b5b5092915050565b7f4e487b7100000000000000000000000000000000000000000000000000000000600052601260045260246000fd5b6000610ecb82610894565b9150610ed683610894565b925082610ee657610ee5610e91565b5b828204905092915050565b6000610efc82610894565b9150610f0783610894565b9250828203905081811115610f1f57610f1e610e20565b5b92915050565b6000606082019050610f3a6000830186610929565b610f476020830185610929565b610f546040830184610938565b949350505050565b600060208284031215610f7257610f7161088f565b5b6000610f8084828501610c05565b91505092915050565b6000604082019050610f9e6000830185610929565b610fab6020830184610938565b9392505050565b6000606082019050610fc76000830186610929565b610fd46020830185610938565b610fe16040830184610938565b949350505050565b6000604082019050610ffe6000830185610938565b61100b6020830184610929565b939250505056fea26469706673582212208e0bbc2fbe5491e9b6948a8f5213d68f4663b3bae6d3ecf4df0e8be48f4df9c364736f6c63430008120033",
  "linkReferences": {},
  "deployedLinkReferences": {}
}