{
  "_format": "hh-sol-artifact-1",
  "contractName": "NFTVaultTest",
  "sourceName": "contracts/NFTVaultTest.sol",
  "abi": [
    {
      "inputs": [],
      "stateMutability": "nonpayable",
      "type": "constructor"
    },
    {
      "anonymous": false,
      "inputs": [
        {
          "indexed": true,
          "internalType": "address",
          "name": "owner",
          "type": "address"
        },
        {
          "indexed": true,
          "internalType": "address",
          "name": "spender",
          "type": "address"
        },
        {
          "indexed": false,
          "internalType": "uint256",
          "name": "value",
          "type": "uint256"
        }
      ],
      "name": "Approval",
      "type": "event"
    },
    {
      "anonymous": false,
      "inputs": [
        {
          "indexed": true,
          "internalType": "address",
          "name": "previousOwner",
          "type": "address"
        },
        {
          "indexed": true,
          "internalType": "address",
          "name": "newOwner",
          "type": "address"
        }
      ],
      "name": "OwnershipTransferred",
      "type": "event"
    },
    {
      "anonymous": false,
      "inputs": [
        {
          "indexed": true,
          "internalType": "address",
          "name": "from",
          "type": "address"
        },
        {
          "indexed": true,
          "internalType": "address",
          "name": "to",
          "type": "address"
        },
        {
          "indexed": false,
          "internalType": "uint256",
          "name": "value",
          "type": "uint256"
        }
      ],
      "name": "Transfer",
      "type": "event"
    },
    {
      "stateMutability": "payable",
      "type": "fallback"
    },
    {
      "inputs": [
        {
          "internalType": "address",
          "name": "owner",
          "type": "address"
        },
        {
          "internalType": "address",
          "name": "spender",
          "type": "address"
        }
      ],
      "name": "allowance",
      "outputs": [
        {
          "internalType": "uint256",
          "name": "",
          "type": "uint256"
        }
      ],
      "stateMutability": "view",
      "type": "function"
    },
    {
      "inputs": [
        {
          "internalType": "address",
          "name": "spender",
          "type": "address"
        },
        {
          "internalType": "uint256",
          "name": "amount",
          "type": "uint256"
        }
      ],
      "name": "approve",
      "outputs": [
        {
          "internalType": "bool",
          "name": "",
          "type": "bool"
        }
      ],
      "stateMutability": "nonpayable",
      "type": "function"
    },
    {
      "inputs": [
        {
          "internalType": "address",
          "name": "account",
          "type": "address"
        }
      ],
      "name": "balanceOf",
      "outputs": [
        {
          "internalType": "uint256",
          "name": "",
          "type": "uint256"
        }
      ],
      "stateMutability": "view",
      "type": "function"
    },
    {
      "inputs": [],
      "name": "calculateInterestRate",
      "outputs": [
        {
          "internalType": "uint256",
          "name": "",
          "type": "uint256"
        }
      ],
      "stateMutability": "view",
      "type": "function"
    },
    {
      "inputs": [],
      "name": "decimals",
      "outputs": [
        {
          "internalType": "uint8",
          "name": "",
          "type": "uint8"
        }
      ],
      "stateMutability": "view",
      "type": "function"
    },
    {
      "inputs": [
        {
          "internalType": "address",
          "name": "spender",
          "type": "address"
        },
        {
          "internalType": "uint256",
          "name": "subtractedValue",
          "type": "uint256"
        }
      ],
      "name": "decreaseAllowance",
      "outputs": [
        {
          "internalType": "bool",
          "name": "",
          "type": "bool"
        }
      ],
      "stateMutability": "nonpayable",
      "type": "function"
    },
    {
      "inputs": [
        {
          "internalType": "address",
          "name": "spender",
          "type": "address"
        },
        {
          "internalType": "uint256",
          "name": "addedValue",
          "type": "uint256"
        }
      ],
      "name": "increaseAllowance",
      "outputs": [
        {
          "internalType": "bool",
          "name": "",
          "type": "bool"
        }
      ],
      "stateMutability": "nonpayable",
      "type": "function"
    },
    {
      "inputs": [
        {
          "internalType": "address",
          "name": "_poolAddress",
          "type": "address"
        },
        {
          "internalType": "address",
          "name": "_nftBank",
          "type": "address"
        }
      ],
      "name": "init",
      "outputs": [],
      "stateMutability": "nonpayable",
      "type": "function"
    },
    {
      "inputs": [],
      "name": "name",
      "outputs": [
        {
          "internalType": "string",
          "name": "",
          "type": "string"
        }
      ],
      "stateMutability": "view",
      "type": "function"
    },
    {
      "inputs": [],
      "name": "owner",
      "outputs": [
        {
          "internalType": "address",
          "name": "",
          "type": "address"
        }
      ],
      "stateMutability": "view",
      "type": "function"
    },
    {
      "inputs": [],
      "name": "renounceOwnership",
      "outputs": [],
      "stateMutability": "nonpayable",
      "type": "function"
    },
    {
      "inputs": [
        {
          "internalType": "uint256",
          "name": "moneyCount",
          "type": "uint256"
        }
      ],
      "name": "saveMoney",
      "outputs": [],
      "stateMutability": "nonpayable",
      "type": "function"
    },
    {
      "inputs": [
        {
          "internalType": "uint256",
          "name": "",
          "type": "uint256"
        }
      ],
      "name": "savingInterestRate",
      "outputs": [
        {
          "internalType": "uint256",
          "name": "",
          "type": "uint256"
        }
      ],
      "stateMutability": "view",
      "type": "function"
    },
    {
      "inputs": [],
      "name": "symbol",
      "outputs": [
        {
          "internalType": "string",
          "name": "",
          "type": "string"
        }
      ],
      "stateMutability": "view",
      "type": "function"
    },
    {
      "inputs": [],
      "name": "totalSupply",
      "outputs": [
        {
          "internalType": "uint256",
          "name": "",
          "type": "uint256"
        }
      ],
      "stateMutability": "view",
      "type": "function"
    },
    {
      "inputs": [
        {
          "internalType": "address",
          "name": "to",
          "type": "address"
        },
        {
          "internalType": "uint256",
          "name": "amount",
          "type": "uint256"
        }
      ],
      "name": "transfer",
      "outputs": [
        {
          "internalType": "bool",
          "name": "",
          "type": "bool"
        }
      ],
      "stateMutability": "nonpayable",
      "type": "function"
    },
    {
      "inputs": [
        {
          "internalType": "address",
          "name": "from",
          "type": "address"
        },
        {
          "internalType": "address",
          "name": "to",
          "type": "address"
        },
        {
          "internalType": "uint256",
          "name": "amount",
          "type": "uint256"
        }
      ],
      "name": "transferFrom",
      "outputs": [
        {
          "internalType": "bool",
          "name": "",
          "type": "bool"
        }
      ],
      "stateMutability": "nonpayable",
      "type": "function"
    },
    {
      "inputs": [
        {
          "internalType": "address",
          "name": "newOwner",
          "type": "address"
        }
      ],
      "name": "transferOwnership",
      "outputs": [],
      "stateMutability": "nonpayable",
      "type": "function"
    },
    {
      "inputs": [
        {
          "internalType": "int256",
          "name": "tokenCounts",
          "type": "int256"
        }
      ],
      "name": "updateMoneyInNFT",
      "outputs": [],
      "stateMutability": "nonpayable",
      "type": "function"
    },
    {
      "inputs": [
        {
          "internalType": "uint256",
          "name": "",
          "type": "uint256"
        }
      ],
      "name": "userSavingCount",
      "outputs": [
        {
          "internalType": "uint256",
          "name": "",
          "type": "uint256"
        }
      ],
      "stateMutability": "view",
      "type": "function"
    },
    {
      "inputs": [
        {
          "internalType": "uint256",
          "name": "_tokenId",
          "type": "uint256"
        },
        {
          "internalType": "uint256",
          "name": "moneyCount",
          "type": "uint256"
        }
      ],
      "name": "withDrawMoney",
      "outputs": [],
      "stateMutability": "nonpayable",
      "type": "function"
    },
    {
      "stateMutability": "payable",
      "type": "receive"
    }
  ],
  "bytecode": "0x60806040526064600655606460075560006008556000600c553480156200002557600080fd5b506040518060400160405280600d81526020017f4e46545661756c74546f6b656e000000000000000000000000000000000000008152506040518060400160405280600381526020017f4e564300000000000000000000000000000000000000000000000000000000008152508160039081620000a3919062000627565b508060049081620000b5919062000627565b505050620000d8620000cc6200015f60201b60201c565b6200016760201b60201c565b6200011833620000ed6200022d60201b60201c565b600a620000fb91906200089e565b6301312d006200010c9190620008ef565b6200023660201b60201c565b33600960006101000a81548173ffffffffffffffffffffffffffffffffffffffff021916908373ffffffffffffffffffffffffffffffffffffffff16021790555062000a26565b600033905090565b6000600560009054906101000a900473ffffffffffffffffffffffffffffffffffffffff16905081600560006101000a81548173ffffffffffffffffffffffffffffffffffffffff021916908373ffffffffffffffffffffffffffffffffffffffff1602179055508173ffffffffffffffffffffffffffffffffffffffff168173ffffffffffffffffffffffffffffffffffffffff167f8be0079c531659141344cd1fd0a4f28419497f9722a3daafe3b4186f6b6457e060405160405180910390a35050565b60006012905090565b600073ffffffffffffffffffffffffffffffffffffffff168273ffffffffffffffffffffffffffffffffffffffff1603620002a8576040517f08c379a00000000000000000000000000000000000000000000000000000000081526004016200029f906200099b565b60405180910390fd5b620002bc60008383620003a360201b60201c565b8060026000828254620002d09190620009bd565b92505081905550806000808473ffffffffffffffffffffffffffffffffffffffff1673ffffffffffffffffffffffffffffffffffffffff168152602001908152602001600020600082825401925050819055508173ffffffffffffffffffffffffffffffffffffffff16600073ffffffffffffffffffffffffffffffffffffffff167fddf252ad1be2c89b69c2b068fc378daa952ba7f163c4a11628f55a4df523b3ef8360405162000383919062000a09565b60405180910390a36200039f60008383620003a860201b60201c565b5050565b505050565b505050565b600081519050919050565b7f4e487b7100000000000000000000000000000000000000000000000000000000600052604160045260246000fd5b7f4e487b7100000000000000000000000000000000000000000000000000000000600052602260045260246000fd5b600060028204905060018216806200042f57607f821691505b602082108103620004455762000444620003e7565b5b50919050565b60008190508160005260206000209050919050565b60006020601f8301049050919050565b600082821b905092915050565b600060088302620004af7fffffffffffffffffffffffffffffffffffffffffffffffffffffffffffffffff8262000470565b620004bb868362000470565b95508019841693508086168417925050509392505050565b6000819050919050565b6000819050919050565b60006200050862000502620004fc84620004d3565b620004dd565b620004d3565b9050919050565b6000819050919050565b6200052483620004e7565b6200053c62000533826200050f565b8484546200047d565b825550505050565b600090565b6200055362000544565b6200056081848462000519565b505050565b5b8181101562000588576200057c60008262000549565b60018101905062000566565b5050565b601f821115620005d757620005a1816200044b565b620005ac8462000460565b81016020851015620005bc578190505b620005d4620005cb8562000460565b83018262000565565b50505b505050565b600082821c905092915050565b6000620005fc60001984600802620005dc565b1980831691505092915050565b6000620006178383620005e9565b9150826002028217905092915050565b6200063282620003ad565b67ffffffffffffffff8111156200064e576200064d620003b8565b5b6200065a825462000416565b620006678282856200058c565b600060209050601f8311600181146200069f57600084156200068a578287015190505b62000696858262000609565b86555062000706565b601f198416620006af866200044b565b60005b82811015620006d957848901518255600182019150602085019450602081019050620006b2565b86831015620006f95784890151620006f5601f891682620005e9565b8355505b6001600288020188555050505b505050505050565b7f4e487b7100000000000000000000000000000000000000000000000000000000600052601160045260246000fd5b60008160011c9050919050565b6000808291508390505b60018511156200079c578086048111156200077457620007736200070e565b5b6001851615620007845780820291505b808102905062000794856200073d565b945062000754565b94509492505050565b600082620007b757600190506200088a565b81620007c757600090506200088a565b8160018114620007e05760028114620007eb5762000821565b60019150506200088a565b60ff8411156200080057620007ff6200070e565b5b8360020a9150848211156200081a57620008196200070e565b5b506200088a565b5060208310610133831016604e8410600b84101617156200085b5782820a9050838111156200085557620008546200070e565b5b6200088a565b6200086a84848460016200074a565b925090508184048111156200088457620008836200070e565b5b81810290505b9392505050565b600060ff82169050919050565b6000620008ab82620004d3565b9150620008b88362000891565b9250620008e77fffffffffffffffffffffffffffffffffffffffffffffffffffffffffffffffff8484620007a5565b905092915050565b6000620008fc82620004d3565b91506200090983620004d3565b92508282026200091981620004d3565b915082820484148315176200093357620009326200070e565b5b5092915050565b600082825260208201905092915050565b7f45524332303a206d696e7420746f20746865207a65726f206164647265737300600082015250565b600062000983601f836200093a565b915062000990826200094b565b602082019050919050565b60006020820190508181036000830152620009b68162000974565b9050919050565b6000620009ca82620004d3565b9150620009d783620004d3565b9250828201905080821115620009f257620009f16200070e565b5b92915050565b62000a0381620004d3565b82525050565b600060208201905062000a206000830184620009f8565b92915050565b6123118062000a366000396000f3fe60806040526004361061012e5760003560e01c806370a08231116100ab578063a9059cbb1161006f578063a9059cbb146103fc578063c4dd3a9d14610439578063c9d24fc214610476578063dd62ed3e146104b3578063f09a4016146104f0578063f2fde38b1461051957610135565b806370a0823114610315578063715018a6146103525780638da5cb5b1461036957806395d89b4114610394578063a457c2d7146103bf57610135565b806323b872dd116100f257806323b872dd1461021c578063313ce5671461025957806339509351146102845780633a082d8e146102c15780635fec8275146102ec57610135565b8063066842811461013757806306fdde0314610160578063095ea7b31461018b57806318160ddd146101c857806322f4d265146101f357610135565b3661013557005b005b34801561014357600080fd5b5061015e6004803603810190610159919061166f565b610542565b005b34801561016c57600080fd5b50610175610636565b604051610182919061172c565b60405180910390f35b34801561019757600080fd5b506101b260048036038101906101ad91906117ac565b6106c8565b6040516101bf9190611807565b60405180910390f35b3480156101d457600080fd5b506101dd6106eb565b6040516101ea9190611831565b60405180910390f35b3480156101ff57600080fd5b5061021a60048036038101906102159190611882565b6106f5565b005b34801561022857600080fd5b50610243600480360381019061023e91906118af565b6107a1565b6040516102509190611807565b60405180910390f35b34801561026557600080fd5b5061026e6107d0565b60405161027b919061191e565b60405180910390f35b34801561029057600080fd5b506102ab60048036038101906102a691906117ac565b6107d9565b6040516102b89190611807565b60405180910390f35b3480156102cd57600080fd5b506102d6610810565b6040516102e39190611831565b60405180910390f35b3480156102f857600080fd5b50610313600480360381019061030e9190611939565b610852565b005b34801561032157600080fd5b5061033c60048036038101906103379190611979565b610a86565b6040516103499190611831565b60405180910390f35b34801561035e57600080fd5b50610367610ace565b005b34801561037557600080fd5b5061037e610ae2565b60405161038b91906119b5565b60405180910390f35b3480156103a057600080fd5b506103a9610b0c565b6040516103b6919061172c565b60405180910390f35b3480156103cb57600080fd5b506103e660048036038101906103e191906117ac565b610b9e565b6040516103f39190611807565b60405180910390f35b34801561040857600080fd5b50610423600480360381019061041e91906117ac565b610c15565b6040516104309190611807565b60405180910390f35b34801561044557600080fd5b50610460600480360381019061045b919061166f565b610c38565b60405161046d9190611831565b60405180910390f35b34801561048257600080fd5b5061049d6004803603810190610498919061166f565b610c50565b6040516104aa9190611831565b60405180910390f35b3480156104bf57600080fd5b506104da60048036038101906104d591906119d0565b610c68565b6040516104e79190611831565b60405180910390f35b3480156104fc57600080fd5b50610517600480360381019061051291906119d0565b610cef565b005b34801561052557600080fd5b50610540600480360381019061053b9190611979565b610e05565b005b61054d3330836107a1565b50600b60009054906101000a900473ffffffffffffffffffffffffffffffffffffffff1673ffffffffffffffffffffffffffffffffffffffff166340d097c3336040518263ffffffff1660e01b81526004016105a991906119b5565b600060405180830381600087803b1580156105c357600080fd5b505af11580156105d7573d6000803e3d6000fd5b5050505080600e6000600c54815260200190815260200160002081905550600754600d6000600c548152602001908152602001600020819055506001600c60008282546106249190611a3f565b92505081905550610633610e88565b50565b60606003805461064590611aa2565b80601f016020809104026020016040519081016040528092919081815260200182805461067190611aa2565b80156106be5780601f10610693576101008083540402835291602001916106be565b820191906000526020600020905b8154815290600101906020018083116106a157829003601f168201915b5050505050905090565b6000806106d3610ebd565b90506106e0818585610ec5565b600191505092915050565b6000600254905090565b600a60009054906101000a900473ffffffffffffffffffffffffffffffffffffffff1673ffffffffffffffffffffffffffffffffffffffff163373ffffffffffffffffffffffffffffffffffffffff1614610785576040517f08c379a000000000000000000000000000000000000000000000000000000000815260040161077c90611b45565b60405180910390fd5b80600860008282546107979190611b65565b9250508190555050565b6000806107ac610ebd565b90506107b985828561108e565b6107c485858561111a565b60019150509392505050565b60006012905090565b6000806107e4610ebd565b90506108058185856107f68589610c68565b6108009190611a3f565b610ec5565b600191505092915050565b60008061081b6106eb565b905060006008541361083157600091505061084f565b6008546064826108419190611ba9565b61084b9190611c1a565b9150505b90565b3373ffffffffffffffffffffffffffffffffffffffff16600b60009054906101000a900473ffffffffffffffffffffffffffffffffffffffff1673ffffffffffffffffffffffffffffffffffffffff16636352211e846040518263ffffffff1660e01b81526004016108c49190611831565b602060405180830381865afa1580156108e1573d6000803e3d6000fd5b505050506040513d601f19601f820116820180604052508101906109059190611c60565b73ffffffffffffffffffffffffffffffffffffffff161461095b576040517f08c379a000000000000000000000000000000000000000000000000000000000815260040161095290611cd9565b60405180910390fd5b80600e60008481526020019081526020016000205410156109b1576040517f08c379a00000000000000000000000000000000000000000000000000000000081526004016109a890611d45565b60405180910390fd5b80600e6000848152602001908152602001600020546109d09190611d65565b600e600084815260200190815260200160002081905550600080600d6000600c5481526020019081526020016000205403610a0f576007549050610a28565b600d6000600c5481526020019081526020016000205490505b600060648383600754610a3b9190611c1a565b610a459190611ba9565b610a4f9190611c1a565b905060008382610a5f9190611d65565b9050610a6b3382611390565b610a763033866107a1565b50610a7f610e88565b5050505050565b60008060008373ffffffffffffffffffffffffffffffffffffffff1673ffffffffffffffffffffffffffffffffffffffff168152602001908152602001600020549050919050565b610ad66114e6565b610ae06000611564565b565b6000600560009054906101000a900473ffffffffffffffffffffffffffffffffffffffff16905090565b606060048054610b1b90611aa2565b80601f0160208091040260200160405190810160405280929190818152602001828054610b4790611aa2565b8015610b945780601f10610b6957610100808354040283529160200191610b94565b820191906000526020600020905b815481529060010190602001808311610b7757829003601f168201915b5050505050905090565b600080610ba9610ebd565b90506000610bb78286610c68565b905083811015610bfc576040517f08c379a0000000000000000000000000000000000000000000000000000000008152600401610bf390611e0b565b60405180910390fd5b610c098286868403610ec5565b60019250505092915050565b600080610c20610ebd565b9050610c2d81858561111a565b600191505092915050565b600e6020528060005260406000206000915090505481565b600d6020528060005260406000206000915090505481565b6000600160008473ffffffffffffffffffffffffffffffffffffffff1673ffffffffffffffffffffffffffffffffffffffff16815260200190815260200160002060008373ffffffffffffffffffffffffffffffffffffffff1673ffffffffffffffffffffffffffffffffffffffff16815260200190815260200160002054905092915050565b600960009054906101000a900473ffffffffffffffffffffffffffffffffffffffff1673ffffffffffffffffffffffffffffffffffffffff163373ffffffffffffffffffffffffffffffffffffffff1614610d7f576040517f08c379a0000000000000000000000000000000000000000000000000000000008152600401610d7690611b45565b60405180910390fd5b81600a60006101000a81548173ffffffffffffffffffffffffffffffffffffffff021916908373ffffffffffffffffffffffffffffffffffffffff16021790555080600b60006101000a81548173ffffffffffffffffffffffffffffffffffffffff021916908373ffffffffffffffffffffffffffffffffffffffff1602179055505050565b610e0d6114e6565b600073ffffffffffffffffffffffffffffffffffffffff168173ffffffffffffffffffffffffffffffffffffffff1603610e7c576040517f08c379a0000000000000000000000000000000000000000000000000000000008152600401610e7390611e9d565b60405180910390fd5b610e8581611564565b50565b6064610e92610810565b6064610e9e9190611a3f565b600754610eab9190611ba9565b610eb59190611c1a565b600781905550565b600033905090565b600073ffffffffffffffffffffffffffffffffffffffff168373ffffffffffffffffffffffffffffffffffffffff1603610f34576040517f08c379a0000000000000000000000000000000000000000000000000000000008152600401610f2b90611f2f565b60405180910390fd5b600073ffffffffffffffffffffffffffffffffffffffff168273ffffffffffffffffffffffffffffffffffffffff1603610fa3576040517f08c379a0000000000000000000000000000000000000000000000000000000008152600401610f9a90611fc1565b60405180910390fd5b80600160008573ffffffffffffffffffffffffffffffffffffffff1673ffffffffffffffffffffffffffffffffffffffff16815260200190815260200160002060008473ffffffffffffffffffffffffffffffffffffffff1673ffffffffffffffffffffffffffffffffffffffff168152602001908152602001600020819055508173ffffffffffffffffffffffffffffffffffffffff168373ffffffffffffffffffffffffffffffffffffffff167f8c5be1e5ebec7d5bd14f71427d1e84f3dd0314c0f7b2291e5b200ac8c7c3b925836040516110819190611831565b60405180910390a3505050565b600061109a8484610c68565b90507fffffffffffffffffffffffffffffffffffffffffffffffffffffffffffffffff81146111145781811015611106576040517f08c379a00000000000000000000000000000000000000000000000000000000081526004016110fd9061202d565b60405180910390fd5b6111138484848403610ec5565b5b50505050565b600073ffffffffffffffffffffffffffffffffffffffff168373ffffffffffffffffffffffffffffffffffffffff1603611189576040517f08c379a0000000000000000000000000000000000000000000000000000000008152600401611180906120bf565b60405180910390fd5b600073ffffffffffffffffffffffffffffffffffffffff168273ffffffffffffffffffffffffffffffffffffffff16036111f8576040517f08c379a00000000000000000000000000000000000000000000000000000000081526004016111ef90612151565b60405180910390fd5b61120383838361162a565b60008060008573ffffffffffffffffffffffffffffffffffffffff1673ffffffffffffffffffffffffffffffffffffffff16815260200190815260200160002054905081811015611289576040517f08c379a0000000000000000000000000000000000000000000000000000000008152600401611280906121e3565b60405180910390fd5b8181036000808673ffffffffffffffffffffffffffffffffffffffff1673ffffffffffffffffffffffffffffffffffffffff16815260200190815260200160002081905550816000808573ffffffffffffffffffffffffffffffffffffffff1673ffffffffffffffffffffffffffffffffffffffff168152602001908152602001600020600082825401925050819055508273ffffffffffffffffffffffffffffffffffffffff168473ffffffffffffffffffffffffffffffffffffffff167fddf252ad1be2c89b69c2b068fc378daa952ba7f163c4a11628f55a4df523b3ef846040516113779190611831565b60405180910390a361138a84848461162f565b50505050565b600073ffffffffffffffffffffffffffffffffffffffff168273ffffffffffffffffffffffffffffffffffffffff16036113ff576040517f08c379a00000000000000000000000000000000000000000000000000000000081526004016113f69061224f565b60405180910390fd5b61140b6000838361162a565b806002600082825461141d9190611a3f565b92505081905550806000808473ffffffffffffffffffffffffffffffffffffffff1673ffffffffffffffffffffffffffffffffffffffff168152602001908152602001600020600082825401925050819055508173ffffffffffffffffffffffffffffffffffffffff16600073ffffffffffffffffffffffffffffffffffffffff167fddf252ad1be2c89b69c2b068fc378daa952ba7f163c4a11628f55a4df523b3ef836040516114ce9190611831565b60405180910390a36114e26000838361162f565b5050565b6114ee610ebd565b73ffffffffffffffffffffffffffffffffffffffff1661150c610ae2565b73ffffffffffffffffffffffffffffffffffffffff1614611562576040517f08c379a0000000000000000000000000000000000000000000000000000000008152600401611559906122bb565b60405180910390fd5b565b6000600560009054906101000a900473ffffffffffffffffffffffffffffffffffffffff16905081600560006101000a81548173ffffffffffffffffffffffffffffffffffffffff021916908373ffffffffffffffffffffffffffffffffffffffff1602179055508173ffffffffffffffffffffffffffffffffffffffff168173ffffffffffffffffffffffffffffffffffffffff167f8be0079c531659141344cd1fd0a4f28419497f9722a3daafe3b4186f6b6457e060405160405180910390a35050565b505050565b505050565b600080fd5b6000819050919050565b61164c81611639565b811461165757600080fd5b50565b60008135905061166981611643565b92915050565b60006020828403121561168557611684611634565b5b60006116938482850161165a565b91505092915050565b600081519050919050565b600082825260208201905092915050565b60005b838110156116d65780820151818401526020810190506116bb565b60008484015250505050565b6000601f19601f8301169050919050565b60006116fe8261169c565b61170881856116a7565b93506117188185602086016116b8565b611721816116e2565b840191505092915050565b6000602082019050818103600083015261174681846116f3565b905092915050565b600073ffffffffffffffffffffffffffffffffffffffff82169050919050565b60006117798261174e565b9050919050565b6117898161176e565b811461179457600080fd5b50565b6000813590506117a681611780565b92915050565b600080604083850312156117c3576117c2611634565b5b60006117d185828601611797565b92505060206117e28582860161165a565b9150509250929050565b60008115159050919050565b611801816117ec565b82525050565b600060208201905061181c60008301846117f8565b92915050565b61182b81611639565b82525050565b60006020820190506118466000830184611822565b92915050565b6000819050919050565b61185f8161184c565b811461186a57600080fd5b50565b60008135905061187c81611856565b92915050565b60006020828403121561189857611897611634565b5b60006118a68482850161186d565b91505092915050565b6000806000606084860312156118c8576118c7611634565b5b60006118d686828701611797565b93505060206118e786828701611797565b92505060406118f88682870161165a565b9150509250925092565b600060ff82169050919050565b61191881611902565b82525050565b6000602082019050611933600083018461190f565b92915050565b600080604083850312156119505761194f611634565b5b600061195e8582860161165a565b925050602061196f8582860161165a565b9150509250929050565b60006020828403121561198f5761198e611634565b5b600061199d84828501611797565b91505092915050565b6119af8161176e565b82525050565b60006020820190506119ca60008301846119a6565b92915050565b600080604083850312156119e7576119e6611634565b5b60006119f585828601611797565b9250506020611a0685828601611797565b9150509250929050565b7f4e487b7100000000000000000000000000000000000000000000000000000000600052601160045260246000fd5b6000611a4a82611639565b9150611a5583611639565b9250828201905080821115611a6d57611a6c611a10565b5b92915050565b7f4e487b7100000000000000000000000000000000000000000000000000000000600052602260045260246000fd5b60006002820490506001821680611aba57607f821691505b602082108103611acd57611acc611a73565b5b50919050565b7f4f6e6c79206f776e65722063616e2063616c6c20746869732066756e6374696f60008201527f6e00000000000000000000000000000000000000000000000000000000000000602082015250565b6000611b2f6021836116a7565b9150611b3a82611ad3565b604082019050919050565b60006020820190508181036000830152611b5e81611b22565b9050919050565b6000611b708261184c565b9150611b7b8361184c565b925082820190508281121560008312168382126000841215161715611ba357611ba2611a10565b5b92915050565b6000611bb482611639565b9150611bbf83611639565b9250828202611bcd81611639565b91508282048414831517611be457611be3611a10565b5b5092915050565b7f4e487b7100000000000000000000000000000000000000000000000000000000600052601260045260246000fd5b6000611c2582611639565b9150611c3083611639565b925082611c4057611c3f611beb565b5b828204905092915050565b600081519050611c5a81611780565b92915050565b600060208284031215611c7657611c75611634565b5b6000611c8484828501611c4b565b91505092915050565b7f4e6f74206f776e65722e00000000000000000000000000000000000000000000600082015250565b6000611cc3600a836116a7565b9150611cce82611c8d565b602082019050919050565b60006020820190508181036000830152611cf281611cb6565b9050919050565b7f4e6f7420656e6f7567682e000000000000000000000000000000000000000000600082015250565b6000611d2f600b836116a7565b9150611d3a82611cf9565b602082019050919050565b60006020820190508181036000830152611d5e81611d22565b9050919050565b6000611d7082611639565b9150611d7b83611639565b9250828203905081811115611d9357611d92611a10565b5b92915050565b7f45524332303a2064656372656173656420616c6c6f77616e63652062656c6f7760008201527f207a65726f000000000000000000000000000000000000000000000000000000602082015250565b6000611df56025836116a7565b9150611e0082611d99565b604082019050919050565b60006020820190508181036000830152611e2481611de8565b9050919050565b7f4f776e61626c653a206e6577206f776e657220697320746865207a65726f206160008201527f6464726573730000000000000000000000000000000000000000000000000000602082015250565b6000611e876026836116a7565b9150611e9282611e2b565b604082019050919050565b60006020820190508181036000830152611eb681611e7a565b9050919050565b7f45524332303a20617070726f76652066726f6d20746865207a65726f2061646460008201527f7265737300000000000000000000000000000000000000000000000000000000602082015250565b6000611f196024836116a7565b9150611f2482611ebd565b604082019050919050565b60006020820190508181036000830152611f4881611f0c565b9050919050565b7f45524332303a20617070726f766520746f20746865207a65726f20616464726560008201527f7373000000000000000000000000000000000000000000000000000000000000602082015250565b6000611fab6022836116a7565b9150611fb682611f4f565b604082019050919050565b60006020820190508181036000830152611fda81611f9e565b9050919050565b7f45524332303a20696e73756666696369656e7420616c6c6f77616e6365000000600082015250565b6000612017601d836116a7565b915061202282611fe1565b602082019050919050565b600060208201905081810360008301526120468161200a565b9050919050565b7f45524332303a207472616e736665722066726f6d20746865207a65726f20616460008201527f6472657373000000000000000000000000000000000000000000000000000000602082015250565b60006120a96025836116a7565b91506120b48261204d565b604082019050919050565b600060208201905081810360008301526120d88161209c565b9050919050565b7f45524332303a207472616e7366657220746f20746865207a65726f206164647260008201527f6573730000000000000000000000000000000000000000000000000000000000602082015250565b600061213b6023836116a7565b9150612146826120df565b604082019050919050565b6000602082019050818103600083015261216a8161212e565b9050919050565b7f45524332303a207472616e7366657220616d6f756e742065786365656473206260008201527f616c616e63650000000000000000000000000000000000000000000000000000602082015250565b60006121cd6026836116a7565b91506121d882612171565b604082019050919050565b600060208201905081810360008301526121fc816121c0565b9050919050565b7f45524332303a206d696e7420746f20746865207a65726f206164647265737300600082015250565b6000612239601f836116a7565b915061224482612203565b602082019050919050565b600060208201905081810360008301526122688161222c565b9050919050565b7f4f776e61626c653a2063616c6c6572206973206e6f7420746865206f776e6572600082015250565b60006122a56020836116a7565b91506122b08261226f565b602082019050919050565b600060208201905081810360008301526122d481612298565b905091905056fea2646970667358221220961632935ee4f708c890b9c2019126dcf744bb255e82bfd23372bc9727c8d4db64736f6c63430008120033",
  "linkReferences": {},
  "deployedLinkReferences": {}
}