{
  "_format": "hh-sol-artifact-1",
  "contractName": "NFTVaultTest",
  "sourceName": "contracts/NFTVaultTest.sol",
  "abi": [
    {
      "inputs": [],
      "stateMutability": "nonpayable",
      "type": "constructor"
    },
    {
      "anonymous": false,
      "inputs": [
        {
          "indexed": true,
          "internalType": "address",
          "name": "owner",
          "type": "address"
        },
        {
          "indexed": true,
          "internalType": "address",
          "name": "spender",
          "type": "address"
        },
        {
          "indexed": false,
          "internalType": "uint256",
          "name": "value",
          "type": "uint256"
        }
      ],
      "name": "Approval",
      "type": "event"
    },
    {
      "anonymous": false,
      "inputs": [
        {
          "indexed": true,
          "internalType": "address",
          "name": "previousOwner",
          "type": "address"
        },
        {
          "indexed": true,
          "internalType": "address",
          "name": "newOwner",
          "type": "address"
        }
      ],
      "name": "OwnershipTransferred",
      "type": "event"
    },
    {
      "anonymous": false,
      "inputs": [
        {
          "indexed": true,
          "internalType": "address",
          "name": "from",
          "type": "address"
        },
        {
          "indexed": true,
          "internalType": "address",
          "name": "to",
          "type": "address"
        },
        {
          "indexed": false,
          "internalType": "uint256",
          "name": "value",
          "type": "uint256"
        }
      ],
      "name": "Transfer",
      "type": "event"
    },
    {
      "stateMutability": "payable",
      "type": "fallback"
    },
    {
      "inputs": [
        {
          "internalType": "address",
          "name": "owner",
          "type": "address"
        },
        {
          "internalType": "address",
          "name": "spender",
          "type": "address"
        }
      ],
      "name": "allowance",
      "outputs": [
        {
          "internalType": "uint256",
          "name": "",
          "type": "uint256"
        }
      ],
      "stateMutability": "view",
      "type": "function"
    },
    {
      "inputs": [
        {
          "internalType": "address",
          "name": "spender",
          "type": "address"
        },
        {
          "internalType": "uint256",
          "name": "amount",
          "type": "uint256"
        }
      ],
      "name": "approve",
      "outputs": [
        {
          "internalType": "bool",
          "name": "",
          "type": "bool"
        }
      ],
      "stateMutability": "nonpayable",
      "type": "function"
    },
    {
      "inputs": [
        {
          "internalType": "address",
          "name": "account",
          "type": "address"
        }
      ],
      "name": "balanceOf",
      "outputs": [
        {
          "internalType": "uint256",
          "name": "",
          "type": "uint256"
        }
      ],
      "stateMutability": "view",
      "type": "function"
    },
    {
      "inputs": [],
      "name": "calculateInterestRate",
      "outputs": [
        {
          "internalType": "uint256",
          "name": "",
          "type": "uint256"
        }
      ],
      "stateMutability": "view",
      "type": "function"
    },
    {
      "inputs": [],
      "name": "decimals",
      "outputs": [
        {
          "internalType": "uint8",
          "name": "",
          "type": "uint8"
        }
      ],
      "stateMutability": "view",
      "type": "function"
    },
    {
      "inputs": [
        {
          "internalType": "address",
          "name": "spender",
          "type": "address"
        },
        {
          "internalType": "uint256",
          "name": "subtractedValue",
          "type": "uint256"
        }
      ],
      "name": "decreaseAllowance",
      "outputs": [
        {
          "internalType": "bool",
          "name": "",
          "type": "bool"
        }
      ],
      "stateMutability": "nonpayable",
      "type": "function"
    },
    {
      "inputs": [
        {
          "internalType": "address",
          "name": "spender",
          "type": "address"
        },
        {
          "internalType": "uint256",
          "name": "addedValue",
          "type": "uint256"
        }
      ],
      "name": "increaseAllowance",
      "outputs": [
        {
          "internalType": "bool",
          "name": "",
          "type": "bool"
        }
      ],
      "stateMutability": "nonpayable",
      "type": "function"
    },
    {
      "inputs": [
        {
          "internalType": "address",
          "name": "_poolAddress",
          "type": "address"
        },
        {
          "internalType": "address",
          "name": "_nftBank",
          "type": "address"
        }
      ],
      "name": "init",
      "outputs": [],
      "stateMutability": "nonpayable",
      "type": "function"
    },
    {
      "inputs": [],
      "name": "name",
      "outputs": [
        {
          "internalType": "string",
          "name": "",
          "type": "string"
        }
      ],
      "stateMutability": "view",
      "type": "function"
    },
    {
      "inputs": [],
      "name": "owner",
      "outputs": [
        {
          "internalType": "address",
          "name": "",
          "type": "address"
        }
      ],
      "stateMutability": "view",
      "type": "function"
    },
    {
      "inputs": [
        {
          "internalType": "uint256",
          "name": "count",
          "type": "uint256"
        }
      ],
      "name": "registerMint",
      "outputs": [],
      "stateMutability": "nonpayable",
      "type": "function"
    },
    {
      "inputs": [],
      "name": "renounceOwnership",
      "outputs": [],
      "stateMutability": "nonpayable",
      "type": "function"
    },
    {
      "inputs": [
        {
          "internalType": "uint256",
          "name": "moneyCount",
          "type": "uint256"
        }
      ],
      "name": "saveMoney",
      "outputs": [],
      "stateMutability": "nonpayable",
      "type": "function"
    },
    {
      "inputs": [
        {
          "internalType": "uint256",
          "name": "",
          "type": "uint256"
        }
      ],
      "name": "savingInterestRate",
      "outputs": [
        {
          "internalType": "uint256",
          "name": "",
          "type": "uint256"
        }
      ],
      "stateMutability": "view",
      "type": "function"
    },
    {
      "inputs": [],
      "name": "symbol",
      "outputs": [
        {
          "internalType": "string",
          "name": "",
          "type": "string"
        }
      ],
      "stateMutability": "view",
      "type": "function"
    },
    {
      "inputs": [],
      "name": "totalSupply",
      "outputs": [
        {
          "internalType": "uint256",
          "name": "",
          "type": "uint256"
        }
      ],
      "stateMutability": "view",
      "type": "function"
    },
    {
      "inputs": [
        {
          "internalType": "address",
          "name": "to",
          "type": "address"
        },
        {
          "internalType": "uint256",
          "name": "amount",
          "type": "uint256"
        }
      ],
      "name": "transfer",
      "outputs": [
        {
          "internalType": "bool",
          "name": "",
          "type": "bool"
        }
      ],
      "stateMutability": "nonpayable",
      "type": "function"
    },
    {
      "inputs": [
        {
          "internalType": "address",
          "name": "from",
          "type": "address"
        },
        {
          "internalType": "address",
          "name": "to",
          "type": "address"
        },
        {
          "internalType": "uint256",
          "name": "amount",
          "type": "uint256"
        }
      ],
      "name": "transferFrom",
      "outputs": [
        {
          "internalType": "bool",
          "name": "",
          "type": "bool"
        }
      ],
      "stateMutability": "nonpayable",
      "type": "function"
    },
    {
      "inputs": [
        {
          "internalType": "address",
          "name": "newOwner",
          "type": "address"
        }
      ],
      "name": "transferOwnership",
      "outputs": [],
      "stateMutability": "nonpayable",
      "type": "function"
    },
    {
      "inputs": [
        {
          "internalType": "int256",
          "name": "tokenCounts",
          "type": "int256"
        }
      ],
      "name": "updateMoneyInNFT",
      "outputs": [],
      "stateMutability": "nonpayable",
      "type": "function"
    },
    {
      "inputs": [
        {
          "internalType": "uint256",
          "name": "",
          "type": "uint256"
        }
      ],
      "name": "userSavingCount",
      "outputs": [
        {
          "internalType": "uint256",
          "name": "",
          "type": "uint256"
        }
      ],
      "stateMutability": "view",
      "type": "function"
    },
    {
      "inputs": [
        {
          "internalType": "uint256",
          "name": "_tokenId",
          "type": "uint256"
        },
        {
          "internalType": "uint256",
          "name": "moneyCount",
          "type": "uint256"
        }
      ],
      "name": "withDrawMoney",
      "outputs": [],
      "stateMutability": "nonpayable",
      "type": "function"
    },
    {
      "stateMutability": "payable",
      "type": "receive"
    }
  ],
  "bytecode": "0x60806040526064600655606460075560006008556000600c553480156200002557600080fd5b506040518060400160405280600d81526020017f4e46545661756c74546f6b656e000000000000000000000000000000000000008152506040518060400160405280600381526020017f4e564300000000000000000000000000000000000000000000000000000000008152508160039081620000a3919062000627565b508060049081620000b5919062000627565b505050620000d8620000cc6200015f60201b60201c565b6200016760201b60201c565b6200011833620000ed6200022d60201b60201c565b600a620000fb91906200089e565b6301312d006200010c9190620008ef565b6200023660201b60201c565b33600960006101000a81548173ffffffffffffffffffffffffffffffffffffffff021916908373ffffffffffffffffffffffffffffffffffffffff16021790555062000a26565b600033905090565b6000600560009054906101000a900473ffffffffffffffffffffffffffffffffffffffff16905081600560006101000a81548173ffffffffffffffffffffffffffffffffffffffff021916908373ffffffffffffffffffffffffffffffffffffffff1602179055508173ffffffffffffffffffffffffffffffffffffffff168173ffffffffffffffffffffffffffffffffffffffff167f8be0079c531659141344cd1fd0a4f28419497f9722a3daafe3b4186f6b6457e060405160405180910390a35050565b60006012905090565b600073ffffffffffffffffffffffffffffffffffffffff168273ffffffffffffffffffffffffffffffffffffffff1603620002a8576040517f08c379a00000000000000000000000000000000000000000000000000000000081526004016200029f906200099b565b60405180910390fd5b620002bc60008383620003a360201b60201c565b8060026000828254620002d09190620009bd565b92505081905550806000808473ffffffffffffffffffffffffffffffffffffffff1673ffffffffffffffffffffffffffffffffffffffff168152602001908152602001600020600082825401925050819055508173ffffffffffffffffffffffffffffffffffffffff16600073ffffffffffffffffffffffffffffffffffffffff167fddf252ad1be2c89b69c2b068fc378daa952ba7f163c4a11628f55a4df523b3ef8360405162000383919062000a09565b60405180910390a36200039f60008383620003a860201b60201c565b5050565b505050565b505050565b600081519050919050565b7f4e487b7100000000000000000000000000000000000000000000000000000000600052604160045260246000fd5b7f4e487b7100000000000000000000000000000000000000000000000000000000600052602260045260246000fd5b600060028204905060018216806200042f57607f821691505b602082108103620004455762000444620003e7565b5b50919050565b60008190508160005260206000209050919050565b60006020601f8301049050919050565b600082821b905092915050565b600060088302620004af7fffffffffffffffffffffffffffffffffffffffffffffffffffffffffffffffff8262000470565b620004bb868362000470565b95508019841693508086168417925050509392505050565b6000819050919050565b6000819050919050565b60006200050862000502620004fc84620004d3565b620004dd565b620004d3565b9050919050565b6000819050919050565b6200052483620004e7565b6200053c62000533826200050f565b8484546200047d565b825550505050565b600090565b6200055362000544565b6200056081848462000519565b505050565b5b8181101562000588576200057c60008262000549565b60018101905062000566565b5050565b601f821115620005d757620005a1816200044b565b620005ac8462000460565b81016020851015620005bc578190505b620005d4620005cb8562000460565b83018262000565565b50505b505050565b600082821c905092915050565b6000620005fc60001984600802620005dc565b1980831691505092915050565b6000620006178383620005e9565b9150826002028217905092915050565b6200063282620003ad565b67ffffffffffffffff8111156200064e576200064d620003b8565b5b6200065a825462000416565b620006678282856200058c565b600060209050601f8311600181146200069f57600084156200068a578287015190505b62000696858262000609565b86555062000706565b601f198416620006af866200044b565b60005b82811015620006d957848901518255600182019150602085019450602081019050620006b2565b86831015620006f95784890151620006f5601f891682620005e9565b8355505b6001600288020188555050505b505050505050565b7f4e487b7100000000000000000000000000000000000000000000000000000000600052601160045260246000fd5b60008160011c9050919050565b6000808291508390505b60018511156200079c578086048111156200077457620007736200070e565b5b6001851615620007845780820291505b808102905062000794856200073d565b945062000754565b94509492505050565b600082620007b757600190506200088a565b81620007c757600090506200088a565b8160018114620007e05760028114620007eb5762000821565b60019150506200088a565b60ff8411156200080057620007ff6200070e565b5b8360020a9150848211156200081a57620008196200070e565b5b506200088a565b5060208310610133831016604e8410600b84101617156200085b5782820a9050838111156200085557620008546200070e565b5b6200088a565b6200086a84848460016200074a565b925090508184048111156200088457620008836200070e565b5b81810290505b9392505050565b600060ff82169050919050565b6000620008ab82620004d3565b9150620008b88362000891565b9250620008e77fffffffffffffffffffffffffffffffffffffffffffffffffffffffffffffffff8484620007a5565b905092915050565b6000620008fc82620004d3565b91506200090983620004d3565b92508282026200091981620004d3565b915082820484148315176200093357620009326200070e565b5b5092915050565b600082825260208201905092915050565b7f45524332303a206d696e7420746f20746865207a65726f206164647265737300600082015250565b600062000983601f836200093a565b915062000990826200094b565b602082019050919050565b60006020820190508181036000830152620009b68162000974565b9050919050565b6000620009ca82620004d3565b9150620009d783620004d3565b9250828201905080821115620009f257620009f16200070e565b5b92915050565b62000a0381620004d3565b82525050565b600060208201905062000a206000830184620009f8565b92915050565b6123e28062000a366000396000f3fe6080604052600436106101395760003560e01c8063715018a6116100ab578063a9059cbb1161006f578063a9059cbb14610430578063c4dd3a9d1461046d578063c9d24fc2146104aa578063dd62ed3e146104e7578063f09a401614610524578063f2fde38b1461054d57610140565b8063715018a61461035d57806374240de3146103745780638da5cb5b1461039d57806395d89b41146103c8578063a457c2d7146103f357610140565b806323b872dd116100fd57806323b872dd14610227578063313ce56714610264578063395093511461028f5780633a082d8e146102cc5780635fec8275146102f757806370a082311461032057610140565b8063066842811461014257806306fdde031461016b578063095ea7b31461019657806318160ddd146101d357806322f4d265146101fe57610140565b3661014057005b005b34801561014e57600080fd5b5061016960048036038101906101649190611740565b610576565b005b34801561017757600080fd5b5061018061066a565b60405161018d91906117fd565b60405180910390f35b3480156101a257600080fd5b506101bd60048036038101906101b8919061187d565b6106fc565b6040516101ca91906118d8565b60405180910390f35b3480156101df57600080fd5b506101e861071f565b6040516101f59190611902565b60405180910390f35b34801561020a57600080fd5b5061022560048036038101906102209190611953565b610729565b005b34801561023357600080fd5b5061024e60048036038101906102499190611980565b6107d5565b60405161025b91906118d8565b60405180910390f35b34801561027057600080fd5b50610279610804565b60405161028691906119ef565b60405180910390f35b34801561029b57600080fd5b506102b660048036038101906102b1919061187d565b61080d565b6040516102c391906118d8565b60405180910390f35b3480156102d857600080fd5b506102e1610844565b6040516102ee9190611902565b60405180910390f35b34801561030357600080fd5b5061031e60048036038101906103199190611a0a565b610886565b005b34801561032c57600080fd5b5061034760048036038101906103429190611a4a565b610aba565b6040516103549190611902565b60405180910390f35b34801561036957600080fd5b50610372610b02565b005b34801561038057600080fd5b5061039b60048036038101906103969190611740565b610b16565b005b3480156103a957600080fd5b506103b2610bb3565b6040516103bf9190611a86565b60405180910390f35b3480156103d457600080fd5b506103dd610bdd565b6040516103ea91906117fd565b60405180910390f35b3480156103ff57600080fd5b5061041a6004803603810190610415919061187d565b610c6f565b60405161042791906118d8565b60405180910390f35b34801561043c57600080fd5b506104576004803603810190610452919061187d565b610ce6565b60405161046491906118d8565b60405180910390f35b34801561047957600080fd5b50610494600480360381019061048f9190611740565b610d09565b6040516104a19190611902565b60405180910390f35b3480156104b657600080fd5b506104d160048036038101906104cc9190611740565b610d21565b6040516104de9190611902565b60405180910390f35b3480156104f357600080fd5b5061050e60048036038101906105099190611aa1565b610d39565b60405161051b9190611902565b60405180910390f35b34801561053057600080fd5b5061054b60048036038101906105469190611aa1565b610dc0565b005b34801561055957600080fd5b50610574600480360381019061056f9190611a4a565b610ed6565b005b6105813330836107d5565b50600b60009054906101000a900473ffffffffffffffffffffffffffffffffffffffff1673ffffffffffffffffffffffffffffffffffffffff166340d097c3336040518263ffffffff1660e01b81526004016105dd9190611a86565b600060405180830381600087803b1580156105f757600080fd5b505af115801561060b573d6000803e3d6000fd5b5050505080600e6000600c54815260200190815260200160002081905550600754600d6000600c548152602001908152602001600020819055506001600c60008282546106589190611b10565b92505081905550610667610f59565b50565b60606003805461067990611b73565b80601f01602080910402602001604051908101604052809291908181526020018280546106a590611b73565b80156106f25780601f106106c7576101008083540402835291602001916106f2565b820191906000526020600020905b8154815290600101906020018083116106d557829003601f168201915b5050505050905090565b600080610707610f8e565b9050610714818585610f96565b600191505092915050565b6000600254905090565b600a60009054906101000a900473ffffffffffffffffffffffffffffffffffffffff1673ffffffffffffffffffffffffffffffffffffffff163373ffffffffffffffffffffffffffffffffffffffff16146107b9576040517f08c379a00000000000000000000000000000000000000000000000000000000081526004016107b090611c16565b60405180910390fd5b80600860008282546107cb9190611c36565b9250508190555050565b6000806107e0610f8e565b90506107ed85828561115f565b6107f88585856111eb565b60019150509392505050565b60006012905090565b600080610818610f8e565b905061083981858561082a8589610d39565b6108349190611b10565b610f96565b600191505092915050565b60008061084f61071f565b9050600060085413610865576000915050610883565b6008546064826108759190611c7a565b61087f9190611ceb565b9150505b90565b3373ffffffffffffffffffffffffffffffffffffffff16600b60009054906101000a900473ffffffffffffffffffffffffffffffffffffffff1673ffffffffffffffffffffffffffffffffffffffff16636352211e846040518263ffffffff1660e01b81526004016108f89190611902565b602060405180830381865afa158015610915573d6000803e3d6000fd5b505050506040513d601f19601f820116820180604052508101906109399190611d31565b73ffffffffffffffffffffffffffffffffffffffff161461098f576040517f08c379a000000000000000000000000000000000000000000000000000000000815260040161098690611daa565b60405180910390fd5b80600e60008481526020019081526020016000205410156109e5576040517f08c379a00000000000000000000000000000000000000000000000000000000081526004016109dc90611e16565b60405180910390fd5b80600e600084815260200190815260200160002054610a049190611e36565b600e600084815260200190815260200160002081905550600080600d6000600c5481526020019081526020016000205403610a43576007549050610a5c565b600d6000600c5481526020019081526020016000205490505b600060648383600754610a6f9190611ceb565b610a799190611c7a565b610a839190611ceb565b905060008382610a939190611e36565b9050610a9f3382611461565b610aaa3033866107d5565b50610ab3610f59565b5050505050565b60008060008373ffffffffffffffffffffffffffffffffffffffff1673ffffffffffffffffffffffffffffffffffffffff168152602001908152602001600020549050919050565b610b0a6115b7565b610b146000611635565b565b600a60009054906101000a900473ffffffffffffffffffffffffffffffffffffffff1673ffffffffffffffffffffffffffffffffffffffff163373ffffffffffffffffffffffffffffffffffffffff1614610ba6576040517f08c379a0000000000000000000000000000000000000000000000000000000008152600401610b9d90611c16565b60405180910390fd5b610bb03382611461565b50565b6000600560009054906101000a900473ffffffffffffffffffffffffffffffffffffffff16905090565b606060048054610bec90611b73565b80601f0160208091040260200160405190810160405280929190818152602001828054610c1890611b73565b8015610c655780601f10610c3a57610100808354040283529160200191610c65565b820191906000526020600020905b815481529060010190602001808311610c4857829003601f168201915b5050505050905090565b600080610c7a610f8e565b90506000610c888286610d39565b905083811015610ccd576040517f08c379a0000000000000000000000000000000000000000000000000000000008152600401610cc490611edc565b60405180910390fd5b610cda8286868403610f96565b60019250505092915050565b600080610cf1610f8e565b9050610cfe8185856111eb565b600191505092915050565b600e6020528060005260406000206000915090505481565b600d6020528060005260406000206000915090505481565b6000600160008473ffffffffffffffffffffffffffffffffffffffff1673ffffffffffffffffffffffffffffffffffffffff16815260200190815260200160002060008373ffffffffffffffffffffffffffffffffffffffff1673ffffffffffffffffffffffffffffffffffffffff16815260200190815260200160002054905092915050565b600960009054906101000a900473ffffffffffffffffffffffffffffffffffffffff1673ffffffffffffffffffffffffffffffffffffffff163373ffffffffffffffffffffffffffffffffffffffff1614610e50576040517f08c379a0000000000000000000000000000000000000000000000000000000008152600401610e4790611c16565b60405180910390fd5b81600a60006101000a81548173ffffffffffffffffffffffffffffffffffffffff021916908373ffffffffffffffffffffffffffffffffffffffff16021790555080600b60006101000a81548173ffffffffffffffffffffffffffffffffffffffff021916908373ffffffffffffffffffffffffffffffffffffffff1602179055505050565b610ede6115b7565b600073ffffffffffffffffffffffffffffffffffffffff168173ffffffffffffffffffffffffffffffffffffffff1603610f4d576040517f08c379a0000000000000000000000000000000000000000000000000000000008152600401610f4490611f6e565b60405180910390fd5b610f5681611635565b50565b6064610f63610844565b6064610f6f9190611b10565b600754610f7c9190611c7a565b610f869190611ceb565b600781905550565b600033905090565b600073ffffffffffffffffffffffffffffffffffffffff168373ffffffffffffffffffffffffffffffffffffffff1603611005576040517f08c379a0000000000000000000000000000000000000000000000000000000008152600401610ffc90612000565b60405180910390fd5b600073ffffffffffffffffffffffffffffffffffffffff168273ffffffffffffffffffffffffffffffffffffffff1603611074576040517f08c379a000000000000000000000000000000000000000000000000000000000815260040161106b90612092565b60405180910390fd5b80600160008573ffffffffffffffffffffffffffffffffffffffff1673ffffffffffffffffffffffffffffffffffffffff16815260200190815260200160002060008473ffffffffffffffffffffffffffffffffffffffff1673ffffffffffffffffffffffffffffffffffffffff168152602001908152602001600020819055508173ffffffffffffffffffffffffffffffffffffffff168373ffffffffffffffffffffffffffffffffffffffff167f8c5be1e5ebec7d5bd14f71427d1e84f3dd0314c0f7b2291e5b200ac8c7c3b925836040516111529190611902565b60405180910390a3505050565b600061116b8484610d39565b90507fffffffffffffffffffffffffffffffffffffffffffffffffffffffffffffffff81146111e557818110156111d7576040517f08c379a00000000000000000000000000000000000000000000000000000000081526004016111ce906120fe565b60405180910390fd5b6111e48484848403610f96565b5b50505050565b600073ffffffffffffffffffffffffffffffffffffffff168373ffffffffffffffffffffffffffffffffffffffff160361125a576040517f08c379a000000000000000000000000000000000000000000000000000000000815260040161125190612190565b60405180910390fd5b600073ffffffffffffffffffffffffffffffffffffffff168273ffffffffffffffffffffffffffffffffffffffff16036112c9576040517f08c379a00000000000000000000000000000000000000000000000000000000081526004016112c090612222565b60405180910390fd5b6112d48383836116fb565b60008060008573ffffffffffffffffffffffffffffffffffffffff1673ffffffffffffffffffffffffffffffffffffffff1681526020019081526020016000205490508181101561135a576040517f08c379a0000000000000000000000000000000000000000000000000000000008152600401611351906122b4565b60405180910390fd5b8181036000808673ffffffffffffffffffffffffffffffffffffffff1673ffffffffffffffffffffffffffffffffffffffff16815260200190815260200160002081905550816000808573ffffffffffffffffffffffffffffffffffffffff1673ffffffffffffffffffffffffffffffffffffffff168152602001908152602001600020600082825401925050819055508273ffffffffffffffffffffffffffffffffffffffff168473ffffffffffffffffffffffffffffffffffffffff167fddf252ad1be2c89b69c2b068fc378daa952ba7f163c4a11628f55a4df523b3ef846040516114489190611902565b60405180910390a361145b848484611700565b50505050565b600073ffffffffffffffffffffffffffffffffffffffff168273ffffffffffffffffffffffffffffffffffffffff16036114d0576040517f08c379a00000000000000000000000000000000000000000000000000000000081526004016114c790612320565b60405180910390fd5b6114dc600083836116fb565b80600260008282546114ee9190611b10565b92505081905550806000808473ffffffffffffffffffffffffffffffffffffffff1673ffffffffffffffffffffffffffffffffffffffff168152602001908152602001600020600082825401925050819055508173ffffffffffffffffffffffffffffffffffffffff16600073ffffffffffffffffffffffffffffffffffffffff167fddf252ad1be2c89b69c2b068fc378daa952ba7f163c4a11628f55a4df523b3ef8360405161159f9190611902565b60405180910390a36115b360008383611700565b5050565b6115bf610f8e565b73ffffffffffffffffffffffffffffffffffffffff166115dd610bb3565b73ffffffffffffffffffffffffffffffffffffffff1614611633576040517f08c379a000000000000000000000000000000000000000000000000000000000815260040161162a9061238c565b60405180910390fd5b565b6000600560009054906101000a900473ffffffffffffffffffffffffffffffffffffffff16905081600560006101000a81548173ffffffffffffffffffffffffffffffffffffffff021916908373ffffffffffffffffffffffffffffffffffffffff1602179055508173ffffffffffffffffffffffffffffffffffffffff168173ffffffffffffffffffffffffffffffffffffffff167f8be0079c531659141344cd1fd0a4f28419497f9722a3daafe3b4186f6b6457e060405160405180910390a35050565b505050565b505050565b600080fd5b6000819050919050565b61171d8161170a565b811461172857600080fd5b50565b60008135905061173a81611714565b92915050565b60006020828403121561175657611755611705565b5b60006117648482850161172b565b91505092915050565b600081519050919050565b600082825260208201905092915050565b60005b838110156117a757808201518184015260208101905061178c565b60008484015250505050565b6000601f19601f8301169050919050565b60006117cf8261176d565b6117d98185611778565b93506117e9818560208601611789565b6117f2816117b3565b840191505092915050565b6000602082019050818103600083015261181781846117c4565b905092915050565b600073ffffffffffffffffffffffffffffffffffffffff82169050919050565b600061184a8261181f565b9050919050565b61185a8161183f565b811461186557600080fd5b50565b60008135905061187781611851565b92915050565b6000806040838503121561189457611893611705565b5b60006118a285828601611868565b92505060206118b38582860161172b565b9150509250929050565b60008115159050919050565b6118d2816118bd565b82525050565b60006020820190506118ed60008301846118c9565b92915050565b6118fc8161170a565b82525050565b600060208201905061191760008301846118f3565b92915050565b6000819050919050565b6119308161191d565b811461193b57600080fd5b50565b60008135905061194d81611927565b92915050565b60006020828403121561196957611968611705565b5b60006119778482850161193e565b91505092915050565b60008060006060848603121561199957611998611705565b5b60006119a786828701611868565b93505060206119b886828701611868565b92505060406119c98682870161172b565b9150509250925092565b600060ff82169050919050565b6119e9816119d3565b82525050565b6000602082019050611a0460008301846119e0565b92915050565b60008060408385031215611a2157611a20611705565b5b6000611a2f8582860161172b565b9250506020611a408582860161172b565b9150509250929050565b600060208284031215611a6057611a5f611705565b5b6000611a6e84828501611868565b91505092915050565b611a808161183f565b82525050565b6000602082019050611a9b6000830184611a77565b92915050565b60008060408385031215611ab857611ab7611705565b5b6000611ac685828601611868565b9250506020611ad785828601611868565b9150509250929050565b7f4e487b7100000000000000000000000000000000000000000000000000000000600052601160045260246000fd5b6000611b1b8261170a565b9150611b268361170a565b9250828201905080821115611b3e57611b3d611ae1565b5b92915050565b7f4e487b7100000000000000000000000000000000000000000000000000000000600052602260045260246000fd5b60006002820490506001821680611b8b57607f821691505b602082108103611b9e57611b9d611b44565b5b50919050565b7f4f6e6c79206f776e65722063616e2063616c6c20746869732066756e6374696f60008201527f6e00000000000000000000000000000000000000000000000000000000000000602082015250565b6000611c00602183611778565b9150611c0b82611ba4565b604082019050919050565b60006020820190508181036000830152611c2f81611bf3565b9050919050565b6000611c418261191d565b9150611c4c8361191d565b925082820190508281121560008312168382126000841215161715611c7457611c73611ae1565b5b92915050565b6000611c858261170a565b9150611c908361170a565b9250828202611c9e8161170a565b91508282048414831517611cb557611cb4611ae1565b5b5092915050565b7f4e487b7100000000000000000000000000000000000000000000000000000000600052601260045260246000fd5b6000611cf68261170a565b9150611d018361170a565b925082611d1157611d10611cbc565b5b828204905092915050565b600081519050611d2b81611851565b92915050565b600060208284031215611d4757611d46611705565b5b6000611d5584828501611d1c565b91505092915050565b7f4e6f74206f776e65722e00000000000000000000000000000000000000000000600082015250565b6000611d94600a83611778565b9150611d9f82611d5e565b602082019050919050565b60006020820190508181036000830152611dc381611d87565b9050919050565b7f4e6f7420656e6f7567682e000000000000000000000000000000000000000000600082015250565b6000611e00600b83611778565b9150611e0b82611dca565b602082019050919050565b60006020820190508181036000830152611e2f81611df3565b9050919050565b6000611e418261170a565b9150611e4c8361170a565b9250828203905081811115611e6457611e63611ae1565b5b92915050565b7f45524332303a2064656372656173656420616c6c6f77616e63652062656c6f7760008201527f207a65726f000000000000000000000000000000000000000000000000000000602082015250565b6000611ec6602583611778565b9150611ed182611e6a565b604082019050919050565b60006020820190508181036000830152611ef581611eb9565b9050919050565b7f4f776e61626c653a206e6577206f776e657220697320746865207a65726f206160008201527f6464726573730000000000000000000000000000000000000000000000000000602082015250565b6000611f58602683611778565b9150611f6382611efc565b604082019050919050565b60006020820190508181036000830152611f8781611f4b565b9050919050565b7f45524332303a20617070726f76652066726f6d20746865207a65726f2061646460008201527f7265737300000000000000000000000000000000000000000000000000000000602082015250565b6000611fea602483611778565b9150611ff582611f8e565b604082019050919050565b6000602082019050818103600083015261201981611fdd565b9050919050565b7f45524332303a20617070726f766520746f20746865207a65726f20616464726560008201527f7373000000000000000000000000000000000000000000000000000000000000602082015250565b600061207c602283611778565b915061208782612020565b604082019050919050565b600060208201905081810360008301526120ab8161206f565b9050919050565b7f45524332303a20696e73756666696369656e7420616c6c6f77616e6365000000600082015250565b60006120e8601d83611778565b91506120f3826120b2565b602082019050919050565b60006020820190508181036000830152612117816120db565b9050919050565b7f45524332303a207472616e736665722066726f6d20746865207a65726f20616460008201527f6472657373000000000000000000000000000000000000000000000000000000602082015250565b600061217a602583611778565b91506121858261211e565b604082019050919050565b600060208201905081810360008301526121a98161216d565b9050919050565b7f45524332303a207472616e7366657220746f20746865207a65726f206164647260008201527f6573730000000000000000000000000000000000000000000000000000000000602082015250565b600061220c602383611778565b9150612217826121b0565b604082019050919050565b6000602082019050818103600083015261223b816121ff565b9050919050565b7f45524332303a207472616e7366657220616d6f756e742065786365656473206260008201527f616c616e63650000000000000000000000000000000000000000000000000000602082015250565b600061229e602683611778565b91506122a982612242565b604082019050919050565b600060208201905081810360008301526122cd81612291565b9050919050565b7f45524332303a206d696e7420746f20746865207a65726f206164647265737300600082015250565b600061230a601f83611778565b9150612315826122d4565b602082019050919050565b60006020820190508181036000830152612339816122fd565b9050919050565b7f4f776e61626c653a2063616c6c6572206973206e6f7420746865206f776e6572600082015250565b6000612376602083611778565b915061238182612340565b602082019050919050565b600060208201905081810360008301526123a581612369565b905091905056fea2646970667358221220577411052cfb4938817a3f5b69f1fc18dccf1504c3bc65f679ab0a51bd44af4c64736f6c63430008120033",
  "linkReferences": {},
  "deployedLinkReferences": {}
}