{
  "_format": "hh-sol-artifact-1",
  "contractName": "OrderManagement",
  "sourceName": "contracts/OrderManagement.sol",
  "abi": [
    {
      "inputs": [
        {
          "internalType": "contract NFTRouter",
          "name": "_nftRouter",
          "type": "address"
        }
      ],
      "stateMutability": "nonpayable",
      "type": "constructor"
    },
    {
      "anonymous": false,
      "inputs": [
        {
          "indexed": true,
          "internalType": "uint256",
          "name": "orderId",
          "type": "uint256"
        }
      ],
      "name": "OrderCanceled",
      "type": "event"
    },
    {
      "anonymous": false,
      "inputs": [
        {
          "indexed": false,
          "internalType": "uint256",
          "name": "orderId",
          "type": "uint256"
        }
      ],
      "name": "OrderCreated",
      "type": "event"
    },
    {
      "anonymous": false,
      "inputs": [
        {
          "indexed": false,
          "internalType": "uint256",
          "name": "orderId",
          "type": "uint256"
        },
        {
          "indexed": false,
          "internalType": "address",
          "name": "buyer",
          "type": "address"
        }
      ],
      "name": "OrderFilled",
      "type": "event"
    },
    {
      "anonymous": false,
      "inputs": [
        {
          "indexed": false,
          "internalType": "uint256",
          "name": "orderId",
          "type": "uint256"
        }
      ],
      "name": "OrderPublished",
      "type": "event"
    },
    {
      "anonymous": false,
      "inputs": [
        {
          "indexed": false,
          "internalType": "uint256",
          "name": "orderId",
          "type": "uint256"
        }
      ],
      "name": "OrderRemoved",
      "type": "event"
    },
    {
      "anonymous": false,
      "inputs": [
        {
          "indexed": false,
          "internalType": "uint256",
          "name": "orderId",
          "type": "uint256"
        },
        {
          "indexed": false,
          "internalType": "enum OrderManagement.Status",
          "name": "status",
          "type": "uint8"
        }
      ],
      "name": "OrderUpdated",
      "type": "event"
    },
    {
      "inputs": [
        {
          "internalType": "uint256",
          "name": "orderId",
          "type": "uint256"
        }
      ],
      "name": "cancelOrder",
      "outputs": [],
      "stateMutability": "nonpayable",
      "type": "function"
    },
    {
      "inputs": [
        {
          "internalType": "address",
          "name": "nftContract",
          "type": "address"
        },
        {
          "internalType": "address",
          "name": "tokenContract",
          "type": "address"
        },
        {
          "internalType": "uint256",
          "name": "tokenId",
          "type": "uint256"
        },
        {
          "internalType": "uint256",
          "name": "price",
          "type": "uint256"
        },
        {
          "internalType": "uint256",
          "name": "expiration",
          "type": "uint256"
        },
        {
          "internalType": "bytes",
          "name": "signature",
          "type": "bytes"
        }
      ],
      "name": "createOrder",
      "outputs": [],
      "stateMutability": "nonpayable",
      "type": "function"
    },
    {
      "inputs": [
        {
          "internalType": "uint256",
          "name": "orderId",
          "type": "uint256"
        }
      ],
      "name": "fillOrder",
      "outputs": [],
      "stateMutability": "nonpayable",
      "type": "function"
    },
    {
      "inputs": [
        {
          "internalType": "uint256",
          "name": "orderId",
          "type": "uint256"
        }
      ],
      "name": "getFillOrderResults",
      "outputs": [
        {
          "internalType": "address",
          "name": "maker",
          "type": "address"
        },
        {
          "internalType": "address",
          "name": "nftContract",
          "type": "address"
        },
        {
          "internalType": "address",
          "name": "tokenContract",
          "type": "address"
        },
        {
          "internalType": "uint256",
          "name": "tokenId",
          "type": "uint256"
        },
        {
          "internalType": "uint256",
          "name": "price",
          "type": "uint256"
        },
        {
          "internalType": "uint256",
          "name": "expiration",
          "type": "uint256"
        },
        {
          "internalType": "enum OrderManagement.Status",
          "name": "status",
          "type": "uint8"
        }
      ],
      "stateMutability": "view",
      "type": "function"
    },
    {
      "inputs": [],
      "name": "nftRouter",
      "outputs": [
        {
          "internalType": "contract NFTRouter",
          "name": "",
          "type": "address"
        }
      ],
      "stateMutability": "view",
      "type": "function"
    },
    {
      "inputs": [
        {
          "internalType": "uint256",
          "name": "",
          "type": "uint256"
        }
      ],
      "name": "orderBook",
      "outputs": [
        {
          "internalType": "address",
          "name": "maker",
          "type": "address"
        },
        {
          "internalType": "address",
          "name": "nftContract",
          "type": "address"
        },
        {
          "internalType": "address",
          "name": "tokenContract",
          "type": "address"
        },
        {
          "internalType": "uint256",
          "name": "tokenId",
          "type": "uint256"
        },
        {
          "internalType": "uint256",
          "name": "price",
          "type": "uint256"
        },
        {
          "internalType": "uint256",
          "name": "expiration",
          "type": "uint256"
        },
        {
          "internalType": "bool",
          "name": "published",
          "type": "bool"
        },
        {
          "internalType": "enum OrderManagement.Status",
          "name": "status",
          "type": "uint8"
        }
      ],
      "stateMutability": "view",
      "type": "function"
    },
    {
      "inputs": [],
      "name": "orderCount",
      "outputs": [
        {
          "internalType": "uint256",
          "name": "",
          "type": "uint256"
        }
      ],
      "stateMutability": "view",
      "type": "function"
    },
    {
      "inputs": [
        {
          "internalType": "uint256",
          "name": "orderId",
          "type": "uint256"
        }
      ],
      "name": "publishOrder",
      "outputs": [],
      "stateMutability": "nonpayable",
      "type": "function"
    },
    {
      "inputs": [
        {
          "internalType": "uint256",
          "name": "orderId",
          "type": "uint256"
        }
      ],
      "name": "removeOrder",
      "outputs": [],
      "stateMutability": "nonpayable",
      "type": "function"
    },
    {
      "inputs": [
        {
          "internalType": "uint256",
          "name": "orderId",
          "type": "uint256"
        },
        {
          "internalType": "enum OrderManagement.Status",
          "name": "status",
          "type": "uint8"
        }
      ],
      "name": "updateOrderStatus",
      "outputs": [],
      "stateMutability": "nonpayable",
      "type": "function"
    }
  ],
  "bytecode": "0x608060405260006001553480156200001657600080fd5b5060405162001ff838038062001ff883398181016040528101906200003c919062000102565b80600260006101000a81548173ffffffffffffffffffffffffffffffffffffffff021916908373ffffffffffffffffffffffffffffffffffffffff1602179055505062000134565b600080fd5b600073ffffffffffffffffffffffffffffffffffffffff82169050919050565b6000620000b68262000089565b9050919050565b6000620000ca82620000a9565b9050919050565b620000dc81620000bd565b8114620000e857600080fd5b50565b600081519050620000fc81620000d1565b92915050565b6000602082840312156200011b576200011a62000084565b5b60006200012b84828501620000eb565b91505092915050565b611eb480620001446000396000f3fe608060405234801561001057600080fd5b506004361061009e5760003560e01c80639645337a116100665780639645337a1461014b578063a20b6e3414610167578063aab3196d1461019e578063b39f554f146101ba578063f8a5375b146101d65761009e565b80632453ffa8146100a35780633e283504146100c1578063514fcac7146100f757806367b830ad14610113578063810489b51461012f575b600080fd5b6100ab6101f4565b6040516100b8919061126c565b60405180910390f35b6100db60048036038101906100d691906112c7565b6101fa565b6040516100ee97969594939291906113ac565b60405180910390f35b610111600480360381019061010c91906112c7565b61033c565b005b61012d600480360381019061012891906112c7565b6104cd565b005b6101496004803603810190610144919061158d565b61074b565b005b610165600480360381019061016091906112c7565b610a73565b005b610181600480360381019061017c91906112c7565b610c1c565b604051610195989796959493929190611651565b60405180910390f35b6101b860048036038101906101b391906116f4565b610cde565b005b6101d460048036038101906101cf91906112c7565b610dfd565b005b6101de610f6d565b6040516101eb9190611793565b60405180910390f35b60015481565b6000806000806000806000806000808a815260200190815260200160002090506001600281111561022e5761022d611335565b5b8160060160019054906101000a900460ff16600281111561025257610251611335565b5b14610292576040517f08c379a00000000000000000000000000000000000000000000000000000000081526004016102899061180b565b60405180910390fd5b8060000160009054906101000a900473ffffffffffffffffffffffffffffffffffffffff168160010160009054906101000a900473ffffffffffffffffffffffffffffffffffffffff168260020160009054906101000a900473ffffffffffffffffffffffffffffffffffffffff168360030154846004015485600501548660060160019054906101000a900460ff16975097509750975097509750975050919395979092949650565b803373ffffffffffffffffffffffffffffffffffffffff1660008083815260200190815260200160002060000160009054906101000a900473ffffffffffffffffffffffffffffffffffffffff1673ffffffffffffffffffffffffffffffffffffffff16146103e0576040517f08c379a00000000000000000000000000000000000000000000000000000000081526004016103d790611877565b60405180910390fd5b600080600084815260200190815260200160002090506000600281111561040a57610409611335565b5b8160060160019054906101000a900460ff16600281111561042e5761042d611335565b5b1461046e576040517f08c379a0000000000000000000000000000000000000000000000000000000008152600401610465906118e3565b60405180910390fd5b60028160060160016101000a81548160ff0219169083600281111561049657610495611335565b5b0217905550827fc41f4ceb2938876c35e61b705e9d2f18a02c4a26ce5e049a6308a943d46851b360405160405180910390a2505050565b60008060008381526020019081526020016000209050600060028111156104f7576104f6611335565b5b8160060160019054906101000a900460ff16600281111561051b5761051a611335565b5b1461055b576040517f08c379a0000000000000000000000000000000000000000000000000000000008152600401610552906118e3565b60405180910390fd5b8060020160009054906101000a900473ffffffffffffffffffffffffffffffffffffffff1673ffffffffffffffffffffffffffffffffffffffff166323b872dd33600260009054906101000a900473ffffffffffffffffffffffffffffffffffffffff1684600401546040518463ffffffff1660e01b81526004016105e293929190611903565b6020604051808303816000875af1158015610601573d6000803e3d6000fd5b505050506040513d601f19601f820116820180604052508101906106259190611966565b508060010160009054906101000a900473ffffffffffffffffffffffffffffffffffffffff1673ffffffffffffffffffffffffffffffffffffffff166323b872dd8260000160009054906101000a900473ffffffffffffffffffffffffffffffffffffffff163384600301546040518463ffffffff1660e01b81526004016106af93929190611903565b600060405180830381600087803b1580156106c957600080fd5b505af11580156106dd573d6000803e3d6000fd5b5050505060018160060160016101000a81548160ff0219169083600281111561070957610708611335565b5b02179055507f74ebbab24ee8774729982ac100f931306b160f431f7f1483cc380186d56754bc823360405161073f929190611993565b60405180910390a15050565b60008686868686604051602001610766959493929190611a25565b6040516020818303038152906040528051906020012090506000816040516020016107919190611b06565b60405160208183030381529060405280519060200120905060006107b58285610f93565b90503373ffffffffffffffffffffffffffffffffffffffff168173ffffffffffffffffffffffffffffffffffffffff1614610825576040517f08c379a000000000000000000000000000000000000000000000000000000000815260040161081c90611b78565b60405180910390fd5b60006040518061010001604052803373ffffffffffffffffffffffffffffffffffffffff1681526020018b73ffffffffffffffffffffffffffffffffffffffff1681526020018a73ffffffffffffffffffffffffffffffffffffffff168152602001898152602001888152602001878152602001600015158152602001600060028111156108b6576108b5611335565b5b815250905080600080600154815260200190815260200160002060008201518160000160006101000a81548173ffffffffffffffffffffffffffffffffffffffff021916908373ffffffffffffffffffffffffffffffffffffffff16021790555060208201518160010160006101000a81548173ffffffffffffffffffffffffffffffffffffffff021916908373ffffffffffffffffffffffffffffffffffffffff16021790555060408201518160020160006101000a81548173ffffffffffffffffffffffffffffffffffffffff021916908373ffffffffffffffffffffffffffffffffffffffff160217905550606082015181600301556080820151816004015560a0820151816005015560c08201518160060160006101000a81548160ff02191690831515021790555060e08201518160060160016101000a81548160ff02191690836002811115610a0e57610a0d611335565b5b02179055509050507f7e82078c35b6665b9d320ebeaa6c266960fad5b802c5558cf7df60c4769af95b600154604051610a47919061126c565b60405180910390a160016000815480929190610a6290611bc7565b919050555050505050505050505050565b803373ffffffffffffffffffffffffffffffffffffffff1660008083815260200190815260200160002060000160009054906101000a900473ffffffffffffffffffffffffffffffffffffffff1673ffffffffffffffffffffffffffffffffffffffff1614610b17576040517f08c379a0000000000000000000000000000000000000000000000000000000008152600401610b0e90611877565b60405180910390fd5b600080838152602001908152602001600020600080820160006101000a81549073ffffffffffffffffffffffffffffffffffffffff02191690556001820160006101000a81549073ffffffffffffffffffffffffffffffffffffffff02191690556002820160006101000a81549073ffffffffffffffffffffffffffffffffffffffff02191690556003820160009055600482016000905560058201600090556006820160006101000a81549060ff02191690556006820160016101000a81549060ff021916905550507f2114a52d297f01ee99b38a96fbd79c650bf37e10c29e0967c6621187fbe2532282604051610c10919061126c565b60405180910390a15050565b60006020528060005260406000206000915090508060000160009054906101000a900473ffffffffffffffffffffffffffffffffffffffff16908060010160009054906101000a900473ffffffffffffffffffffffffffffffffffffffff16908060020160009054906101000a900473ffffffffffffffffffffffffffffffffffffffff16908060030154908060040154908060050154908060060160009054906101000a900460ff16908060060160019054906101000a900460ff16905088565b813373ffffffffffffffffffffffffffffffffffffffff1660008083815260200190815260200160002060000160009054906101000a900473ffffffffffffffffffffffffffffffffffffffff1673ffffffffffffffffffffffffffffffffffffffff1614610d82576040517f08c379a0000000000000000000000000000000000000000000000000000000008152600401610d7990611877565b60405180910390fd5b8160008085815260200190815260200160002060060160016101000a81548160ff02191690836002811115610dba57610db9611335565b5b02179055507f575764e5527275e78fb8b8cecd6ae324a82d9904ef7a29349dabdff1e1f54c358383604051610df0929190611c0f565b60405180910390a1505050565b803373ffffffffffffffffffffffffffffffffffffffff1660008083815260200190815260200160002060000160009054906101000a900473ffffffffffffffffffffffffffffffffffffffff1673ffffffffffffffffffffffffffffffffffffffff1614610ea1576040517f08c379a0000000000000000000000000000000000000000000000000000000008152600401610e9890611877565b60405180910390fd5b60008083815260200190815260200160002060060160009054906101000a900460ff1615610f04576040517f08c379a0000000000000000000000000000000000000000000000000000000008152600401610efb90611c84565b60405180910390fd5b600160008084815260200190815260200160002060060160006101000a81548160ff0219169083151502179055507f33511369d19510f5f3820f40a95b162fe650755e87107162a578499a568c415282604051610f61919061126c565b60405180910390a15050565b600260009054906101000a900473ffffffffffffffffffffffffffffffffffffffff1681565b6000806000610fa28585610fba565b91509150610faf8161100b565b819250505092915050565b6000806041835103610ffb5760008060006020860151925060408601519150606086015160001a9050610fef87828585611171565b94509450505050611004565b60006002915091505b9250929050565b6000600481111561101f5761101e611335565b5b81600481111561103257611031611335565b5b031561116e576001600481111561104c5761104b611335565b5b81600481111561105f5761105e611335565b5b0361109f576040517f08c379a000000000000000000000000000000000000000000000000000000000815260040161109690611cf0565b60405180910390fd5b600260048111156110b3576110b2611335565b5b8160048111156110c6576110c5611335565b5b03611106576040517f08c379a00000000000000000000000000000000000000000000000000000000081526004016110fd90611d5c565b60405180910390fd5b6003600481111561111a57611119611335565b5b81600481111561112d5761112c611335565b5b0361116d576040517f08c379a000000000000000000000000000000000000000000000000000000000815260040161116490611dee565b60405180910390fd5b5b50565b6000807f7fffffffffffffffffffffffffffffff5d576e7357a4501ddfe92f46681b20a08360001c11156111ac57600060039150915061124a565b6000600187878787604051600081526020016040526040516111d19493929190611e39565b6020604051602081039080840390855afa1580156111f3573d6000803e3d6000fd5b505050602060405103519050600073ffffffffffffffffffffffffffffffffffffffff168173ffffffffffffffffffffffffffffffffffffffff16036112415760006001925092505061124a565b80600092509250505b94509492505050565b6000819050919050565b61126681611253565b82525050565b6000602082019050611281600083018461125d565b92915050565b6000604051905090565b600080fd5b600080fd5b6112a481611253565b81146112af57600080fd5b50565b6000813590506112c18161129b565b92915050565b6000602082840312156112dd576112dc611291565b5b60006112eb848285016112b2565b91505092915050565b600073ffffffffffffffffffffffffffffffffffffffff82169050919050565b600061131f826112f4565b9050919050565b61132f81611314565b82525050565b7f4e487b7100000000000000000000000000000000000000000000000000000000600052602160045260246000fd5b6003811061137557611374611335565b5b50565b600081905061138682611364565b919050565b600061139682611378565b9050919050565b6113a68161138b565b82525050565b600060e0820190506113c1600083018a611326565b6113ce6020830189611326565b6113db6040830188611326565b6113e8606083018761125d565b6113f5608083018661125d565b61140260a083018561125d565b61140f60c083018461139d565b98975050505050505050565b61142481611314565b811461142f57600080fd5b50565b6000813590506114418161141b565b92915050565b600080fd5b600080fd5b6000601f19601f8301169050919050565b7f4e487b7100000000000000000000000000000000000000000000000000000000600052604160045260246000fd5b61149a82611451565b810181811067ffffffffffffffff821117156114b9576114b8611462565b5b80604052505050565b60006114cc611287565b90506114d88282611491565b919050565b600067ffffffffffffffff8211156114f8576114f7611462565b5b61150182611451565b9050602081019050919050565b82818337600083830152505050565b600061153061152b846114dd565b6114c2565b90508281526020810184848401111561154c5761154b61144c565b5b61155784828561150e565b509392505050565b600082601f83011261157457611573611447565b5b813561158484826020860161151d565b91505092915050565b60008060008060008060c087890312156115aa576115a9611291565b5b60006115b889828a01611432565b96505060206115c989828a01611432565b95505060406115da89828a016112b2565b94505060606115eb89828a016112b2565b93505060806115fc89828a016112b2565b92505060a087013567ffffffffffffffff81111561161d5761161c611296565b5b61162989828a0161155f565b9150509295509295509295565b60008115159050919050565b61164b81611636565b82525050565b600061010082019050611667600083018b611326565b611674602083018a611326565b6116816040830189611326565b61168e606083018861125d565b61169b608083018761125d565b6116a860a083018661125d565b6116b560c0830185611642565b6116c260e083018461139d565b9998505050505050505050565b600381106116dc57600080fd5b50565b6000813590506116ee816116cf565b92915050565b6000806040838503121561170b5761170a611291565b5b6000611719858286016112b2565b925050602061172a858286016116df565b9150509250929050565b6000819050919050565b600061175961175461174f846112f4565b611734565b6112f4565b9050919050565b600061176b8261173e565b9050919050565b600061177d82611760565b9050919050565b61178d81611772565b82525050565b60006020820190506117a86000830184611784565b92915050565b600082825260208201905092915050565b7f4f7264657220686173206e6f74206265656e2066696c6c656400000000000000600082015250565b60006117f56019836117ae565b9150611800826117bf565b602082019050919050565b60006020820190508181036000830152611824816117e8565b9050919050565b7f4e6f7420617574686f72697a6564000000000000000000000000000000000000600082015250565b6000611861600e836117ae565b915061186c8261182b565b602082019050919050565b6000602082019050818103600083015261189081611854565b9050919050565b7f4f72646572206973206e6f74206f70656e000000000000000000000000000000600082015250565b60006118cd6011836117ae565b91506118d882611897565b602082019050919050565b600060208201905081810360008301526118fc816118c0565b9050919050565b60006060820190506119186000830186611326565b6119256020830185611326565b611932604083018461125d565b949350505050565b61194381611636565b811461194e57600080fd5b50565b6000815190506119608161193a565b92915050565b60006020828403121561197c5761197b611291565b5b600061198a84828501611951565b91505092915050565b60006040820190506119a8600083018561125d565b6119b56020830184611326565b9392505050565b60008160601b9050919050565b60006119d4826119bc565b9050919050565b60006119e6826119c9565b9050919050565b6119fe6119f982611314565b6119db565b82525050565b6000819050919050565b611a1f611a1a82611253565b611a04565b82525050565b6000611a3182886119ed565b601482019150611a4182876119ed565b601482019150611a518286611a0e565b602082019150611a618285611a0e565b602082019150611a718284611a0e565b6020820191508190509695505050505050565b600081905092915050565b7f19457468657265756d205369676e6564204d6573736167653a0a333200000000600082015250565b6000611ac5601c83611a84565b9150611ad082611a8f565b601c82019050919050565b6000819050919050565b6000819050919050565b611b00611afb82611adb565b611ae5565b82525050565b6000611b1182611ab8565b9150611b1d8284611aef565b60208201915081905092915050565b7f496e76616c6964207369676e6174757265000000000000000000000000000000600082015250565b6000611b626011836117ae565b9150611b6d82611b2c565b602082019050919050565b60006020820190508181036000830152611b9181611b55565b9050919050565b7f4e487b7100000000000000000000000000000000000000000000000000000000600052601160045260246000fd5b6000611bd282611253565b91507fffffffffffffffffffffffffffffffffffffffffffffffffffffffffffffffff8203611c0457611c03611b98565b5b600182019050919050565b6000604082019050611c24600083018561125d565b611c31602083018461139d565b9392505050565b7f4f7264657220616c7265616479207075626c6973686564000000000000000000600082015250565b6000611c6e6017836117ae565b9150611c7982611c38565b602082019050919050565b60006020820190508181036000830152611c9d81611c61565b9050919050565b7f45434453413a20696e76616c6964207369676e61747572650000000000000000600082015250565b6000611cda6018836117ae565b9150611ce582611ca4565b602082019050919050565b60006020820190508181036000830152611d0981611ccd565b9050919050565b7f45434453413a20696e76616c6964207369676e6174757265206c656e67746800600082015250565b6000611d46601f836117ae565b9150611d5182611d10565b602082019050919050565b60006020820190508181036000830152611d7581611d39565b9050919050565b7f45434453413a20696e76616c6964207369676e6174757265202773272076616c60008201527f7565000000000000000000000000000000000000000000000000000000000000602082015250565b6000611dd86022836117ae565b9150611de382611d7c565b604082019050919050565b60006020820190508181036000830152611e0781611dcb565b9050919050565b611e1781611adb565b82525050565b600060ff82169050919050565b611e3381611e1d565b82525050565b6000608082019050611e4e6000830187611e0e565b611e5b6020830186611e2a565b611e686040830185611e0e565b611e756060830184611e0e565b9594505050505056fea2646970667358221220841035db2b6661db54a5f4360f2da23d0d715e116dd8ac62a82e8355340015c364736f6c63430008120033",
  "linkReferences": {},
  "deployedLinkReferences": {}
}