{
  "_format": "hh-sol-artifact-1",
  "contractName": "OrderManagement",
  "sourceName": "contracts/OrderManagement.sol",
  "abi": [
    {
      "inputs": [
        {
          "internalType": "contract NFTRouter",
          "name": "_nftRouter",
          "type": "address"
        }
      ],
      "stateMutability": "nonpayable",
      "type": "constructor"
    },
    {
      "anonymous": false,
      "inputs": [
        {
          "indexed": false,
          "internalType": "uint256",
          "name": "orderId",
          "type": "uint256"
        }
      ],
      "name": "OrderCreated",
      "type": "event"
    },
    {
      "anonymous": false,
      "inputs": [
        {
          "indexed": false,
          "internalType": "uint256",
          "name": "orderId",
          "type": "uint256"
        }
      ],
      "name": "OrderPublished",
      "type": "event"
    },
    {
      "anonymous": false,
      "inputs": [
        {
          "indexed": false,
          "internalType": "uint256",
          "name": "orderId",
          "type": "uint256"
        }
      ],
      "name": "OrderRemoved",
      "type": "event"
    },
    {
      "anonymous": false,
      "inputs": [
        {
          "indexed": false,
          "internalType": "uint256",
          "name": "orderId",
          "type": "uint256"
        },
        {
          "indexed": false,
          "internalType": "enum OrderManagement.Status",
          "name": "status",
          "type": "uint8"
        }
      ],
      "name": "OrderUpdated",
      "type": "event"
    },
    {
      "inputs": [
        {
          "internalType": "address",
          "name": "nftContract",
          "type": "address"
        },
        {
          "internalType": "address",
          "name": "tokenContract",
          "type": "address"
        },
        {
          "internalType": "uint256",
          "name": "tokenId",
          "type": "uint256"
        },
        {
          "internalType": "uint256",
          "name": "price",
          "type": "uint256"
        },
        {
          "internalType": "uint256",
          "name": "expiration",
          "type": "uint256"
        },
        {
          "internalType": "bytes",
          "name": "signature",
          "type": "bytes"
        }
      ],
      "name": "createOrder",
      "outputs": [],
      "stateMutability": "nonpayable",
      "type": "function"
    },
    {
      "inputs": [],
      "name": "getNFTRouter",
      "outputs": [
        {
          "internalType": "contract NFTRouter",
          "name": "",
          "type": "address"
        }
      ],
      "stateMutability": "view",
      "type": "function"
    },
    {
      "inputs": [
        {
          "internalType": "uint256",
          "name": "orderId",
          "type": "uint256"
        }
      ],
      "name": "getOrder",
      "outputs": [
        {
          "components": [
            {
              "internalType": "address",
              "name": "maker",
              "type": "address"
            },
            {
              "internalType": "address",
              "name": "nftContract",
              "type": "address"
            },
            {
              "internalType": "address",
              "name": "tokenContract",
              "type": "address"
            },
            {
              "internalType": "uint256",
              "name": "tokenId",
              "type": "uint256"
            },
            {
              "internalType": "uint256",
              "name": "price",
              "type": "uint256"
            },
            {
              "internalType": "uint256",
              "name": "expiration",
              "type": "uint256"
            },
            {
              "internalType": "bool",
              "name": "published",
              "type": "bool"
            },
            {
              "internalType": "enum OrderManagement.Status",
              "name": "status",
              "type": "uint8"
            }
          ],
          "internalType": "struct OrderManagement.Order",
          "name": "",
          "type": "tuple"
        }
      ],
      "stateMutability": "view",
      "type": "function"
    },
    {
      "inputs": [],
      "name": "nftRouter",
      "outputs": [
        {
          "internalType": "contract NFTRouter",
          "name": "",
          "type": "address"
        }
      ],
      "stateMutability": "view",
      "type": "function"
    },
    {
      "inputs": [
        {
          "internalType": "uint256",
          "name": "",
          "type": "uint256"
        }
      ],
      "name": "orderBook",
      "outputs": [
        {
          "internalType": "address",
          "name": "maker",
          "type": "address"
        },
        {
          "internalType": "address",
          "name": "nftContract",
          "type": "address"
        },
        {
          "internalType": "address",
          "name": "tokenContract",
          "type": "address"
        },
        {
          "internalType": "uint256",
          "name": "tokenId",
          "type": "uint256"
        },
        {
          "internalType": "uint256",
          "name": "price",
          "type": "uint256"
        },
        {
          "internalType": "uint256",
          "name": "expiration",
          "type": "uint256"
        },
        {
          "internalType": "bool",
          "name": "published",
          "type": "bool"
        },
        {
          "internalType": "enum OrderManagement.Status",
          "name": "status",
          "type": "uint8"
        }
      ],
      "stateMutability": "view",
      "type": "function"
    },
    {
      "inputs": [],
      "name": "orderCount",
      "outputs": [
        {
          "internalType": "uint256",
          "name": "",
          "type": "uint256"
        }
      ],
      "stateMutability": "view",
      "type": "function"
    },
    {
      "inputs": [
        {
          "internalType": "uint256",
          "name": "orderId",
          "type": "uint256"
        }
      ],
      "name": "publishOrder",
      "outputs": [],
      "stateMutability": "nonpayable",
      "type": "function"
    },
    {
      "inputs": [
        {
          "internalType": "uint256",
          "name": "orderId",
          "type": "uint256"
        }
      ],
      "name": "removeOrder",
      "outputs": [],
      "stateMutability": "nonpayable",
      "type": "function"
    },
    {
      "inputs": [
        {
          "internalType": "uint256",
          "name": "orderId",
          "type": "uint256"
        },
        {
          "internalType": "enum OrderManagement.Status",
          "name": "status",
          "type": "uint8"
        }
      ],
      "name": "updateOrderStatus",
      "outputs": [],
      "stateMutability": "nonpayable",
      "type": "function"
    }
  ],
  "bytecode": "0x608060405260006001553480156200001657600080fd5b5060405162001ca638038062001ca683398181016040528101906200003c919062000102565b80600260006101000a81548173ffffffffffffffffffffffffffffffffffffffff021916908373ffffffffffffffffffffffffffffffffffffffff1602179055505062000134565b600080fd5b600073ffffffffffffffffffffffffffffffffffffffff82169050919050565b6000620000b68262000089565b9050919050565b6000620000ca82620000a9565b9050919050565b620000dc81620000bd565b8114620000e857600080fd5b50565b600081519050620000fc81620000d1565b92915050565b6000602082840312156200011b576200011a62000084565b5b60006200012b84828501620000eb565b91505092915050565b611b6280620001446000396000f3fe608060405234801561001057600080fd5b50600436106100935760003560e01c8063a20b6e3411610066578063a20b6e341461010c578063aab3196d14610143578063b39f554f1461015f578063d09ef2411461017b578063f8a5375b146101ab57610093565b80630613340e146100985780632453ffa8146100b6578063810489b5146100d45780639645337a146100f0575b600080fd5b6100a06101c9565b6040516100ad919061104f565b60405180910390f35b6100be6101f3565b6040516100cb9190611083565b60405180910390f35b6100ee60048036038101906100e99190611262565b6101f9565b005b61010a6004803603810190610105919061130b565b6105b2565b005b6101266004803603810190610121919061130b565b61075b565b60405161013a9897969594939291906113d9565b60405180910390f35b61015d6004803603810190610158919061147c565b61081d565b005b6101796004803603810190610174919061130b565b61093c565b005b6101956004803603810190610190919061130b565b610aac565b6040516101a2919061159a565b60405180910390f35b6101b3610c4f565b6040516101c0919061104f565b60405180910390f35b6000600260009054906101000a900473ffffffffffffffffffffffffffffffffffffffff16905090565b60015481565b6000868686868660405160200161021495949392919061161f565b60405160208183030381529060405280519060200120905060008160405160200161023f9190611700565b60405160208183030381529060405280519060200120905060006102638285610c75565b90503373ffffffffffffffffffffffffffffffffffffffff168173ffffffffffffffffffffffffffffffffffffffff16146102d3576040517f08c379a00000000000000000000000000000000000000000000000000000000081526004016102ca90611783565b60405180910390fd5b600260009054906101000a900473ffffffffffffffffffffffffffffffffffffffff1673ffffffffffffffffffffffffffffffffffffffff1663eafe0fc28a898b6040518463ffffffff1660e01b8152600401610332939291906117a3565b600060405180830381600087803b15801561034c57600080fd5b505af1158015610360573d6000803e3d6000fd5b5050505060006040518061010001604052803373ffffffffffffffffffffffffffffffffffffffff1681526020018b73ffffffffffffffffffffffffffffffffffffffff1681526020018a73ffffffffffffffffffffffffffffffffffffffff168152602001898152602001888152602001878152602001600015158152602001600060028111156103f5576103f4611362565b5b815250905080600080600154815260200190815260200160002060008201518160000160006101000a81548173ffffffffffffffffffffffffffffffffffffffff021916908373ffffffffffffffffffffffffffffffffffffffff16021790555060208201518160010160006101000a81548173ffffffffffffffffffffffffffffffffffffffff021916908373ffffffffffffffffffffffffffffffffffffffff16021790555060408201518160020160006101000a81548173ffffffffffffffffffffffffffffffffffffffff021916908373ffffffffffffffffffffffffffffffffffffffff160217905550606082015181600301556080820151816004015560a0820151816005015560c08201518160060160006101000a81548160ff02191690831515021790555060e08201518160060160016101000a81548160ff0219169083600281111561054d5761054c611362565b5b02179055509050507f7e82078c35b6665b9d320ebeaa6c266960fad5b802c5558cf7df60c4769af95b6001546040516105869190611083565b60405180910390a1600160008154809291906105a190611809565b919050555050505050505050505050565b803373ffffffffffffffffffffffffffffffffffffffff1660008083815260200190815260200160002060000160009054906101000a900473ffffffffffffffffffffffffffffffffffffffff1673ffffffffffffffffffffffffffffffffffffffff1614610656576040517f08c379a000000000000000000000000000000000000000000000000000000000815260040161064d9061189d565b60405180910390fd5b600080838152602001908152602001600020600080820160006101000a81549073ffffffffffffffffffffffffffffffffffffffff02191690556001820160006101000a81549073ffffffffffffffffffffffffffffffffffffffff02191690556002820160006101000a81549073ffffffffffffffffffffffffffffffffffffffff02191690556003820160009055600482016000905560058201600090556006820160006101000a81549060ff02191690556006820160016101000a81549060ff021916905550507f2114a52d297f01ee99b38a96fbd79c650bf37e10c29e0967c6621187fbe253228260405161074f9190611083565b60405180910390a15050565b60006020528060005260406000206000915090508060000160009054906101000a900473ffffffffffffffffffffffffffffffffffffffff16908060010160009054906101000a900473ffffffffffffffffffffffffffffffffffffffff16908060020160009054906101000a900473ffffffffffffffffffffffffffffffffffffffff16908060030154908060040154908060050154908060060160009054906101000a900460ff16908060060160019054906101000a900460ff16905088565b813373ffffffffffffffffffffffffffffffffffffffff1660008083815260200190815260200160002060000160009054906101000a900473ffffffffffffffffffffffffffffffffffffffff1673ffffffffffffffffffffffffffffffffffffffff16146108c1576040517f08c379a00000000000000000000000000000000000000000000000000000000081526004016108b89061189d565b60405180910390fd5b8160008085815260200190815260200160002060060160016101000a81548160ff021916908360028111156108f9576108f8611362565b5b02179055507f575764e5527275e78fb8b8cecd6ae324a82d9904ef7a29349dabdff1e1f54c35838360405161092f9291906118bd565b60405180910390a1505050565b803373ffffffffffffffffffffffffffffffffffffffff1660008083815260200190815260200160002060000160009054906101000a900473ffffffffffffffffffffffffffffffffffffffff1673ffffffffffffffffffffffffffffffffffffffff16146109e0576040517f08c379a00000000000000000000000000000000000000000000000000000000081526004016109d79061189d565b60405180910390fd5b60008083815260200190815260200160002060060160009054906101000a900460ff1615610a43576040517f08c379a0000000000000000000000000000000000000000000000000000000008152600401610a3a90611932565b60405180910390fd5b600160008084815260200190815260200160002060060160006101000a81548160ff0219169083151502179055507f33511369d19510f5f3820f40a95b162fe650755e87107162a578499a568c415282604051610aa09190611083565b60405180910390a15050565b610ab4610f35565b600080838152602001908152602001600020604051806101000160405290816000820160009054906101000a900473ffffffffffffffffffffffffffffffffffffffff1673ffffffffffffffffffffffffffffffffffffffff1673ffffffffffffffffffffffffffffffffffffffff1681526020016001820160009054906101000a900473ffffffffffffffffffffffffffffffffffffffff1673ffffffffffffffffffffffffffffffffffffffff1673ffffffffffffffffffffffffffffffffffffffff1681526020016002820160009054906101000a900473ffffffffffffffffffffffffffffffffffffffff1673ffffffffffffffffffffffffffffffffffffffff1673ffffffffffffffffffffffffffffffffffffffff1681526020016003820154815260200160048201548152602001600582015481526020016006820160009054906101000a900460ff161515151581526020016006820160019054906101000a900460ff166002811115610c3257610c31611362565b5b6002811115610c4457610c43611362565b5b815250509050919050565b600260009054906101000a900473ffffffffffffffffffffffffffffffffffffffff1681565b6000806000610c848585610c9c565b91509150610c9181610ced565b819250505092915050565b6000806041835103610cdd5760008060006020860151925060408601519150606086015160001a9050610cd187828585610e53565b94509450505050610ce6565b60006002915091505b9250929050565b60006004811115610d0157610d00611362565b5b816004811115610d1457610d13611362565b5b0315610e505760016004811115610d2e57610d2d611362565b5b816004811115610d4157610d40611362565b5b03610d81576040517f08c379a0000000000000000000000000000000000000000000000000000000008152600401610d789061199e565b60405180910390fd5b60026004811115610d9557610d94611362565b5b816004811115610da857610da7611362565b5b03610de8576040517f08c379a0000000000000000000000000000000000000000000000000000000008152600401610ddf90611a0a565b60405180910390fd5b60036004811115610dfc57610dfb611362565b5b816004811115610e0f57610e0e611362565b5b03610e4f576040517f08c379a0000000000000000000000000000000000000000000000000000000008152600401610e4690611a9c565b60405180910390fd5b5b50565b6000807f7fffffffffffffffffffffffffffffff5d576e7357a4501ddfe92f46681b20a08360001c1115610e8e576000600391509150610f2c565b600060018787878760405160008152602001604052604051610eb39493929190611ae7565b6020604051602081039080840390855afa158015610ed5573d6000803e3d6000fd5b505050602060405103519050600073ffffffffffffffffffffffffffffffffffffffff168173ffffffffffffffffffffffffffffffffffffffff1603610f2357600060019250925050610f2c565b80600092509250505b94509492505050565b604051806101000160405280600073ffffffffffffffffffffffffffffffffffffffff168152602001600073ffffffffffffffffffffffffffffffffffffffff168152602001600073ffffffffffffffffffffffffffffffffffffffff16815260200160008152602001600081526020016000815260200160001515815260200160006002811115610fca57610fc9611362565b5b81525090565b600073ffffffffffffffffffffffffffffffffffffffff82169050919050565b6000819050919050565b600061101561101061100b84610fd0565b610ff0565b610fd0565b9050919050565b600061102782610ffa565b9050919050565b60006110398261101c565b9050919050565b6110498161102e565b82525050565b60006020820190506110646000830184611040565b92915050565b6000819050919050565b61107d8161106a565b82525050565b60006020820190506110986000830184611074565b92915050565b6000604051905090565b600080fd5b600080fd5b60006110bd82610fd0565b9050919050565b6110cd816110b2565b81146110d857600080fd5b50565b6000813590506110ea816110c4565b92915050565b6110f98161106a565b811461110457600080fd5b50565b600081359050611116816110f0565b92915050565b600080fd5b600080fd5b6000601f19601f8301169050919050565b7f4e487b7100000000000000000000000000000000000000000000000000000000600052604160045260246000fd5b61116f82611126565b810181811067ffffffffffffffff8211171561118e5761118d611137565b5b80604052505050565b60006111a161109e565b90506111ad8282611166565b919050565b600067ffffffffffffffff8211156111cd576111cc611137565b5b6111d682611126565b9050602081019050919050565b82818337600083830152505050565b6000611205611200846111b2565b611197565b90508281526020810184848401111561122157611220611121565b5b61122c8482856111e3565b509392505050565b600082601f8301126112495761124861111c565b5b81356112598482602086016111f2565b91505092915050565b60008060008060008060c0878903121561127f5761127e6110a8565b5b600061128d89828a016110db565b965050602061129e89828a016110db565b95505060406112af89828a01611107565b94505060606112c089828a01611107565b93505060806112d189828a01611107565b92505060a087013567ffffffffffffffff8111156112f2576112f16110ad565b5b6112fe89828a01611234565b9150509295509295509295565b600060208284031215611321576113206110a8565b5b600061132f84828501611107565b91505092915050565b611341816110b2565b82525050565b60008115159050919050565b61135c81611347565b82525050565b7f4e487b7100000000000000000000000000000000000000000000000000000000600052602160045260246000fd5b600381106113a2576113a1611362565b5b50565b60008190506113b382611391565b919050565b60006113c3826113a5565b9050919050565b6113d3816113b8565b82525050565b6000610100820190506113ef600083018b611338565b6113fc602083018a611338565b6114096040830189611338565b6114166060830188611074565b6114236080830187611074565b61143060a0830186611074565b61143d60c0830185611353565b61144a60e08301846113ca565b9998505050505050505050565b6003811061146457600080fd5b50565b60008135905061147681611457565b92915050565b60008060408385031215611493576114926110a8565b5b60006114a185828601611107565b92505060206114b285828601611467565b9150509250929050565b6114c5816110b2565b82525050565b6114d48161106a565b82525050565b6114e381611347565b82525050565b6114f2816113b8565b82525050565b6101008201600082015161150f60008501826114bc565b50602082015161152260208501826114bc565b50604082015161153560408501826114bc565b50606082015161154860608501826114cb565b50608082015161155b60808501826114cb565b5060a082015161156e60a08501826114cb565b5060c082015161158160c08501826114da565b5060e082015161159460e08501826114e9565b50505050565b6000610100820190506115b060008301846114f8565b92915050565b60008160601b9050919050565b60006115ce826115b6565b9050919050565b60006115e0826115c3565b9050919050565b6115f86115f3826110b2565b6115d5565b82525050565b6000819050919050565b6116196116148261106a565b6115fe565b82525050565b600061162b82886115e7565b60148201915061163b82876115e7565b60148201915061164b8286611608565b60208201915061165b8285611608565b60208201915061166b8284611608565b6020820191508190509695505050505050565b600081905092915050565b7f19457468657265756d205369676e6564204d6573736167653a0a333200000000600082015250565b60006116bf601c8361167e565b91506116ca82611689565b601c82019050919050565b6000819050919050565b6000819050919050565b6116fa6116f5826116d5565b6116df565b82525050565b600061170b826116b2565b915061171782846116e9565b60208201915081905092915050565b600082825260208201905092915050565b7f496e76616c6964207369676e6174757265000000000000000000000000000000600082015250565b600061176d601183611726565b915061177882611737565b602082019050919050565b6000602082019050818103600083015261179c81611760565b9050919050565b60006060820190506117b86000830186611338565b6117c56020830185611074565b6117d26040830184611338565b949350505050565b7f4e487b7100000000000000000000000000000000000000000000000000000000600052601160045260246000fd5b60006118148261106a565b91507fffffffffffffffffffffffffffffffffffffffffffffffffffffffffffffffff8203611846576118456117da565b5b600182019050919050565b7f4e6f7420617574686f72697a6564000000000000000000000000000000000000600082015250565b6000611887600e83611726565b915061189282611851565b602082019050919050565b600060208201905081810360008301526118b68161187a565b9050919050565b60006040820190506118d26000830185611074565b6118df60208301846113ca565b9392505050565b7f4f7264657220616c7265616479207075626c6973686564000000000000000000600082015250565b600061191c601783611726565b9150611927826118e6565b602082019050919050565b6000602082019050818103600083015261194b8161190f565b9050919050565b7f45434453413a20696e76616c6964207369676e61747572650000000000000000600082015250565b6000611988601883611726565b915061199382611952565b602082019050919050565b600060208201905081810360008301526119b78161197b565b9050919050565b7f45434453413a20696e76616c6964207369676e6174757265206c656e67746800600082015250565b60006119f4601f83611726565b91506119ff826119be565b602082019050919050565b60006020820190508181036000830152611a23816119e7565b9050919050565b7f45434453413a20696e76616c6964207369676e6174757265202773272076616c60008201527f7565000000000000000000000000000000000000000000000000000000000000602082015250565b6000611a86602283611726565b9150611a9182611a2a565b604082019050919050565b60006020820190508181036000830152611ab581611a79565b9050919050565b611ac5816116d5565b82525050565b600060ff82169050919050565b611ae181611acb565b82525050565b6000608082019050611afc6000830187611abc565b611b096020830186611ad8565b611b166040830185611abc565b611b236060830184611abc565b9594505050505056fea2646970667358221220e8b61b31f6e9534e3ebd5b48367bd290956aefe780ac9d75c771c3d4a243e81564736f6c63430008120033",
  "linkReferences": {},
  "deployedLinkReferences": {}
}