{
  "_format": "hh-sol-artifact-1",
  "contractName": "OrderManagement",
  "sourceName": "contracts/OrderManagement.sol",
  "abi": [
    {
      "inputs": [
        {
          "internalType": "contract NFTRouter",
          "name": "_nftRouter",
          "type": "address"
        }
      ],
      "stateMutability": "nonpayable",
      "type": "constructor"
    },
    {
      "anonymous": false,
      "inputs": [
        {
          "indexed": true,
          "internalType": "uint256",
          "name": "orderId",
          "type": "uint256"
        }
      ],
      "name": "OrderCanceled",
      "type": "event"
    },
    {
      "anonymous": false,
      "inputs": [
        {
          "indexed": false,
          "internalType": "uint256",
          "name": "orderId",
          "type": "uint256"
        }
      ],
      "name": "OrderCreated",
      "type": "event"
    },
    {
      "anonymous": false,
      "inputs": [
        {
          "indexed": false,
          "internalType": "uint256",
          "name": "orderId",
          "type": "uint256"
        },
        {
          "indexed": false,
          "internalType": "address",
          "name": "buyer",
          "type": "address"
        }
      ],
      "name": "OrderFilled",
      "type": "event"
    },
    {
      "anonymous": false,
      "inputs": [
        {
          "indexed": false,
          "internalType": "uint256",
          "name": "orderId",
          "type": "uint256"
        }
      ],
      "name": "OrderPublished",
      "type": "event"
    },
    {
      "anonymous": false,
      "inputs": [
        {
          "indexed": false,
          "internalType": "uint256",
          "name": "orderId",
          "type": "uint256"
        }
      ],
      "name": "OrderRemoved",
      "type": "event"
    },
    {
      "anonymous": false,
      "inputs": [
        {
          "indexed": false,
          "internalType": "uint256",
          "name": "orderId",
          "type": "uint256"
        },
        {
          "indexed": false,
          "internalType": "enum OrderManagement.Status",
          "name": "status",
          "type": "uint8"
        }
      ],
      "name": "OrderUpdated",
      "type": "event"
    },
    {
      "inputs": [
        {
          "internalType": "uint256",
          "name": "orderId",
          "type": "uint256"
        }
      ],
      "name": "cancelOrder",
      "outputs": [],
      "stateMutability": "nonpayable",
      "type": "function"
    },
    {
      "inputs": [
        {
          "internalType": "address",
          "name": "nftContract",
          "type": "address"
        },
        {
          "internalType": "address",
          "name": "tokenContract",
          "type": "address"
        },
        {
          "internalType": "uint256",
          "name": "tokenId",
          "type": "uint256"
        },
        {
          "internalType": "uint256",
          "name": "price",
          "type": "uint256"
        },
        {
          "internalType": "uint256",
          "name": "expiration",
          "type": "uint256"
        },
        {
          "internalType": "bytes",
          "name": "signature",
          "type": "bytes"
        }
      ],
      "name": "createOrder",
      "outputs": [],
      "stateMutability": "nonpayable",
      "type": "function"
    },
    {
      "inputs": [
        {
          "internalType": "uint256",
          "name": "orderId",
          "type": "uint256"
        }
      ],
      "name": "fillOrder",
      "outputs": [],
      "stateMutability": "nonpayable",
      "type": "function"
    },
    {
      "inputs": [
        {
          "internalType": "uint256",
          "name": "orderId",
          "type": "uint256"
        }
      ],
      "name": "getFillOrderResults",
      "outputs": [
        {
          "internalType": "address",
          "name": "maker",
          "type": "address"
        },
        {
          "internalType": "address",
          "name": "nftContract",
          "type": "address"
        },
        {
          "internalType": "address",
          "name": "tokenContract",
          "type": "address"
        },
        {
          "internalType": "uint256",
          "name": "tokenId",
          "type": "uint256"
        },
        {
          "internalType": "uint256",
          "name": "price",
          "type": "uint256"
        },
        {
          "internalType": "uint256",
          "name": "expiration",
          "type": "uint256"
        },
        {
          "internalType": "enum OrderManagement.Status",
          "name": "status",
          "type": "uint8"
        }
      ],
      "stateMutability": "view",
      "type": "function"
    },
    {
      "inputs": [],
      "name": "nftRouter",
      "outputs": [
        {
          "internalType": "contract NFTRouter",
          "name": "",
          "type": "address"
        }
      ],
      "stateMutability": "view",
      "type": "function"
    },
    {
      "inputs": [
        {
          "internalType": "uint256",
          "name": "",
          "type": "uint256"
        }
      ],
      "name": "orderBook",
      "outputs": [
        {
          "internalType": "address",
          "name": "maker",
          "type": "address"
        },
        {
          "internalType": "address",
          "name": "nftContract",
          "type": "address"
        },
        {
          "internalType": "address",
          "name": "tokenContract",
          "type": "address"
        },
        {
          "internalType": "uint256",
          "name": "tokenId",
          "type": "uint256"
        },
        {
          "internalType": "uint256",
          "name": "price",
          "type": "uint256"
        },
        {
          "internalType": "uint256",
          "name": "expiration",
          "type": "uint256"
        },
        {
          "internalType": "bool",
          "name": "published",
          "type": "bool"
        },
        {
          "internalType": "enum OrderManagement.Status",
          "name": "status",
          "type": "uint8"
        }
      ],
      "stateMutability": "view",
      "type": "function"
    },
    {
      "inputs": [],
      "name": "orderCount",
      "outputs": [
        {
          "internalType": "uint256",
          "name": "",
          "type": "uint256"
        }
      ],
      "stateMutability": "view",
      "type": "function"
    },
    {
      "inputs": [
        {
          "internalType": "uint256",
          "name": "orderId",
          "type": "uint256"
        }
      ],
      "name": "publishOrder",
      "outputs": [],
      "stateMutability": "nonpayable",
      "type": "function"
    },
    {
      "inputs": [
        {
          "internalType": "uint256",
          "name": "orderId",
          "type": "uint256"
        }
      ],
      "name": "removeOrder",
      "outputs": [],
      "stateMutability": "nonpayable",
      "type": "function"
    },
    {
      "inputs": [
        {
          "internalType": "uint256",
          "name": "orderId",
          "type": "uint256"
        },
        {
          "internalType": "enum OrderManagement.Status",
          "name": "status",
          "type": "uint8"
        }
      ],
      "name": "updateOrderStatus",
      "outputs": [],
      "stateMutability": "nonpayable",
      "type": "function"
    }
  ],
  "bytecode": "0x608060405260006001553480156200001657600080fd5b50604051620026103803806200261083398181016040528101906200003c919062000102565b80600260006101000a81548173ffffffffffffffffffffffffffffffffffffffff021916908373ffffffffffffffffffffffffffffffffffffffff1602179055505062000134565b600080fd5b600073ffffffffffffffffffffffffffffffffffffffff82169050919050565b6000620000b68262000089565b9050919050565b6000620000ca82620000a9565b9050919050565b620000dc81620000bd565b8114620000e857600080fd5b50565b600081519050620000fc81620000d1565b92915050565b6000602082840312156200011b576200011a62000084565b5b60006200012b84828501620000eb565b91505092915050565b6124cc80620001446000396000f3fe608060405234801561001057600080fd5b506004361061009e5760003560e01c80639645337a116100665780639645337a1461014b578063a20b6e3414610167578063aab3196d1461019e578063b39f554f146101ba578063f8a5375b146101d65761009e565b80632453ffa8146100a35780633e283504146100c1578063514fcac7146100f757806367b830ad14610113578063810489b51461012f575b600080fd5b6100ab6101f4565b6040516100b89190611623565b60405180910390f35b6100db60048036038101906100d6919061167e565b6101fa565b6040516100ee9796959493929190611763565b60405180910390f35b610111600480360381019061010c919061167e565b61033c565b005b61012d6004803603810190610128919061167e565b6104cd565b005b61014960048036038101906101449190611944565b6109a3565b005b6101656004803603810190610160919061167e565b610e2a565b005b610181600480360381019061017c919061167e565b610fd3565b604051610195989796959493929190611a08565b60405180910390f35b6101b860048036038101906101b39190611aab565b611095565b005b6101d460048036038101906101cf919061167e565b6111b4565b005b6101de611324565b6040516101eb9190611b4a565b60405180910390f35b60015481565b6000806000806000806000806000808a815260200190815260200160002090506001600281111561022e5761022d6116ec565b5b8160060160019054906101000a900460ff166002811115610252576102516116ec565b5b14610292576040517f08c379a000000000000000000000000000000000000000000000000000000000815260040161028990611bc2565b60405180910390fd5b8060000160009054906101000a900473ffffffffffffffffffffffffffffffffffffffff168160010160009054906101000a900473ffffffffffffffffffffffffffffffffffffffff168260020160009054906101000a900473ffffffffffffffffffffffffffffffffffffffff168360030154846004015485600501548660060160019054906101000a900460ff16975097509750975097509750975050919395979092949650565b803373ffffffffffffffffffffffffffffffffffffffff1660008083815260200190815260200160002060000160009054906101000a900473ffffffffffffffffffffffffffffffffffffffff1673ffffffffffffffffffffffffffffffffffffffff16146103e0576040517f08c379a00000000000000000000000000000000000000000000000000000000081526004016103d790611c2e565b60405180910390fd5b600080600084815260200190815260200160002090506000600281111561040a576104096116ec565b5b8160060160019054906101000a900460ff16600281111561042e5761042d6116ec565b5b1461046e576040517f08c379a000000000000000000000000000000000000000000000000000000000815260040161046590611c9a565b60405180910390fd5b60028160060160016101000a81548160ff02191690836002811115610496576104956116ec565b5b0217905550827fc41f4ceb2938876c35e61b705e9d2f18a02c4a26ce5e049a6308a943d46851b360405160405180910390a2505050565b60008060008381526020019081526020016000209050600060028111156104f7576104f66116ec565b5b8160060160019054906101000a900460ff16600281111561051b5761051a6116ec565b5b1461055b576040517f08c379a000000000000000000000000000000000000000000000000000000000815260040161055290611c9a565b60405180910390fd5b60006064606183600401546105709190611ce9565b61057a9190611d5a565b9050600081836004015461058e9190611d8b565b90508260020160009054906101000a900473ffffffffffffffffffffffffffffffffffffffff1673ffffffffffffffffffffffffffffffffffffffff166323b872dd3330846040518463ffffffff1660e01b81526004016105f193929190611dbf565b6020604051808303816000875af1158015610610573d6000803e3d6000fd5b505050506040513d601f19601f820116820180604052508101906106349190611e22565b508260020160009054906101000a900473ffffffffffffffffffffffffffffffffffffffff1673ffffffffffffffffffffffffffffffffffffffff1663095ea7b3600260009054906101000a900473ffffffffffffffffffffffffffffffffffffffff16836040518363ffffffff1660e01b81526004016106b6929190611e4f565b6020604051808303816000875af11580156106d5573d6000803e3d6000fd5b505050506040513d601f19601f820116820180604052508101906106f99190611e22565b508260020160009054906101000a900473ffffffffffffffffffffffffffffffffffffffff1673ffffffffffffffffffffffffffffffffffffffff166323b872dd338560000160009054906101000a900473ffffffffffffffffffffffffffffffffffffffff16856040518463ffffffff1660e01b815260040161077f93929190611dbf565b6020604051808303816000875af115801561079e573d6000803e3d6000fd5b505050506040513d601f19601f820116820180604052508101906107c29190611e22565b50600260009054906101000a900473ffffffffffffffffffffffffffffffffffffffff1673ffffffffffffffffffffffffffffffffffffffff16630717354a8460010160009054906101000a900473ffffffffffffffffffffffffffffffffffffffff168560030154846040518463ffffffff1660e01b815260040161084a93929190611e78565b600060405180830381600087803b15801561086457600080fd5b505af1158015610878573d6000803e3d6000fd5b505050508260010160009054906101000a900473ffffffffffffffffffffffffffffffffffffffff1673ffffffffffffffffffffffffffffffffffffffff166323b872dd8460000160009054906101000a900473ffffffffffffffffffffffffffffffffffffffff163386600301546040518463ffffffff1660e01b815260040161090593929190611dbf565b600060405180830381600087803b15801561091f57600080fd5b505af1158015610933573d6000803e3d6000fd5b5050505060018360060160016101000a81548160ff0219169083600281111561095f5761095e6116ec565b5b02179055507f74ebbab24ee8774729982ac100f931306b160f431f7f1483cc380186d56754bc8433604051610995929190611eaf565b60405180910390a150505050565b600086868686866040516020016109be959493929190611f41565b6040516020818303038152906040528051906020012090506000816040516020016109e99190612022565b6040516020818303038152906040528051906020012090506000610a0d828561134a565b90503373ffffffffffffffffffffffffffffffffffffffff168173ffffffffffffffffffffffffffffffffffffffff1614610a7d576040517f08c379a0000000000000000000000000000000000000000000000000000000008152600401610a7490612094565b60405180910390fd5b6000600260009054906101000a900473ffffffffffffffffffffffffffffffffffffffff1673ffffffffffffffffffffffffffffffffffffffff168a898b604051602401610acd939291906120b4565b6040516020818303038152906040527f6aaf1f38000000000000000000000000000000000000000000000000000000007bffffffffffffffffffffffffffffffffffffffffffffffffffffffff19166020820180517bffffffffffffffffffffffffffffffffffffffffffffffffffffffff8381831617835250505050604051610b57919061215c565b600060405180830381855af49150503d8060008114610b92576040519150601f19603f3d011682016040523d82523d6000602084013e610b97565b606091505b5050905080610bdb576040517f08c379a0000000000000000000000000000000000000000000000000000000008152600401610bd2906121bf565b60405180910390fd5b60006040518061010001604052803373ffffffffffffffffffffffffffffffffffffffff1681526020018c73ffffffffffffffffffffffffffffffffffffffff1681526020018b73ffffffffffffffffffffffffffffffffffffffff1681526020018a815260200189815260200188815260200160001515815260200160006002811115610c6c57610c6b6116ec565b5b815250905080600080600154815260200190815260200160002060008201518160000160006101000a81548173ffffffffffffffffffffffffffffffffffffffff021916908373ffffffffffffffffffffffffffffffffffffffff16021790555060208201518160010160006101000a81548173ffffffffffffffffffffffffffffffffffffffff021916908373ffffffffffffffffffffffffffffffffffffffff16021790555060408201518160020160006101000a81548173ffffffffffffffffffffffffffffffffffffffff021916908373ffffffffffffffffffffffffffffffffffffffff160217905550606082015181600301556080820151816004015560a0820151816005015560c08201518160060160006101000a81548160ff02191690831515021790555060e08201518160060160016101000a81548160ff02191690836002811115610dc457610dc36116ec565b5b02179055509050507f7e82078c35b6665b9d320ebeaa6c266960fad5b802c5558cf7df60c4769af95b600154604051610dfd9190611623565b60405180910390a160016000815480929190610e18906121df565b91905055505050505050505050505050565b803373ffffffffffffffffffffffffffffffffffffffff1660008083815260200190815260200160002060000160009054906101000a900473ffffffffffffffffffffffffffffffffffffffff1673ffffffffffffffffffffffffffffffffffffffff1614610ece576040517f08c379a0000000000000000000000000000000000000000000000000000000008152600401610ec590611c2e565b60405180910390fd5b600080838152602001908152602001600020600080820160006101000a81549073ffffffffffffffffffffffffffffffffffffffff02191690556001820160006101000a81549073ffffffffffffffffffffffffffffffffffffffff02191690556002820160006101000a81549073ffffffffffffffffffffffffffffffffffffffff02191690556003820160009055600482016000905560058201600090556006820160006101000a81549060ff02191690556006820160016101000a81549060ff021916905550507f2114a52d297f01ee99b38a96fbd79c650bf37e10c29e0967c6621187fbe2532282604051610fc79190611623565b60405180910390a15050565b60006020528060005260406000206000915090508060000160009054906101000a900473ffffffffffffffffffffffffffffffffffffffff16908060010160009054906101000a900473ffffffffffffffffffffffffffffffffffffffff16908060020160009054906101000a900473ffffffffffffffffffffffffffffffffffffffff16908060030154908060040154908060050154908060060160009054906101000a900460ff16908060060160019054906101000a900460ff16905088565b813373ffffffffffffffffffffffffffffffffffffffff1660008083815260200190815260200160002060000160009054906101000a900473ffffffffffffffffffffffffffffffffffffffff1673ffffffffffffffffffffffffffffffffffffffff1614611139576040517f08c379a000000000000000000000000000000000000000000000000000000000815260040161113090611c2e565b60405180910390fd5b8160008085815260200190815260200160002060060160016101000a81548160ff02191690836002811115611171576111706116ec565b5b02179055507f575764e5527275e78fb8b8cecd6ae324a82d9904ef7a29349dabdff1e1f54c3583836040516111a7929190612227565b60405180910390a1505050565b803373ffffffffffffffffffffffffffffffffffffffff1660008083815260200190815260200160002060000160009054906101000a900473ffffffffffffffffffffffffffffffffffffffff1673ffffffffffffffffffffffffffffffffffffffff1614611258576040517f08c379a000000000000000000000000000000000000000000000000000000000815260040161124f90611c2e565b60405180910390fd5b60008083815260200190815260200160002060060160009054906101000a900460ff16156112bb576040517f08c379a00000000000000000000000000000000000000000000000000000000081526004016112b29061229c565b60405180910390fd5b600160008084815260200190815260200160002060060160006101000a81548160ff0219169083151502179055507f33511369d19510f5f3820f40a95b162fe650755e87107162a578499a568c4152826040516113189190611623565b60405180910390a15050565b600260009054906101000a900473ffffffffffffffffffffffffffffffffffffffff1681565b60008060006113598585611371565b91509150611366816113c2565b819250505092915050565b60008060418351036113b25760008060006020860151925060408601519150606086015160001a90506113a687828585611528565b945094505050506113bb565b60006002915091505b9250929050565b600060048111156113d6576113d56116ec565b5b8160048111156113e9576113e86116ec565b5b03156115255760016004811115611403576114026116ec565b5b816004811115611416576114156116ec565b5b03611456576040517f08c379a000000000000000000000000000000000000000000000000000000000815260040161144d90612308565b60405180910390fd5b6002600481111561146a576114696116ec565b5b81600481111561147d5761147c6116ec565b5b036114bd576040517f08c379a00000000000000000000000000000000000000000000000000000000081526004016114b490612374565b60405180910390fd5b600360048111156114d1576114d06116ec565b5b8160048111156114e4576114e36116ec565b5b03611524576040517f08c379a000000000000000000000000000000000000000000000000000000000815260040161151b90612406565b60405180910390fd5b5b50565b6000807f7fffffffffffffffffffffffffffffff5d576e7357a4501ddfe92f46681b20a08360001c1115611563576000600391509150611601565b6000600187878787604051600081526020016040526040516115889493929190612451565b6020604051602081039080840390855afa1580156115aa573d6000803e3d6000fd5b505050602060405103519050600073ffffffffffffffffffffffffffffffffffffffff168173ffffffffffffffffffffffffffffffffffffffff16036115f857600060019250925050611601565b80600092509250505b94509492505050565b6000819050919050565b61161d8161160a565b82525050565b60006020820190506116386000830184611614565b92915050565b6000604051905090565b600080fd5b600080fd5b61165b8161160a565b811461166657600080fd5b50565b60008135905061167881611652565b92915050565b60006020828403121561169457611693611648565b5b60006116a284828501611669565b91505092915050565b600073ffffffffffffffffffffffffffffffffffffffff82169050919050565b60006116d6826116ab565b9050919050565b6116e6816116cb565b82525050565b7f4e487b7100000000000000000000000000000000000000000000000000000000600052602160045260246000fd5b6003811061172c5761172b6116ec565b5b50565b600081905061173d8261171b565b919050565b600061174d8261172f565b9050919050565b61175d81611742565b82525050565b600060e082019050611778600083018a6116dd565b61178560208301896116dd565b61179260408301886116dd565b61179f6060830187611614565b6117ac6080830186611614565b6117b960a0830185611614565b6117c660c0830184611754565b98975050505050505050565b6117db816116cb565b81146117e657600080fd5b50565b6000813590506117f8816117d2565b92915050565b600080fd5b600080fd5b6000601f19601f8301169050919050565b7f4e487b7100000000000000000000000000000000000000000000000000000000600052604160045260246000fd5b61185182611808565b810181811067ffffffffffffffff821117156118705761186f611819565b5b80604052505050565b600061188361163e565b905061188f8282611848565b919050565b600067ffffffffffffffff8211156118af576118ae611819565b5b6118b882611808565b9050602081019050919050565b82818337600083830152505050565b60006118e76118e284611894565b611879565b90508281526020810184848401111561190357611902611803565b5b61190e8482856118c5565b509392505050565b600082601f83011261192b5761192a6117fe565b5b813561193b8482602086016118d4565b91505092915050565b60008060008060008060c0878903121561196157611960611648565b5b600061196f89828a016117e9565b965050602061198089828a016117e9565b955050604061199189828a01611669565b94505060606119a289828a01611669565b93505060806119b389828a01611669565b92505060a087013567ffffffffffffffff8111156119d4576119d361164d565b5b6119e089828a01611916565b9150509295509295509295565b60008115159050919050565b611a02816119ed565b82525050565b600061010082019050611a1e600083018b6116dd565b611a2b602083018a6116dd565b611a3860408301896116dd565b611a456060830188611614565b611a526080830187611614565b611a5f60a0830186611614565b611a6c60c08301856119f9565b611a7960e0830184611754565b9998505050505050505050565b60038110611a9357600080fd5b50565b600081359050611aa581611a86565b92915050565b60008060408385031215611ac257611ac1611648565b5b6000611ad085828601611669565b9250506020611ae185828601611a96565b9150509250929050565b6000819050919050565b6000611b10611b0b611b06846116ab565b611aeb565b6116ab565b9050919050565b6000611b2282611af5565b9050919050565b6000611b3482611b17565b9050919050565b611b4481611b29565b82525050565b6000602082019050611b5f6000830184611b3b565b92915050565b600082825260208201905092915050565b7f4f7264657220686173206e6f74206265656e2066696c6c656400000000000000600082015250565b6000611bac601983611b65565b9150611bb782611b76565b602082019050919050565b60006020820190508181036000830152611bdb81611b9f565b9050919050565b7f4e6f7420617574686f72697a6564000000000000000000000000000000000000600082015250565b6000611c18600e83611b65565b9150611c2382611be2565b602082019050919050565b60006020820190508181036000830152611c4781611c0b565b9050919050565b7f4f72646572206973206e6f74206f70656e000000000000000000000000000000600082015250565b6000611c84601183611b65565b9150611c8f82611c4e565b602082019050919050565b60006020820190508181036000830152611cb381611c77565b9050919050565b7f4e487b7100000000000000000000000000000000000000000000000000000000600052601160045260246000fd5b6000611cf48261160a565b9150611cff8361160a565b9250828202611d0d8161160a565b91508282048414831517611d2457611d23611cba565b5b5092915050565b7f4e487b7100000000000000000000000000000000000000000000000000000000600052601260045260246000fd5b6000611d658261160a565b9150611d708361160a565b925082611d8057611d7f611d2b565b5b828204905092915050565b6000611d968261160a565b9150611da18361160a565b9250828203905081811115611db957611db8611cba565b5b92915050565b6000606082019050611dd460008301866116dd565b611de160208301856116dd565b611dee6040830184611614565b949350505050565b611dff816119ed565b8114611e0a57600080fd5b50565b600081519050611e1c81611df6565b92915050565b600060208284031215611e3857611e37611648565b5b6000611e4684828501611e0d565b91505092915050565b6000604082019050611e6460008301856116dd565b611e716020830184611614565b9392505050565b6000606082019050611e8d60008301866116dd565b611e9a6020830185611614565b611ea76040830184611614565b949350505050565b6000604082019050611ec46000830185611614565b611ed160208301846116dd565b9392505050565b60008160601b9050919050565b6000611ef082611ed8565b9050919050565b6000611f0282611ee5565b9050919050565b611f1a611f15826116cb565b611ef7565b82525050565b6000819050919050565b611f3b611f368261160a565b611f20565b82525050565b6000611f4d8288611f09565b601482019150611f5d8287611f09565b601482019150611f6d8286611f2a565b602082019150611f7d8285611f2a565b602082019150611f8d8284611f2a565b6020820191508190509695505050505050565b600081905092915050565b7f19457468657265756d205369676e6564204d6573736167653a0a333200000000600082015250565b6000611fe1601c83611fa0565b9150611fec82611fab565b601c82019050919050565b6000819050919050565b6000819050919050565b61201c61201782611ff7565b612001565b82525050565b600061202d82611fd4565b9150612039828461200b565b60208201915081905092915050565b7f496e76616c6964207369676e6174757265000000000000000000000000000000600082015250565b600061207e601183611b65565b915061208982612048565b602082019050919050565b600060208201905081810360008301526120ad81612071565b9050919050565b60006060820190506120c960008301866116dd565b6120d66020830185611614565b6120e360408301846116dd565b949350505050565b600081519050919050565b600081905092915050565b60005b8381101561211f578082015181840152602081019050612104565b60008484015250505050565b6000612136826120eb565b61214081856120f6565b9350612150818560208601612101565b80840191505092915050565b6000612168828461212b565b915081905092915050565b7f4661696c65642064656c656761746563616c6c00000000000000000000000000600082015250565b60006121a9601383611b65565b91506121b482612173565b602082019050919050565b600060208201905081810360008301526121d88161219c565b9050919050565b60006121ea8261160a565b91507fffffffffffffffffffffffffffffffffffffffffffffffffffffffffffffffff820361221c5761221b611cba565b5b600182019050919050565b600060408201905061223c6000830185611614565b6122496020830184611754565b9392505050565b7f4f7264657220616c7265616479207075626c6973686564000000000000000000600082015250565b6000612286601783611b65565b915061229182612250565b602082019050919050565b600060208201905081810360008301526122b581612279565b9050919050565b7f45434453413a20696e76616c6964207369676e61747572650000000000000000600082015250565b60006122f2601883611b65565b91506122fd826122bc565b602082019050919050565b60006020820190508181036000830152612321816122e5565b9050919050565b7f45434453413a20696e76616c6964207369676e6174757265206c656e67746800600082015250565b600061235e601f83611b65565b915061236982612328565b602082019050919050565b6000602082019050818103600083015261238d81612351565b9050919050565b7f45434453413a20696e76616c6964207369676e6174757265202773272076616c60008201527f7565000000000000000000000000000000000000000000000000000000000000602082015250565b60006123f0602283611b65565b91506123fb82612394565b604082019050919050565b6000602082019050818103600083015261241f816123e3565b9050919050565b61242f81611ff7565b82525050565b600060ff82169050919050565b61244b81612435565b82525050565b60006080820190506124666000830187612426565b6124736020830186612442565b6124806040830185612426565b61248d6060830184612426565b9594505050505056fea2646970667358221220c5207d29a7134703204327e1176494516f91870724ad9482dacb98570fb1bee264736f6c63430008120033",
  "linkReferences": {},
  "deployedLinkReferences": {}
}