{
  "_format": "hh-sol-artifact-1",
  "contractName": "OrderManagement",
  "sourceName": "contracts/OrderManagement.sol",
  "abi": [
    {
      "inputs": [
        {
          "internalType": "contract NFTRouter",
          "name": "_nftRouter",
          "type": "address"
        }
      ],
      "stateMutability": "nonpayable",
      "type": "constructor"
    },
    {
      "anonymous": false,
      "inputs": [
        {
          "indexed": false,
          "internalType": "uint256",
          "name": "orderId",
          "type": "uint256"
        }
      ],
      "name": "OrderCreated",
      "type": "event"
    },
    {
      "anonymous": false,
      "inputs": [
        {
          "indexed": false,
          "internalType": "uint256",
          "name": "orderId",
          "type": "uint256"
        }
      ],
      "name": "OrderPublished",
      "type": "event"
    },
    {
      "anonymous": false,
      "inputs": [
        {
          "indexed": false,
          "internalType": "uint256",
          "name": "orderId",
          "type": "uint256"
        }
      ],
      "name": "OrderRemoved",
      "type": "event"
    },
    {
      "anonymous": false,
      "inputs": [
        {
          "indexed": false,
          "internalType": "uint256",
          "name": "orderId",
          "type": "uint256"
        },
        {
          "indexed": false,
          "internalType": "enum OrderManagement.Status",
          "name": "status",
          "type": "uint8"
        }
      ],
      "name": "OrderUpdated",
      "type": "event"
    },
    {
      "inputs": [
        {
          "internalType": "address",
          "name": "nftContract",
          "type": "address"
        },
        {
          "internalType": "address",
          "name": "tokenContract",
          "type": "address"
        },
        {
          "internalType": "uint256",
          "name": "tokenId",
          "type": "uint256"
        },
        {
          "internalType": "uint256",
          "name": "price",
          "type": "uint256"
        },
        {
          "internalType": "uint256",
          "name": "expiration",
          "type": "uint256"
        },
        {
          "internalType": "bytes",
          "name": "signature",
          "type": "bytes"
        }
      ],
      "name": "createOrder",
      "outputs": [],
      "stateMutability": "nonpayable",
      "type": "function"
    },
    {
      "inputs": [],
      "name": "getNFTRouter",
      "outputs": [
        {
          "internalType": "contract NFTRouter",
          "name": "",
          "type": "address"
        }
      ],
      "stateMutability": "view",
      "type": "function"
    },
    {
      "inputs": [
        {
          "internalType": "uint256",
          "name": "orderId",
          "type": "uint256"
        }
      ],
      "name": "getOrder",
      "outputs": [
        {
          "components": [
            {
              "internalType": "address",
              "name": "maker",
              "type": "address"
            },
            {
              "internalType": "address",
              "name": "nftContract",
              "type": "address"
            },
            {
              "internalType": "address",
              "name": "tokenContract",
              "type": "address"
            },
            {
              "internalType": "uint256",
              "name": "tokenId",
              "type": "uint256"
            },
            {
              "internalType": "uint256",
              "name": "price",
              "type": "uint256"
            },
            {
              "internalType": "uint256",
              "name": "expiration",
              "type": "uint256"
            },
            {
              "internalType": "bool",
              "name": "published",
              "type": "bool"
            },
            {
              "internalType": "enum OrderManagement.Status",
              "name": "status",
              "type": "uint8"
            }
          ],
          "internalType": "struct OrderManagement.Order",
          "name": "",
          "type": "tuple"
        }
      ],
      "stateMutability": "view",
      "type": "function"
    },
    {
      "inputs": [],
      "name": "nftRouter",
      "outputs": [
        {
          "internalType": "contract NFTRouter",
          "name": "",
          "type": "address"
        }
      ],
      "stateMutability": "view",
      "type": "function"
    },
    {
      "inputs": [
        {
          "internalType": "uint256",
          "name": "",
          "type": "uint256"
        }
      ],
      "name": "orderBook",
      "outputs": [
        {
          "internalType": "address",
          "name": "maker",
          "type": "address"
        },
        {
          "internalType": "address",
          "name": "nftContract",
          "type": "address"
        },
        {
          "internalType": "address",
          "name": "tokenContract",
          "type": "address"
        },
        {
          "internalType": "uint256",
          "name": "tokenId",
          "type": "uint256"
        },
        {
          "internalType": "uint256",
          "name": "price",
          "type": "uint256"
        },
        {
          "internalType": "uint256",
          "name": "expiration",
          "type": "uint256"
        },
        {
          "internalType": "bool",
          "name": "published",
          "type": "bool"
        },
        {
          "internalType": "enum OrderManagement.Status",
          "name": "status",
          "type": "uint8"
        }
      ],
      "stateMutability": "view",
      "type": "function"
    },
    {
      "inputs": [],
      "name": "orderCount",
      "outputs": [
        {
          "internalType": "uint256",
          "name": "",
          "type": "uint256"
        }
      ],
      "stateMutability": "view",
      "type": "function"
    },
    {
      "inputs": [
        {
          "internalType": "uint256",
          "name": "orderId",
          "type": "uint256"
        }
      ],
      "name": "publishOrder",
      "outputs": [],
      "stateMutability": "nonpayable",
      "type": "function"
    },
    {
      "inputs": [
        {
          "internalType": "uint256",
          "name": "orderId",
          "type": "uint256"
        }
      ],
      "name": "removeOrder",
      "outputs": [],
      "stateMutability": "nonpayable",
      "type": "function"
    },
    {
      "inputs": [
        {
          "internalType": "uint256",
          "name": "orderId",
          "type": "uint256"
        },
        {
          "internalType": "enum OrderManagement.Status",
          "name": "status",
          "type": "uint8"
        }
      ],
      "name": "updateOrderStatus",
      "outputs": [],
      "stateMutability": "nonpayable",
      "type": "function"
    }
  ],
  "bytecode": "0x608060405260006001553480156200001657600080fd5b5060405162001bde38038062001bde83398181016040528101906200003c919062000102565b80600260006101000a81548173ffffffffffffffffffffffffffffffffffffffff021916908373ffffffffffffffffffffffffffffffffffffffff1602179055505062000134565b600080fd5b600073ffffffffffffffffffffffffffffffffffffffff82169050919050565b6000620000b68262000089565b9050919050565b6000620000ca82620000a9565b9050919050565b620000dc81620000bd565b8114620000e857600080fd5b50565b600081519050620000fc81620000d1565b92915050565b6000602082840312156200011b576200011a62000084565b5b60006200012b84828501620000eb565b91505092915050565b611a9a80620001446000396000f3fe608060405234801561001057600080fd5b50600436106100935760003560e01c8063a20b6e3411610066578063a20b6e341461010c578063aab3196d14610143578063b39f554f1461015f578063d09ef2411461017b578063f8a5375b146101ab57610093565b80630613340e146100985780632453ffa8146100b6578063810489b5146100d45780639645337a146100f0575b600080fd5b6100a06101c9565b6040516100ad9190610fbe565b60405180910390f35b6100be6101f3565b6040516100cb9190610ff2565b60405180910390f35b6100ee60048036038101906100e991906111d1565b6101f9565b005b61010a6004803603810190610105919061127a565b610521565b005b6101266004803603810190610121919061127a565b6106ca565b60405161013a989796959493929190611348565b60405180910390f35b61015d600480360381019061015891906113eb565b61078c565b005b6101796004803603810190610174919061127a565b6108ab565b005b6101956004803603810190610190919061127a565b610a1b565b6040516101a29190611509565b60405180910390f35b6101b3610bbe565b6040516101c09190610fbe565b60405180910390f35b6000600260009054906101000a900473ffffffffffffffffffffffffffffffffffffffff16905090565b60015481565b6000868686868660405160200161021495949392919061158e565b60405160208183030381529060405280519060200120905060008160405160200161023f919061166f565b60405160208183030381529060405280519060200120905060006102638285610be4565b90503373ffffffffffffffffffffffffffffffffffffffff168173ffffffffffffffffffffffffffffffffffffffff16146102d3576040517f08c379a00000000000000000000000000000000000000000000000000000000081526004016102ca906116f2565b60405180910390fd5b60006040518061010001604052803373ffffffffffffffffffffffffffffffffffffffff1681526020018b73ffffffffffffffffffffffffffffffffffffffff1681526020018a73ffffffffffffffffffffffffffffffffffffffff16815260200189815260200188815260200187815260200160001515815260200160006002811115610364576103636112d1565b5b815250905080600080600154815260200190815260200160002060008201518160000160006101000a81548173ffffffffffffffffffffffffffffffffffffffff021916908373ffffffffffffffffffffffffffffffffffffffff16021790555060208201518160010160006101000a81548173ffffffffffffffffffffffffffffffffffffffff021916908373ffffffffffffffffffffffffffffffffffffffff16021790555060408201518160020160006101000a81548173ffffffffffffffffffffffffffffffffffffffff021916908373ffffffffffffffffffffffffffffffffffffffff160217905550606082015181600301556080820151816004015560a0820151816005015560c08201518160060160006101000a81548160ff02191690831515021790555060e08201518160060160016101000a81548160ff021916908360028111156104bc576104bb6112d1565b5b02179055509050507f7e82078c35b6665b9d320ebeaa6c266960fad5b802c5558cf7df60c4769af95b6001546040516104f59190610ff2565b60405180910390a16001600081548092919061051090611741565b919050555050505050505050505050565b803373ffffffffffffffffffffffffffffffffffffffff1660008083815260200190815260200160002060000160009054906101000a900473ffffffffffffffffffffffffffffffffffffffff1673ffffffffffffffffffffffffffffffffffffffff16146105c5576040517f08c379a00000000000000000000000000000000000000000000000000000000081526004016105bc906117d5565b60405180910390fd5b600080838152602001908152602001600020600080820160006101000a81549073ffffffffffffffffffffffffffffffffffffffff02191690556001820160006101000a81549073ffffffffffffffffffffffffffffffffffffffff02191690556002820160006101000a81549073ffffffffffffffffffffffffffffffffffffffff02191690556003820160009055600482016000905560058201600090556006820160006101000a81549060ff02191690556006820160016101000a81549060ff021916905550507f2114a52d297f01ee99b38a96fbd79c650bf37e10c29e0967c6621187fbe25322826040516106be9190610ff2565b60405180910390a15050565b60006020528060005260406000206000915090508060000160009054906101000a900473ffffffffffffffffffffffffffffffffffffffff16908060010160009054906101000a900473ffffffffffffffffffffffffffffffffffffffff16908060020160009054906101000a900473ffffffffffffffffffffffffffffffffffffffff16908060030154908060040154908060050154908060060160009054906101000a900460ff16908060060160019054906101000a900460ff16905088565b813373ffffffffffffffffffffffffffffffffffffffff1660008083815260200190815260200160002060000160009054906101000a900473ffffffffffffffffffffffffffffffffffffffff1673ffffffffffffffffffffffffffffffffffffffff1614610830576040517f08c379a0000000000000000000000000000000000000000000000000000000008152600401610827906117d5565b60405180910390fd5b8160008085815260200190815260200160002060060160016101000a81548160ff02191690836002811115610868576108676112d1565b5b02179055507f575764e5527275e78fb8b8cecd6ae324a82d9904ef7a29349dabdff1e1f54c35838360405161089e9291906117f5565b60405180910390a1505050565b803373ffffffffffffffffffffffffffffffffffffffff1660008083815260200190815260200160002060000160009054906101000a900473ffffffffffffffffffffffffffffffffffffffff1673ffffffffffffffffffffffffffffffffffffffff161461094f576040517f08c379a0000000000000000000000000000000000000000000000000000000008152600401610946906117d5565b60405180910390fd5b60008083815260200190815260200160002060060160009054906101000a900460ff16156109b2576040517f08c379a00000000000000000000000000000000000000000000000000000000081526004016109a99061186a565b60405180910390fd5b600160008084815260200190815260200160002060060160006101000a81548160ff0219169083151502179055507f33511369d19510f5f3820f40a95b162fe650755e87107162a578499a568c415282604051610a0f9190610ff2565b60405180910390a15050565b610a23610ea4565b600080838152602001908152602001600020604051806101000160405290816000820160009054906101000a900473ffffffffffffffffffffffffffffffffffffffff1673ffffffffffffffffffffffffffffffffffffffff1673ffffffffffffffffffffffffffffffffffffffff1681526020016001820160009054906101000a900473ffffffffffffffffffffffffffffffffffffffff1673ffffffffffffffffffffffffffffffffffffffff1673ffffffffffffffffffffffffffffffffffffffff1681526020016002820160009054906101000a900473ffffffffffffffffffffffffffffffffffffffff1673ffffffffffffffffffffffffffffffffffffffff1673ffffffffffffffffffffffffffffffffffffffff1681526020016003820154815260200160048201548152602001600582015481526020016006820160009054906101000a900460ff161515151581526020016006820160019054906101000a900460ff166002811115610ba157610ba06112d1565b5b6002811115610bb357610bb26112d1565b5b815250509050919050565b600260009054906101000a900473ffffffffffffffffffffffffffffffffffffffff1681565b6000806000610bf38585610c0b565b91509150610c0081610c5c565b819250505092915050565b6000806041835103610c4c5760008060006020860151925060408601519150606086015160001a9050610c4087828585610dc2565b94509450505050610c55565b60006002915091505b9250929050565b60006004811115610c7057610c6f6112d1565b5b816004811115610c8357610c826112d1565b5b0315610dbf5760016004811115610c9d57610c9c6112d1565b5b816004811115610cb057610caf6112d1565b5b03610cf0576040517f08c379a0000000000000000000000000000000000000000000000000000000008152600401610ce7906118d6565b60405180910390fd5b60026004811115610d0457610d036112d1565b5b816004811115610d1757610d166112d1565b5b03610d57576040517f08c379a0000000000000000000000000000000000000000000000000000000008152600401610d4e90611942565b60405180910390fd5b60036004811115610d6b57610d6a6112d1565b5b816004811115610d7e57610d7d6112d1565b5b03610dbe576040517f08c379a0000000000000000000000000000000000000000000000000000000008152600401610db5906119d4565b60405180910390fd5b5b50565b6000807f7fffffffffffffffffffffffffffffff5d576e7357a4501ddfe92f46681b20a08360001c1115610dfd576000600391509150610e9b565b600060018787878760405160008152602001604052604051610e229493929190611a1f565b6020604051602081039080840390855afa158015610e44573d6000803e3d6000fd5b505050602060405103519050600073ffffffffffffffffffffffffffffffffffffffff168173ffffffffffffffffffffffffffffffffffffffff1603610e9257600060019250925050610e9b565b80600092509250505b94509492505050565b604051806101000160405280600073ffffffffffffffffffffffffffffffffffffffff168152602001600073ffffffffffffffffffffffffffffffffffffffff168152602001600073ffffffffffffffffffffffffffffffffffffffff16815260200160008152602001600081526020016000815260200160001515815260200160006002811115610f3957610f386112d1565b5b81525090565b600073ffffffffffffffffffffffffffffffffffffffff82169050919050565b6000819050919050565b6000610f84610f7f610f7a84610f3f565b610f5f565b610f3f565b9050919050565b6000610f9682610f69565b9050919050565b6000610fa882610f8b565b9050919050565b610fb881610f9d565b82525050565b6000602082019050610fd36000830184610faf565b92915050565b6000819050919050565b610fec81610fd9565b82525050565b60006020820190506110076000830184610fe3565b92915050565b6000604051905090565b600080fd5b600080fd5b600061102c82610f3f565b9050919050565b61103c81611021565b811461104757600080fd5b50565b60008135905061105981611033565b92915050565b61106881610fd9565b811461107357600080fd5b50565b6000813590506110858161105f565b92915050565b600080fd5b600080fd5b6000601f19601f8301169050919050565b7f4e487b7100000000000000000000000000000000000000000000000000000000600052604160045260246000fd5b6110de82611095565b810181811067ffffffffffffffff821117156110fd576110fc6110a6565b5b80604052505050565b600061111061100d565b905061111c82826110d5565b919050565b600067ffffffffffffffff82111561113c5761113b6110a6565b5b61114582611095565b9050602081019050919050565b82818337600083830152505050565b600061117461116f84611121565b611106565b9050828152602081018484840111156111905761118f611090565b5b61119b848285611152565b509392505050565b600082601f8301126111b8576111b761108b565b5b81356111c8848260208601611161565b91505092915050565b60008060008060008060c087890312156111ee576111ed611017565b5b60006111fc89828a0161104a565b965050602061120d89828a0161104a565b955050604061121e89828a01611076565b945050606061122f89828a01611076565b935050608061124089828a01611076565b92505060a087013567ffffffffffffffff8111156112615761126061101c565b5b61126d89828a016111a3565b9150509295509295509295565b6000602082840312156112905761128f611017565b5b600061129e84828501611076565b91505092915050565b6112b081611021565b82525050565b60008115159050919050565b6112cb816112b6565b82525050565b7f4e487b7100000000000000000000000000000000000000000000000000000000600052602160045260246000fd5b60038110611311576113106112d1565b5b50565b600081905061132282611300565b919050565b600061133282611314565b9050919050565b61134281611327565b82525050565b60006101008201905061135e600083018b6112a7565b61136b602083018a6112a7565b61137860408301896112a7565b6113856060830188610fe3565b6113926080830187610fe3565b61139f60a0830186610fe3565b6113ac60c08301856112c2565b6113b960e0830184611339565b9998505050505050505050565b600381106113d357600080fd5b50565b6000813590506113e5816113c6565b92915050565b6000806040838503121561140257611401611017565b5b600061141085828601611076565b9250506020611421858286016113d6565b9150509250929050565b61143481611021565b82525050565b61144381610fd9565b82525050565b611452816112b6565b82525050565b61146181611327565b82525050565b6101008201600082015161147e600085018261142b565b506020820151611491602085018261142b565b5060408201516114a4604085018261142b565b5060608201516114b7606085018261143a565b5060808201516114ca608085018261143a565b5060a08201516114dd60a085018261143a565b5060c08201516114f060c0850182611449565b5060e082015161150360e0850182611458565b50505050565b60006101008201905061151f6000830184611467565b92915050565b60008160601b9050919050565b600061153d82611525565b9050919050565b600061154f82611532565b9050919050565b61156761156282611021565b611544565b82525050565b6000819050919050565b61158861158382610fd9565b61156d565b82525050565b600061159a8288611556565b6014820191506115aa8287611556565b6014820191506115ba8286611577565b6020820191506115ca8285611577565b6020820191506115da8284611577565b6020820191508190509695505050505050565b600081905092915050565b7f19457468657265756d205369676e6564204d6573736167653a0a333200000000600082015250565b600061162e601c836115ed565b9150611639826115f8565b601c82019050919050565b6000819050919050565b6000819050919050565b61166961166482611644565b61164e565b82525050565b600061167a82611621565b91506116868284611658565b60208201915081905092915050565b600082825260208201905092915050565b7f496e76616c6964207369676e6174757265000000000000000000000000000000600082015250565b60006116dc601183611695565b91506116e7826116a6565b602082019050919050565b6000602082019050818103600083015261170b816116cf565b9050919050565b7f4e487b7100000000000000000000000000000000000000000000000000000000600052601160045260246000fd5b600061174c82610fd9565b91507fffffffffffffffffffffffffffffffffffffffffffffffffffffffffffffffff820361177e5761177d611712565b5b600182019050919050565b7f4e6f7420617574686f72697a6564000000000000000000000000000000000000600082015250565b60006117bf600e83611695565b91506117ca82611789565b602082019050919050565b600060208201905081810360008301526117ee816117b2565b9050919050565b600060408201905061180a6000830185610fe3565b6118176020830184611339565b9392505050565b7f4f7264657220616c7265616479207075626c6973686564000000000000000000600082015250565b6000611854601783611695565b915061185f8261181e565b602082019050919050565b6000602082019050818103600083015261188381611847565b9050919050565b7f45434453413a20696e76616c6964207369676e61747572650000000000000000600082015250565b60006118c0601883611695565b91506118cb8261188a565b602082019050919050565b600060208201905081810360008301526118ef816118b3565b9050919050565b7f45434453413a20696e76616c6964207369676e6174757265206c656e67746800600082015250565b600061192c601f83611695565b9150611937826118f6565b602082019050919050565b6000602082019050818103600083015261195b8161191f565b9050919050565b7f45434453413a20696e76616c6964207369676e6174757265202773272076616c60008201527f7565000000000000000000000000000000000000000000000000000000000000602082015250565b60006119be602283611695565b91506119c982611962565b604082019050919050565b600060208201905081810360008301526119ed816119b1565b9050919050565b6119fd81611644565b82525050565b600060ff82169050919050565b611a1981611a03565b82525050565b6000608082019050611a3460008301876119f4565b611a416020830186611a10565b611a4e60408301856119f4565b611a5b60608301846119f4565b9594505050505056fea2646970667358221220eb7dfb7e7818fbe5809ae2b682777b1d099b735e2997c17cd65ba6661260a34864736f6c63430008120033",
  "linkReferences": {},
  "deployedLinkReferences": {}
}